{
  "_format": "hh-sol-artifact-1",
  "contractName": "HealthLink",
  "sourceName": "contracts/HealthLink.sol",
  "abi": [
    {
      "inputs": [],
      "stateMutability": "nonpayable",
      "type": "constructor"
    },
    {
      "inputs": [],
      "name": "AccessControlBadConfirmation",
      "type": "error"
    },
    {
      "inputs": [
        {
          "internalType": "address",
          "name": "account",
          "type": "address"
        },
        {
          "internalType": "bytes32",
          "name": "neededRole",
          "type": "bytes32"
        }
      ],
      "name": "AccessControlUnauthorizedAccount",
      "type": "error"
    },
    {
      "inputs": [],
      "name": "ReentrancyGuardReentrantCall",
      "type": "error"
    },
    {
      "anonymous": false,
      "inputs": [
        {
          "indexed": true,
          "internalType": "bytes32",
          "name": "auditId",
          "type": "bytes32"
        },
        {
          "indexed": true,
          "internalType": "address",
          "name": "actor",
          "type": "address"
        },
        {
          "indexed": false,
          "internalType": "string",
          "name": "action",
          "type": "string"
        }
      ],
      "name": "AuditRecordCreated",
      "type": "event"
    },
    {
      "anonymous": false,
      "inputs": [
        {
          "indexed": true,
          "internalType": "string",
          "name": "consentId",
          "type": "string"
        },
        {
          "indexed": true,
          "internalType": "string",
          "name": "patientId",
          "type": "string"
        },
        {
          "indexed": true,
          "internalType": "address",
          "name": "grantee",
          "type": "address"
        }
      ],
      "name": "ConsentCreated",
      "type": "event"
    },
    {
      "anonymous": false,
      "inputs": [
        {
          "indexed": true,
          "internalType": "string",
          "name": "consentId",
          "type": "string"
        },
        {
          "indexed": false,
          "internalType": "uint256",
          "name": "timestamp",
          "type": "uint256"
        }
      ],
      "name": "ConsentRevoked",
      "type": "event"
    },
    {
      "anonymous": false,
      "inputs": [
        {
          "indexed": true,
          "internalType": "string",
          "name": "patientId",
          "type": "string"
        },
        {
          "indexed": true,
          "internalType": "address",
          "name": "creator",
          "type": "address"
        },
        {
          "indexed": false,
          "internalType": "uint256",
          "name": "timestamp",
          "type": "uint256"
        }
      ],
      "name": "PatientCreated",
      "type": "event"
    },
    {
      "anonymous": false,
      "inputs": [
        {
          "indexed": true,
          "internalType": "string",
          "name": "patientId",
          "type": "string"
        },
        {
          "indexed": false,
          "internalType": "string",
          "name": "recordId",
          "type": "string"
        },
        {
          "indexed": false,
          "internalType": "string",
          "name": "recordHash",
          "type": "string"
        },
        {
          "indexed": false,
          "internalType": "uint256",
          "name": "timestamp",
          "type": "uint256"
        }
      ],
      "name": "RecordHashAdded",
      "type": "event"
    },
    {
      "anonymous": false,
      "inputs": [
        {
          "indexed": true,
          "internalType": "bytes32",
          "name": "role",
          "type": "bytes32"
        },
        {
          "indexed": true,
          "internalType": "bytes32",
          "name": "previousAdminRole",
          "type": "bytes32"
        },
        {
          "indexed": true,
          "internalType": "bytes32",
          "name": "newAdminRole",
          "type": "bytes32"
        }
      ],
      "name": "RoleAdminChanged",
      "type": "event"
    },
    {
      "anonymous": false,
      "inputs": [
        {
          "indexed": true,
          "internalType": "bytes32",
          "name": "role",
          "type": "bytes32"
        },
        {
          "indexed": true,
          "internalType": "address",
          "name": "account",
          "type": "address"
        },
        {
          "indexed": true,
          "internalType": "address",
          "name": "sender",
          "type": "address"
        }
      ],
      "name": "RoleGranted",
      "type": "event"
    },
    {
      "anonymous": false,
      "inputs": [
        {
          "indexed": true,
          "internalType": "bytes32",
          "name": "role",
          "type": "bytes32"
        },
        {
          "indexed": true,
          "internalType": "address",
          "name": "account",
          "type": "address"
        },
        {
          "indexed": true,
          "internalType": "address",
          "name": "sender",
          "type": "address"
        }
      ],
      "name": "RoleRevoked",
      "type": "event"
    },
    {
      "inputs": [],
      "name": "ADMIN_ROLE",
      "outputs": [
        {
          "internalType": "bytes32",
          "name": "",
          "type": "bytes32"
        }
      ],
      "stateMutability": "view",
      "type": "function"
    },
    {
      "inputs": [],
      "name": "DEFAULT_ADMIN_ROLE",
      "outputs": [
        {
          "internalType": "bytes32",
          "name": "",
          "type": "bytes32"
        }
      ],
      "stateMutability": "view",
      "type": "function"
    },
    {
      "inputs": [],
      "name": "DOCTOR_ROLE",
      "outputs": [
        {
          "internalType": "bytes32",
          "name": "",
          "type": "bytes32"
        }
      ],
      "stateMutability": "view",
      "type": "function"
    },
    {
      "inputs": [],
      "name": "PATIENT_ROLE",
      "outputs": [
        {
          "internalType": "bytes32",
          "name": "",
          "type": "bytes32"
        }
      ],
      "stateMutability": "view",
      "type": "function"
    },
    {
      "inputs": [
        {
          "internalType": "string",
          "name": "_patientId",
          "type": "string"
        },
        {
          "internalType": "string",
          "name": "_recordId",
          "type": "string"
        },
        {
          "internalType": "string",
          "name": "_recordHash",
          "type": "string"
        }
      ],
      "name": "addRecordHash",
      "outputs": [],
      "stateMutability": "nonpayable",
      "type": "function"
    },
    {
      "inputs": [
        {
          "internalType": "string",
          "name": "_consentId",
          "type": "string"
        },
        {
          "internalType": "string",
          "name": "_patientId",
          "type": "string"
        },
        {
          "internalType": "address",
          "name": "_granteeAddress",
          "type": "address"
        },
        {
          "internalType": "string",
          "name": "_scope",
          "type": "string"
        },
        {
          "internalType": "string",
          "name": "_purpose",
          "type": "string"
        },
        {
          "internalType": "uint256",
          "name": "_validUntil",
          "type": "uint256"
        }
      ],
      "name": "createConsent",
      "outputs": [],
      "stateMutability": "nonpayable",
      "type": "function"
    },
    {
      "inputs": [
        {
          "internalType": "string",
          "name": "_patientId",
          "type": "string"
        },
        {
          "internalType": "string",
          "name": "_publicData",
          "type": "string"
        }
      ],
      "name": "createPatient",
      "outputs": [],
      "stateMutability": "nonpayable",
      "type": "function"
    },
    {
      "inputs": [
        {
          "internalType": "bytes32",
          "name": "_auditId",
          "type": "bytes32"
        }
      ],
      "name": "getAuditRecord",
      "outputs": [
        {
          "components": [
            {
              "internalType": "string",
              "name": "action",
              "type": "string"
            },
            {
              "internalType": "address",
              "name": "actor",
              "type": "address"
            },
            {
              "internalType": "string",
              "name": "targetId",
              "type": "string"
            },
            {
              "internalType": "string",
              "name": "details",
              "type": "string"
            },
            {
              "internalType": "uint256",
              "name": "timestamp",
              "type": "uint256"
            },
            {
              "internalType": "bytes32",
              "name": "txHash",
              "type": "bytes32"
            }
          ],
          "internalType": "struct HealthLink.AuditRecord",
          "name": "",
          "type": "tuple"
        }
      ],
      "stateMutability": "view",
      "type": "function"
    },
    {
      "inputs": [
        {
          "internalType": "uint256",
          "name": "_limit",
          "type": "uint256"
        }
      ],
      "name": "getAuditRecords",
      "outputs": [
        {
          "components": [
            {
              "internalType": "string",
              "name": "action",
              "type": "string"
            },
            {
              "internalType": "address",
              "name": "actor",
              "type": "address"
            },
            {
              "internalType": "string",
              "name": "targetId",
              "type": "string"
            },
            {
              "internalType": "string",
              "name": "details",
              "type": "string"
            },
            {
              "internalType": "uint256",
              "name": "timestamp",
              "type": "uint256"
            },
            {
              "internalType": "bytes32",
              "name": "txHash",
              "type": "bytes32"
            }
          ],
          "internalType": "struct HealthLink.AuditRecord[]",
          "name": "",
          "type": "tuple[]"
        }
      ],
      "stateMutability": "view",
      "type": "function"
    },
    {
      "inputs": [
        {
          "internalType": "string",
          "name": "_consentId",
          "type": "string"
        }
      ],
      "name": "getConsent",
      "outputs": [
        {
          "components": [
            {
              "internalType": "string",
              "name": "consentId",
              "type": "string"
            },
            {
              "internalType": "string",
              "name": "patientId",
              "type": "string"
            },
            {
              "internalType": "address",
              "name": "granteeAddress",
              "type": "address"
            },
            {
              "internalType": "string",
              "name": "scope",
              "type": "string"
            },
            {
              "internalType": "string",
              "name": "purpose",
              "type": "string"
            },
            {
              "internalType": "uint256",
              "name": "validUntil",
              "type": "uint256"
            },
            {
              "internalType": "enum HealthLink.ConsentStatus",
              "name": "status",
              "type": "uint8"
            },
            {
              "internalType": "uint256",
              "name": "createdAt",
              "type": "uint256"
            },
            {
              "internalType": "uint256",
              "name": "revokedAt",
              "type": "uint256"
            }
          ],
          "internalType": "struct HealthLink.Consent",
          "name": "",
          "type": "tuple"
        }
      ],
      "stateMutability": "view",
      "type": "function"
    },
    {
      "inputs": [
        {
          "internalType": "string",
          "name": "_patientId",
          "type": "string"
        }
      ],
      "name": "getConsentsByPatient",
      "outputs": [
        {
          "components": [
            {
              "internalType": "string",
              "name": "consentId",
              "type": "string"
            },
            {
              "internalType": "string",
              "name": "patientId",
              "type": "string"
            },
            {
              "internalType": "address",
              "name": "granteeAddress",
              "type": "address"
            },
            {
              "internalType": "string",
              "name": "scope",
              "type": "string"
            },
            {
              "internalType": "string",
              "name": "purpose",
              "type": "string"
            },
            {
              "internalType": "uint256",
              "name": "validUntil",
              "type": "uint256"
            },
            {
              "internalType": "enum HealthLink.ConsentStatus",
              "name": "status",
              "type": "uint8"
            },
            {
              "internalType": "uint256",
              "name": "createdAt",
              "type": "uint256"
            },
            {
              "internalType": "uint256",
              "name": "revokedAt",
              "type": "uint256"
            }
          ],
          "internalType": "struct HealthLink.Consent[]",
          "name": "",
          "type": "tuple[]"
        }
      ],
      "stateMutability": "view",
      "type": "function"
    },
    {
      "inputs": [
        {
          "internalType": "string",
          "name": "_patientId",
          "type": "string"
        }
      ],
      "name": "getPatient",
      "outputs": [
        {
          "components": [
            {
              "internalType": "string",
              "name": "patientId",
              "type": "string"
            },
            {
              "internalType": "string",
              "name": "publicData",
              "type": "string"
            },
            {
              "internalType": "bool",
              "name": "exists",
              "type": "bool"
            },
            {
              "internalType": "uint256",
              "name": "createdAt",
              "type": "uint256"
            }
          ],
          "internalType": "struct HealthLink.Patient",
          "name": "",
          "type": "tuple"
        }
      ],
      "stateMutability": "view",
      "type": "function"
    },
    {
      "inputs": [
        {
          "internalType": "string",
          "name": "_patientId",
          "type": "string"
        },
        {
          "internalType": "string",
          "name": "_recordId",
          "type": "string"
        }
      ],
      "name": "getRecordHash",
      "outputs": [
        {
          "internalType": "string",
          "name": "",
          "type": "string"
        }
      ],
      "stateMutability": "view",
      "type": "function"
    },
    {
      "inputs": [
        {
          "internalType": "bytes32",
          "name": "role",
          "type": "bytes32"
        }
      ],
      "name": "getRoleAdmin",
      "outputs": [
        {
          "internalType": "bytes32",
          "name": "",
          "type": "bytes32"
        }
      ],
      "stateMutability": "view",
      "type": "function"
    },
    {
      "inputs": [
        {
          "internalType": "address",
          "name": "_admin",
          "type": "address"
        }
      ],
      "name": "grantAdminRole",
      "outputs": [],
      "stateMutability": "nonpayable",
      "type": "function"
    },
    {
      "inputs": [
        {
          "internalType": "address",
          "name": "_doctor",
          "type": "address"
        }
      ],
      "name": "grantDoctorRole",
      "outputs": [],
      "stateMutability": "nonpayable",
      "type": "function"
    },
    {
      "inputs": [
        {
          "internalType": "address",
          "name": "_patient",
          "type": "address"
        }
      ],
      "name": "grantPatientRole",
      "outputs": [],
      "stateMutability": "nonpayable",
      "type": "function"
    },
    {
      "inputs": [
        {
          "internalType": "bytes32",
          "name": "role",
          "type": "bytes32"
        },
        {
          "internalType": "address",
          "name": "account",
          "type": "address"
        }
      ],
      "name": "grantRole",
      "outputs": [],
      "stateMutability": "nonpayable",
      "type": "function"
    },
    {
      "inputs": [
        {
          "internalType": "bytes32",
          "name": "role",
          "type": "bytes32"
        },
        {
          "internalType": "address",
          "name": "account",
          "type": "address"
        }
      ],
      "name": "hasRole",
      "outputs": [
        {
          "internalType": "bool",
          "name": "",
          "type": "bool"
        }
      ],
      "stateMutability": "view",
      "type": "function"
    },
    {
      "inputs": [
        {
          "internalType": "bytes32",
          "name": "role",
          "type": "bytes32"
        },
        {
          "internalType": "address",
          "name": "callerConfirmation",
          "type": "address"
        }
      ],
      "name": "renounceRole",
      "outputs": [],
      "stateMutability": "nonpayable",
      "type": "function"
    },
    {
      "inputs": [
        {
          "internalType": "string",
          "name": "_consentId",
          "type": "string"
        }
      ],
      "name": "revokeConsent",
      "outputs": [],
      "stateMutability": "nonpayable",
      "type": "function"
    },
    {
      "inputs": [
        {
          "internalType": "bytes32",
          "name": "role",
          "type": "bytes32"
        },
        {
          "internalType": "address",
          "name": "account",
          "type": "address"
        }
      ],
      "name": "revokeRole",
      "outputs": [],
      "stateMutability": "nonpayable",
      "type": "function"
    },
    {
      "inputs": [
        {
          "internalType": "bytes4",
          "name": "interfaceId",
          "type": "bytes4"
        }
      ],
      "name": "supportsInterface",
      "outputs": [
        {
          "internalType": "bool",
          "name": "",
          "type": "bool"
        }
      ],
      "stateMutability": "view",
      "type": "function"
    }
  ],
  "bytecode": "0x60806040523480156200001157600080fd5b50600180556200002360003362000057565b50620000507fa49807205ce4d355092ef5a8a18f56e8913cf4a201fbe287825b095693c217753362000057565b5062000106565b6000828152602081815260408083206001600160a01b038516845290915281205460ff16620000fc576000838152602081815260408083206001600160a01b03861684529091529020805460ff19166001179055620000b33390565b6001600160a01b0316826001600160a01b0316847f2f8788117e7eff1d82e926ec794901d17c78024a50270940304540a733656f0d60405160405180910390a450600162000100565b5060005b92915050565b612f0d80620001166000396000f3fe608060405234801561001057600080fd5b506004361061014d5760003560e01c806391d14854116100c3578063ac4b6bb21161007c578063ac4b6bb2146102f5578063ac5cb97d14610315578063c634b78e1461032a578063d547741f1461033d578063e79a7a2e14610350578063fec331f21461037057600080fd5b806391d14854146102815780639a57189f14610294578063a217fddf146102a7578063a24d9658146102af578063a9a97c87146102c2578063aa07c359146102d557600080fd5b80632f5635cc116101155780632f5635cc1461020057806336568abe14610213578063398487501461022657806366a71d351461023957806375b238fc146102595780637f2df8b01461026e57600080fd5b806301ffc9a7146101525780631f4b1c9e1461017a5780631fe398101461019a578063248a9ca3146101ba5780632f2ff15d146101eb575b600080fd5b6101656101603660046124ac565b610385565b60405190151581526020015b60405180910390f35b61018d6101883660046124dd565b6103bc565b60405161017191906125c1565b6101ad6101a8366004612677565b610629565b60405161017191906126db565b6101dd6101c83660046124dd565b60009081526020819052604090206001015490565b604051908152602001610171565b6101fe6101f936600461270a565b6106f6565b005b6101fe61020e366004612736565b610721565b6101fe61022136600461270a565b610755565b6101fe610234366004612677565b61078d565b61024c610247366004612751565b6109dd565b6040516101719190612882565b6101dd600080516020612eb883398151915281565b6101fe61027c366004612736565b610d39565b61016561028f36600461270a565b610d69565b6101fe6102a2366004612895565b610d92565b6101dd600081565b6101fe6102bd366004612751565b610f6b565b6101fe6102d036600461291d565b611210565b6102e86102e33660046124dd565b6115af565b60405161017191906129e3565b610308610303366004612751565b611891565b6040516101719190612a47565b6101dd600080516020612e7883398151915281565b6101fe610338366004612736565b611d0f565b6101fe61034b36600461270a565b611d32565b61036361035e366004612751565b611d57565b6040516101719190612a9e565b6101dd600080516020612e9883398151915281565b60006001600160e01b03198216637965db0b60e01b14806103b657506301ffc9a760e01b6001600160e01b03198316145b92915050565b6103c4612404565b60008281526004602081905260408220015490036104295760405162461bcd60e51b815260206004820152601b60248201527f4175646974207265636f726420646f6573206e6f74206578697374000000000060448201526064015b60405180910390fd5b60008281526004602052604090819020815160c0810190925280548290829061045190612afa565b80601f016020809104026020016040519081016040528092919081815260200182805461047d90612afa565b80156104ca5780601f1061049f576101008083540402835291602001916104ca565b820191906000526020600020905b8154815290600101906020018083116104ad57829003601f168201915b505050918352505060018201546001600160a01b031660208201526002820180546040909201916104fa90612afa565b80601f016020809104026020016040519081016040528092919081815260200182805461052690612afa565b80156105735780601f1061054857610100808354040283529160200191610573565b820191906000526020600020905b81548152906001019060200180831161055657829003601f168201915b5050505050815260200160038201805461058c90612afa565b80601f01602080910402602001604051908101604052809291908181526020018280546105b890612afa565b80156106055780601f106105da57610100808354040283529160200191610605565b820191906000526020600020905b8154815290600101906020018083116105e857829003601f168201915b50505050508152602001600482015481526020016005820154815250509050919050565b606060058360405161063b9190612b34565b9081526020016040518091039020826040516106579190612b34565b9081526020016040518091039020805461067090612afa565b80601f016020809104026020016040519081016040528092919081815260200182805461069c90612afa565b80156106e95780601f106106be576101008083540402835291602001916106e9565b820191906000526020600020905b8154815290600101906020018083116106cc57829003601f168201915b5050505050905092915050565b60008281526020819052604090206001015461071181611f33565b61071b8383611f3d565b50505050565b600080516020612eb883398151915261073981611f33565b610751600080516020612e98833981519152836106f6565b5050565b6001600160a01b038116331461077e5760405163334bd91960e11b815260040160405180910390fd5b6107888282611fcf565b505050565b61079561203a565b6107ad600080516020612eb883398151915233610d69565b806107cb57506107cb600080516020612e9883398151915233610d69565b61082a5760405162461bcd60e51b815260206004820152602a60248201527f4f6e6c792061646d696e73206f7220646f63746f72732063616e206372656174604482015269652070617469656e747360b01b6064820152608401610420565b60028260405161083a9190612b34565b9081526040519081900360200190206002015460ff16156108965760405162461bcd60e51b815260206004820152601660248201527550617469656e7420616c72656164792065786973747360501b6044820152606401610420565b604080516080810182528381526020810183905260018183015242606082015290516002906108c6908590612b34565b908152604051908190036020019020815181906108e39082612b98565b50602082015160018201906108f89082612b98565b50604082015160028201805460ff1916911515919091179055606090910151600390910155600680546001810182556000919091527ff652222313e28459528d920b65115c16c04f3efc82aaedc97be59f3f377c0d3f016109598382612b98565b5061098a6040518060400160405280600d81526020016c10dc99585d1954185d1a595b9d609a1b8152508383612064565b604051339061099a908490612b34565b604051908190038120428252907fb6f7af19cbde1ca118bee800180d924e867450eef2cd48dccfc92336361506d49060200160405180910390a361075160018055565b6109e5612446565b60006003836040516109f79190612b34565b9081526040519081900360200190208054610a1190612afa565b905011610a595760405162461bcd60e51b815260206004820152601660248201527510dbdb9cd95b9d08191bd95cc81b9bdd08195e1a5cdd60521b6044820152606401610420565b600382604051610a699190612b34565b908152602001604051809103902060405180610120016040529081600082018054610a9390612afa565b80601f0160208091040260200160405190810160405280929190818152602001828054610abf90612afa565b8015610b0c5780601f10610ae157610100808354040283529160200191610b0c565b820191906000526020600020905b815481529060010190602001808311610aef57829003601f168201915b50505050508152602001600182018054610b2590612afa565b80601f0160208091040260200160405190810160405280929190818152602001828054610b5190612afa565b8015610b9e5780601f10610b7357610100808354040283529160200191610b9e565b820191906000526020600020905b815481529060010190602001808311610b8157829003601f168201915b505050918352505060028201546001600160a01b03166020820152600382018054604090920191610bce90612afa565b80601f0160208091040260200160405190810160405280929190818152602001828054610bfa90612afa565b8015610c475780601f10610c1c57610100808354040283529160200191610c47565b820191906000526020600020905b815481529060010190602001808311610c2a57829003601f168201915b50505050508152602001600482018054610c6090612afa565b80601f0160208091040260200160405190810160405280929190818152602001828054610c8c90612afa565b8015610cd95780601f10610cae57610100808354040283529160200191610cd9565b820191906000526020600020905b815481529060010190602001808311610cbc57829003601f168201915b505050918352505060058201546020820152600682015460409091019060ff166001811115610d0a57610d0a61278e565b6001811115610d1b57610d1b61278e565b81526007820154602082015260089091015460409091015292915050565b600080516020612eb8833981519152610d5181611f33565b610751600080516020612e78833981519152836106f6565b6000918252602082815260408084206001600160a01b0393909316845291905290205460ff1690565b610d9a61203a565b600283604051610daa9190612b34565b9081526040519081900360200190206002015460ff16610ddc5760405162461bcd60e51b815260040161042090612c58565b610df4600080516020612eb883398151915233610d69565b80610e125750610e12600080516020612e9883398151915233610d69565b610e7b5760405162461bcd60e51b815260206004820152603460248201527f556e617574686f72697a65643a204f6e6c792061646d696e73206f7220646f63604482015273746f72732063616e20616464207265636f72647360601b6064820152608401610420565b80600584604051610e8c9190612b34565b908152602001604051809103902083604051610ea89190612b34565b90815260200160405180910390209081610ec29190612b98565b50600082604051602001610ed69190612c88565b60408051601f19818403018152828201909152600d82526c082c8c8a4cac6dee4c890c2e6d609b1b60208301529150610f10908583612064565b83604051610f1e9190612b34565b60405180910390207fc571213b84e6525e57b0a8f82f9c7bf2ade55faa009067b49b6f88117288db3a848442604051610f5993929190612cba565b60405180910390a25061078860018055565b610f7361203a565b6000600382604051610f859190612b34565b9081526040519081900360200190208054610f9f90612afa565b905011610fe75760405162461bcd60e51b815260206004820152601660248201527510dbdb9cd95b9d08191bd95cc81b9bdd08195e1a5cdd60521b6044820152606401610420565b6000600382604051610ff99190612b34565b9081526040519081900360200190206006015460ff1660018111156110205761102061278e565b1461106d5760405162461bcd60e51b815260206004820152601760248201527f436f6e73656e7420616c7265616479207265766f6b65640000000000000000006044820152606401610420565b611085600080516020612e7883398151915233610d69565b806110a357506110a3600080516020612eb883398151915233610d69565b6111155760405162461bcd60e51b815260206004820152603860248201527f556e617574686f72697a65643a204f6e6c792070617469656e7473206f72206160448201527f646d696e732063616e207265766f6b6520636f6e73656e7400000000000000006064820152608401610420565b60016003826040516111279190612b34565b908152604051908190036020019020600601805460ff1916600183818111156111525761115261278e565b0217905550426003826040516111689190612b34565b9081526020016040518091039020600801819055506111bc6040518060400160405280600d81526020016c14995d9bdad950dbdb9cd95b9d609a1b8152508260405180602001604052806000815250612064565b806040516111ca9190612b34565b604051908190038120428252907fccb09cde5047d9b5656c21b96d24df0d89eea588876adbb059225056989004049060200160405180910390a261120d60018055565b50565b61121861203a565b6002856040516112289190612b34565b9081526040519081900360200190206002015460ff1661125a5760405162461bcd60e51b815260040161042090612c58565b611272600080516020612e7883398151915233610d69565b806112905750611290600080516020612eb883398151915233610d69565b6113025760405162461bcd60e51b815260206004820152603860248201527f556e617574686f72697a65643a204f6e6c792070617469656e7473206f72206160448201527f646d696e732063616e2063726561746520636f6e73656e7400000000000000006064820152608401610420565b6003866040516113129190612b34565b908152604051908190036020019020805461132c90612afa565b1590506113745760405162461bcd60e51b8152602060048201526016602482015275436f6e73656e7420616c72656164792065786973747360501b6044820152606401610420565b604051806101200160405280878152602001868152602001856001600160a01b03168152602001848152602001838152602001828152602001600060018111156113c0576113c061278e565b815260200142815260200160008152506003876040516113e09190612b34565b908152604051908190036020019020815181906113fd9082612b98565b50602082015160018201906114129082612b98565b5060408201516002820180546001600160a01b0319166001600160a01b039092169190911790556060820151600382019061144d9082612b98565b50608082015160048201906114629082612b98565b5060a0820151600582015560c082015160068201805460ff19166001838181111561148f5761148f61278e565b021790555060e08201516007808301919091556101009092015160089091015580546001810182556000919091527fa66cc928b5edb82af9bd49922954155ab7b0942694bea4ce44661d9a8736c688016114e98782612b98565b5060006114f5856121d1565b6040516020016115059190612cf0565b60408051601f19818403018152828201909152600d82526c10dc99585d1950dbdb9cd95b9d609a1b6020830152915061153f908883612064565b846001600160a01b0316866040516115579190612b34565b60405180910390208860405161156d9190612b34565b604051908190038120907f947d72f7e95dece5a1ff48de3acf0be88533c2feb5e0f938f56775535788774990600090a4506115a760018055565b505050505050565b60085460609060009083116115c457826115c8565b6008545b905060008167ffffffffffffffff8111156115e5576115e56125d4565b60405190808252806020026020018201604052801561161e57816020015b61160b612404565b8152602001906001900390816116035790505b50905060005b82811015611889576004600060088360016008805490506116459190612d37565b61164f9190612d37565b8154811061165f5761165f612d4a565b906000526020600020015481526020019081526020016000206040518060c001604052908160008201805461169390612afa565b80601f01602080910402602001604051908101604052809291908181526020018280546116bf90612afa565b801561170c5780601f106116e15761010080835404028352916020019161170c565b820191906000526020600020905b8154815290600101906020018083116116ef57829003601f168201915b505050918352505060018201546001600160a01b0316602082015260028201805460409092019161173c90612afa565b80601f016020809104026020016040519081016040528092919081815260200182805461176890612afa565b80156117b55780601f1061178a576101008083540402835291602001916117b5565b820191906000526020600020905b81548152906001019060200180831161179857829003601f168201915b505050505081526020016003820180546117ce90612afa565b80601f01602080910402602001604051908101604052809291908181526020018280546117fa90612afa565b80156118475780601f1061181c57610100808354040283529160200191611847565b820191906000526020600020905b81548152906001019060200180831161182a57829003601f168201915b505050505081526020016004820154815260200160058201548152505082828151811061187657611876612d4a565b6020908102919091010152600101611624565b509392505050565b60606000805b6007548110156119165783805190602001206003600783815481106118be576118be612d4a565b906000526020600020016040516118d59190612dd3565b90815260200160405180910390206001016040516118f39190612dd3565b60405180910390200361190e578161190a81612ddf565b9250505b600101611897565b5060008167ffffffffffffffff811115611932576119326125d4565b60405190808252806020026020018201604052801561196b57816020015b611958612446565b8152602001906001900390816119505790505b5090506000805b600754811015611d0557858051906020012060036007838154811061199957611999612d4a565b906000526020600020016040516119b09190612dd3565b90815260200160405180910390206001016040516119ce9190612dd3565b604051809103902003611cfd576003600782815481106119f0576119f0612d4a565b90600052602060002001604051611a079190612dd3565b908152602001604051809103902060405180610120016040529081600082018054611a3190612afa565b80601f0160208091040260200160405190810160405280929190818152602001828054611a5d90612afa565b8015611aaa5780601f10611a7f57610100808354040283529160200191611aaa565b820191906000526020600020905b815481529060010190602001808311611a8d57829003601f168201915b50505050508152602001600182018054611ac390612afa565b80601f0160208091040260200160405190810160405280929190818152602001828054611aef90612afa565b8015611b3c5780601f10611b1157610100808354040283529160200191611b3c565b820191906000526020600020905b815481529060010190602001808311611b1f57829003601f168201915b505050918352505060028201546001600160a01b03166020820152600382018054604090920191611b6c90612afa565b80601f0160208091040260200160405190810160405280929190818152602001828054611b9890612afa565b8015611be55780601f10611bba57610100808354040283529160200191611be5565b820191906000526020600020905b815481529060010190602001808311611bc857829003601f168201915b50505050508152602001600482018054611bfe90612afa565b80601f0160208091040260200160405190810160405280929190818152602001828054611c2a90612afa565b8015611c775780601f10611c4c57610100808354040283529160200191611c77565b820191906000526020600020905b815481529060010190602001808311611c5a57829003601f168201915b505050918352505060058201546020820152600682015460409091019060ff166001811115611ca857611ca861278e565b6001811115611cb957611cb961278e565b815260200160078201548152602001600882015481525050838381518110611ce357611ce3612d4a565b60200260200101819052508180611cf990612ddf565b9250505b600101611972565b5090949350505050565b6000611d1a81611f33565b610751600080516020612eb8833981519152836106f6565b600082815260208190526040902060010154611d4d81611f33565b61071b8383611fcf565b611d8460405180608001604052806060815260200160608152602001600015158152602001600081525090565b600282604051611d949190612b34565b9081526040519081900360200190206002015460ff16611dc65760405162461bcd60e51b815260040161042090612c58565b600282604051611dd69190612b34565b9081526020016040518091039020604051806080016040529081600082018054611dff90612afa565b80601f0160208091040260200160405190810160405280929190818152602001828054611e2b90612afa565b8015611e785780601f10611e4d57610100808354040283529160200191611e78565b820191906000526020600020905b815481529060010190602001808311611e5b57829003601f168201915b50505050508152602001600182018054611e9190612afa565b80601f0160208091040260200160405190810160405280929190818152602001828054611ebd90612afa565b8015611f0a5780601f10611edf57610100808354040283529160200191611f0a565b820191906000526020600020905b815481529060010190602001808311611eed57829003601f168201915b5050509183525050600282015460ff161515602082015260039091015460409091015292915050565b61120d81336123cb565b6000611f498383610d69565b611fc7576000838152602081815260408083206001600160a01b03861684529091529020805460ff19166001179055611f7f3390565b6001600160a01b0316826001600160a01b0316847f2f8788117e7eff1d82e926ec794901d17c78024a50270940304540a733656f0d60405160405180910390a45060016103b6565b5060006103b6565b6000611fdb8383610d69565b15611fc7576000838152602081815260408083206001600160a01b0386168085529252808320805460ff1916905551339286917ff6391f5c32d9c69d2a47ea670b442974b53935d1edc7fd64eb21e047a839171b9190a45060016103b6565b60026001540361205d57604051633ee5aeb560e01b815260040160405180910390fd5b6002600155565b60004233858560405160200161207d9493929190612df8565b6040516020818303038152906040528051906020012090506040518060c00160405280858152602001336001600160a01b031681526020018481526020018381526020014281526020016001436120d49190612d37565b4090526000828152600460205260409020815181906120f39082612b98565b5060208201516001820180546001600160a01b0319166001600160a01b039092169190911790556040820151600282019061212e9082612b98565b50606082015160038201906121439082612b98565b506080820151600482015560a090910151600590910155600880546001810182556000919091527ff3f7a9fe364faab93b216da50a3214154f22a0a2b415b23a84c8169e8b636ee301819055604051339082907fbc841b031c5232969796ed9c9e1d8cb2d13db1ccb72ef36a07a96e0c8d37cbfd906121c39088906126db565b60405180910390a350505050565b604051606082811b6bffffffffffffffffffffffff191660208301529060009060340160408051808303601f190181528282018252601083526f181899199a1a9b1b9c1cb0b131b232b360811b60208401528151602a80825260608201909352909350600091602082018180368337019050509050600360fc1b8160008151811061225e5761225e612d4a565b60200101906001600160f81b031916908160001a905350600f60fb1b8160018151811061228d5761228d612d4a565b60200101906001600160f81b031916908160001a90535060005b60148110156123c2578260048583815181106122c5576122c5612d4a565b016020015182516001600160f81b031990911690911c60f81c9081106122ed576122ed612d4a565b01602001516001600160f81b03191682612308836002612e4d565b612313906002612e64565b8151811061232357612323612d4a565b60200101906001600160f81b031916908160001a9053508284828151811061234d5761234d612d4a565b602091010151815160f89190911c600f1690811061236d5761236d612d4a565b01602001516001600160f81b03191682612388836002612e4d565b612393906003612e64565b815181106123a3576123a3612d4a565b60200101906001600160f81b031916908160001a9053506001016122a7565b50949350505050565b6123d58282610d69565b6107515760405163e2517d3f60e01b81526001600160a01b038216600482015260248101839052604401610420565b6040518060c001604052806060815260200160006001600160a01b03168152602001606081526020016060815260200160008152602001600080191681525090565b604051806101200160405280606081526020016060815260200160006001600160a01b03168152602001606081526020016060815260200160008152602001600060018111156124985761249861278e565b815260200160008152602001600081525090565b6000602082840312156124be57600080fd5b81356001600160e01b0319811681146124d657600080fd5b9392505050565b6000602082840312156124ef57600080fd5b5035919050565b60005b838110156125115781810151838201526020016124f9565b50506000910152565b600081518084526125328160208601602086016124f6565b601f01601f19169290920160200192915050565b6000815160c0845261255b60c085018261251a565b905060018060a01b03602084015116602085015260408301518482036040860152612586828261251a565b915050606083015184820360608601526125a0828261251a565b9150506080830151608085015260a083015160a08501528091505092915050565b6020815260006124d66020830184612546565b634e487b7160e01b600052604160045260246000fd5b600082601f8301126125fb57600080fd5b813567ffffffffffffffff80821115612616576126166125d4565b604051601f8301601f19908116603f0116810190828211818310171561263e5761263e6125d4565b8160405283815286602085880101111561265757600080fd5b836020870160208301376000602085830101528094505050505092915050565b6000806040838503121561268a57600080fd5b823567ffffffffffffffff808211156126a257600080fd5b6126ae868387016125ea565b935060208501359150808211156126c457600080fd5b506126d1858286016125ea565b9150509250929050565b6020815260006124d6602083018461251a565b80356001600160a01b038116811461270557600080fd5b919050565b6000806040838503121561271d57600080fd5b8235915061272d602084016126ee565b90509250929050565b60006020828403121561274857600080fd5b6124d6826126ee565b60006020828403121561276357600080fd5b813567ffffffffffffffff81111561277a57600080fd5b612786848285016125ea565b949350505050565b634e487b7160e01b600052602160045260246000fd5b600281106127c257634e487b7160e01b600052602160045260246000fd5b9052565b600061012082518185526127dc8286018261251a565b915050602083015184820360208601526127f6828261251a565b915050604083015161281360408601826001600160a01b03169052565b506060830151848203606086015261282b828261251a565b91505060808301518482036080860152612845828261251a565b91505060a083015160a085015260c083015161286460c08601826127a4565b5060e083810151908501526101009283015192909301919091525090565b6020815260006124d660208301846127c6565b6000806000606084860312156128aa57600080fd5b833567ffffffffffffffff808211156128c257600080fd5b6128ce878388016125ea565b945060208601359150808211156128e457600080fd5b6128f0878388016125ea565b9350604086013591508082111561290657600080fd5b50612913868287016125ea565b9150509250925092565b60008060008060008060c0878903121561293657600080fd5b863567ffffffffffffffff8082111561294e57600080fd5b61295a8a838b016125ea565b9750602089013591508082111561297057600080fd5b61297c8a838b016125ea565b965061298a60408a016126ee565b955060608901359150808211156129a057600080fd5b6129ac8a838b016125ea565b945060808901359150808211156129c257600080fd5b506129cf89828a016125ea565b92505060a087013590509295509295509295565b600060208083016020845280855180835260408601915060408160051b87010192506020870160005b82811015612a3a57603f19888603018452612a28858351612546565b94509285019290850190600101612a0c565b5092979650505050505050565b600060208083016020845280855180835260408601915060408160051b87010192506020870160005b82811015612a3a57603f19888603018452612a8c8583516127c6565b94509285019290850190600101612a70565b602081526000825160806020840152612aba60a084018261251a565b90506020840151601f19848303016040850152612ad7828261251a565b915050604084015115156060840152606084015160808401528091505092915050565b600181811c90821680612b0e57607f821691505b602082108103612b2e57634e487b7160e01b600052602260045260246000fd5b50919050565b60008251612b468184602087016124f6565b9190910192915050565b601f821115610788576000816000526020600020601f850160051c81016020861015612b795750805b601f850160051c820191505b818110156115a757828155600101612b85565b815167ffffffffffffffff811115612bb257612bb26125d4565b612bc681612bc08454612afa565b84612b50565b602080601f831160018114612bfb5760008415612be35750858301515b600019600386901b1c1916600185901b1785556115a7565b600085815260208120601f198616915b82811015612c2a57888601518255948401946001909101908401612c0b565b5085821015612c485787850151600019600388901b60f8161c191681555b5050505050600190811b01905550565b60208082526016908201527514185d1a595b9d08191bd95cc81b9bdd08195e1a5cdd60521b604082015260600190565b6902932b1b7b93224b21d160b51b815260008251612cad81600a8501602087016124f6565b91909101600a0192915050565b606081526000612ccd606083018661251a565b8281036020840152612cdf818661251a565b915050826040830152949350505050565b68023b930b73a32b29d160bd1b815260008251612d148160098501602087016124f6565b9190910160090192915050565b634e487b7160e01b600052601160045260246000fd5b818103818111156103b6576103b6612d21565b634e487b7160e01b600052603260045260246000fd5b60008154612d6d81612afa565b60018281168015612d855760018114612d9a57612dc9565b60ff1984168752821515830287019450612dc9565b8560005260208060002060005b85811015612dc05781548a820152908401908201612da7565b50505082870194505b5050505092915050565b60006124d68284612d60565b600060018201612df157612df1612d21565b5060010190565b8481526bffffffffffffffffffffffff198460601b16602082015260008351612e288160348501602088016124f6565b835190830190612e3f8160348401602088016124f6565b016034019695505050505050565b80820281158282048414176103b6576103b6612d21565b808201808211156103b6576103b6612d2156fe72606200fac42b7dc86b75901d61ecfab2a4a1a6eded478b97a428094891abed0af1dac7dea2fd7f7738119cec7df099dfad49aa9d2e7d17ba6b60f63ae7411fa49807205ce4d355092ef5a8a18f56e8913cf4a201fbe287825b095693c21775a26469706673582212205ae18087b5d4fa8d235cd9223dd6a13b01102efc4c4359f6ae2ab3f2705e609464736f6c63430008180033",
  "linkReferences": {},
  "deployedLinkReferences": {}
}