{
  "_format": "hh-sol-artifact-1",
  "contractName": "Appointments",
  "sourceName": "contracts/Appointments.sol",
  "abi": [
    {
      "inputs": [],
      "stateMutability": "nonpayable",
      "type": "constructor"
    },
    {
      "inputs": [],
      "name": "AccessControlBadConfirmation",
      "type": "error"
    },
    {
      "inputs": [
        {
          "internalType": "address",
          "name": "account",
          "type": "address"
        },
        {
          "internalType": "bytes32",
          "name": "neededRole",
          "type": "bytes32"
        }
      ],
      "name": "AccessControlUnauthorizedAccount",
      "type": "error"
    },
    {
      "inputs": [],
      "name": "ReentrancyGuardReentrantCall",
      "type": "error"
    },
    {
      "anonymous": false,
      "inputs": [
        {
          "indexed": true,
          "internalType": "string",
          "name": "appointmentId",
          "type": "string"
        },
        {
          "indexed": false,
          "internalType": "uint256",
          "name": "timestamp",
          "type": "uint256"
        }
      ],
      "name": "AppointmentCancelled",
      "type": "event"
    },
    {
      "anonymous": false,
      "inputs": [
        {
          "indexed": true,
          "internalType": "string",
          "name": "appointmentId",
          "type": "string"
        },
        {
          "indexed": true,
          "internalType": "string",
          "name": "patientId",
          "type": "string"
        },
        {
          "indexed": true,
          "internalType": "string",
          "name": "doctorId",
          "type": "string"
        },
        {
          "indexed": false,
          "internalType": "uint256",
          "name": "appointmentDate",
          "type": "uint256"
        }
      ],
      "name": "AppointmentCreated",
      "type": "event"
    },
    {
      "anonymous": false,
      "inputs": [
        {
          "indexed": true,
          "internalType": "string",
          "name": "appointmentId",
          "type": "string"
        },
        {
          "indexed": false,
          "internalType": "enum Appointments.AppointmentStatus",
          "name": "status",
          "type": "uint8"
        }
      ],
      "name": "AppointmentUpdated",
      "type": "event"
    },
    {
      "anonymous": false,
      "inputs": [
        {
          "indexed": true,
          "internalType": "bytes32",
          "name": "role",
          "type": "bytes32"
        },
        {
          "indexed": true,
          "internalType": "bytes32",
          "name": "previousAdminRole",
          "type": "bytes32"
        },
        {
          "indexed": true,
          "internalType": "bytes32",
          "name": "newAdminRole",
          "type": "bytes32"
        }
      ],
      "name": "RoleAdminChanged",
      "type": "event"
    },
    {
      "anonymous": false,
      "inputs": [
        {
          "indexed": true,
          "internalType": "bytes32",
          "name": "role",
          "type": "bytes32"
        },
        {
          "indexed": true,
          "internalType": "address",
          "name": "account",
          "type": "address"
        },
        {
          "indexed": true,
          "internalType": "address",
          "name": "sender",
          "type": "address"
        }
      ],
      "name": "RoleGranted",
      "type": "event"
    },
    {
      "anonymous": false,
      "inputs": [
        {
          "indexed": true,
          "internalType": "bytes32",
          "name": "role",
          "type": "bytes32"
        },
        {
          "indexed": true,
          "internalType": "address",
          "name": "account",
          "type": "address"
        },
        {
          "indexed": true,
          "internalType": "address",
          "name": "sender",
          "type": "address"
        }
      ],
      "name": "RoleRevoked",
      "type": "event"
    },
    {
      "inputs": [],
      "name": "ADMIN_ROLE",
      "outputs": [
        {
          "internalType": "bytes32",
          "name": "",
          "type": "bytes32"
        }
      ],
      "stateMutability": "view",
      "type": "function"
    },
    {
      "inputs": [],
      "name": "DEFAULT_ADMIN_ROLE",
      "outputs": [
        {
          "internalType": "bytes32",
          "name": "",
          "type": "bytes32"
        }
      ],
      "stateMutability": "view",
      "type": "function"
    },
    {
      "inputs": [],
      "name": "DOCTOR_ROLE",
      "outputs": [
        {
          "internalType": "bytes32",
          "name": "",
          "type": "bytes32"
        }
      ],
      "stateMutability": "view",
      "type": "function"
    },
    {
      "inputs": [],
      "name": "PATIENT_ROLE",
      "outputs": [
        {
          "internalType": "bytes32",
          "name": "",
          "type": "bytes32"
        }
      ],
      "stateMutability": "view",
      "type": "function"
    },
    {
      "inputs": [
        {
          "internalType": "string",
          "name": "_appointmentId",
          "type": "string"
        }
      ],
      "name": "appointmentExists",
      "outputs": [
        {
          "internalType": "bool",
          "name": "",
          "type": "bool"
        }
      ],
      "stateMutability": "view",
      "type": "function"
    },
    {
      "inputs": [
        {
          "internalType": "string",
          "name": "_appointmentId",
          "type": "string"
        }
      ],
      "name": "cancelAppointment",
      "outputs": [],
      "stateMutability": "nonpayable",
      "type": "function"
    },
    {
      "inputs": [
        {
          "internalType": "string",
          "name": "_appointmentId",
          "type": "string"
        },
        {
          "internalType": "string",
          "name": "_patientId",
          "type": "string"
        },
        {
          "internalType": "string",
          "name": "_doctorId",
          "type": "string"
        },
        {
          "internalType": "uint256",
          "name": "_appointmentDate",
          "type": "uint256"
        },
        {
          "internalType": "string",
          "name": "_reason",
          "type": "string"
        },
        {
          "internalType": "string",
          "name": "_notes",
          "type": "string"
        }
      ],
      "name": "createAppointment",
      "outputs": [],
      "stateMutability": "nonpayable",
      "type": "function"
    },
    {
      "inputs": [
        {
          "internalType": "string",
          "name": "_appointmentId",
          "type": "string"
        }
      ],
      "name": "getAppointment",
      "outputs": [
        {
          "components": [
            {
              "internalType": "string",
              "name": "appointmentId",
              "type": "string"
            },
            {
              "internalType": "string",
              "name": "patientId",
              "type": "string"
            },
            {
              "internalType": "string",
              "name": "doctorId",
              "type": "string"
            },
            {
              "internalType": "uint256",
              "name": "appointmentDate",
              "type": "uint256"
            },
            {
              "internalType": "string",
              "name": "reason",
              "type": "string"
            },
            {
              "internalType": "string",
              "name": "notes",
              "type": "string"
            },
            {
              "internalType": "enum Appointments.AppointmentStatus",
              "name": "status",
              "type": "uint8"
            },
            {
              "internalType": "uint256",
              "name": "createdAt",
              "type": "uint256"
            },
            {
              "internalType": "uint256",
              "name": "updatedAt",
              "type": "uint256"
            },
            {
              "internalType": "bool",
              "name": "exists",
              "type": "bool"
            }
          ],
          "internalType": "struct Appointments.Appointment",
          "name": "",
          "type": "tuple"
        }
      ],
      "stateMutability": "view",
      "type": "function"
    },
    {
      "inputs": [
        {
          "internalType": "string",
          "name": "_doctorId",
          "type": "string"
        }
      ],
      "name": "getAppointmentsByDoctor",
      "outputs": [
        {
          "components": [
            {
              "internalType": "string",
              "name": "appointmentId",
              "type": "string"
            },
            {
              "internalType": "string",
              "name": "patientId",
              "type": "string"
            },
            {
              "internalType": "string",
              "name": "doctorId",
              "type": "string"
            },
            {
              "internalType": "uint256",
              "name": "appointmentDate",
              "type": "uint256"
            },
            {
              "internalType": "string",
              "name": "reason",
              "type": "string"
            },
            {
              "internalType": "string",
              "name": "notes",
              "type": "string"
            },
            {
              "internalType": "enum Appointments.AppointmentStatus",
              "name": "status",
              "type": "uint8"
            },
            {
              "internalType": "uint256",
              "name": "createdAt",
              "type": "uint256"
            },
            {
              "internalType": "uint256",
              "name": "updatedAt",
              "type": "uint256"
            },
            {
              "internalType": "bool",
              "name": "exists",
              "type": "bool"
            }
          ],
          "internalType": "struct Appointments.Appointment[]",
          "name": "",
          "type": "tuple[]"
        }
      ],
      "stateMutability": "view",
      "type": "function"
    },
    {
      "inputs": [
        {
          "internalType": "string",
          "name": "_patientId",
          "type": "string"
        }
      ],
      "name": "getAppointmentsByPatient",
      "outputs": [
        {
          "components": [
            {
              "internalType": "string",
              "name": "appointmentId",
              "type": "string"
            },
            {
              "internalType": "string",
              "name": "patientId",
              "type": "string"
            },
            {
              "internalType": "string",
              "name": "doctorId",
              "type": "string"
            },
            {
              "internalType": "uint256",
              "name": "appointmentDate",
              "type": "uint256"
            },
            {
              "internalType": "string",
              "name": "reason",
              "type": "string"
            },
            {
              "internalType": "string",
              "name": "notes",
              "type": "string"
            },
            {
              "internalType": "enum Appointments.AppointmentStatus",
              "name": "status",
              "type": "uint8"
            },
            {
              "internalType": "uint256",
              "name": "createdAt",
              "type": "uint256"
            },
            {
              "internalType": "uint256",
              "name": "updatedAt",
              "type": "uint256"
            },
            {
              "internalType": "bool",
              "name": "exists",
              "type": "bool"
            }
          ],
          "internalType": "struct Appointments.Appointment[]",
          "name": "",
          "type": "tuple[]"
        }
      ],
      "stateMutability": "view",
      "type": "function"
    },
    {
      "inputs": [
        {
          "internalType": "bytes32",
          "name": "role",
          "type": "bytes32"
        }
      ],
      "name": "getRoleAdmin",
      "outputs": [
        {
          "internalType": "bytes32",
          "name": "",
          "type": "bytes32"
        }
      ],
      "stateMutability": "view",
      "type": "function"
    },
    {
      "inputs": [
        {
          "internalType": "address",
          "name": "_admin",
          "type": "address"
        }
      ],
      "name": "grantAdminRole",
      "outputs": [],
      "stateMutability": "nonpayable",
      "type": "function"
    },
    {
      "inputs": [
        {
          "internalType": "address",
          "name": "_doctor",
          "type": "address"
        }
      ],
      "name": "grantDoctorRole",
      "outputs": [],
      "stateMutability": "nonpayable",
      "type": "function"
    },
    {
      "inputs": [
        {
          "internalType": "address",
          "name": "_patient",
          "type": "address"
        }
      ],
      "name": "grantPatientRole",
      "outputs": [],
      "stateMutability": "nonpayable",
      "type": "function"
    },
    {
      "inputs": [
        {
          "internalType": "bytes32",
          "name": "role",
          "type": "bytes32"
        },
        {
          "internalType": "address",
          "name": "account",
          "type": "address"
        }
      ],
      "name": "grantRole",
      "outputs": [],
      "stateMutability": "nonpayable",
      "type": "function"
    },
    {
      "inputs": [
        {
          "internalType": "bytes32",
          "name": "role",
          "type": "bytes32"
        },
        {
          "internalType": "address",
          "name": "account",
          "type": "address"
        }
      ],
      "name": "hasRole",
      "outputs": [
        {
          "internalType": "bool",
          "name": "",
          "type": "bool"
        }
      ],
      "stateMutability": "view",
      "type": "function"
    },
    {
      "inputs": [
        {
          "internalType": "bytes32",
          "name": "role",
          "type": "bytes32"
        },
        {
          "internalType": "address",
          "name": "callerConfirmation",
          "type": "address"
        }
      ],
      "name": "renounceRole",
      "outputs": [],
      "stateMutability": "nonpayable",
      "type": "function"
    },
    {
      "inputs": [
        {
          "internalType": "bytes32",
          "name": "role",
          "type": "bytes32"
        },
        {
          "internalType": "address",
          "name": "account",
          "type": "address"
        }
      ],
      "name": "revokeRole",
      "outputs": [],
      "stateMutability": "nonpayable",
      "type": "function"
    },
    {
      "inputs": [
        {
          "internalType": "bytes4",
          "name": "interfaceId",
          "type": "bytes4"
        }
      ],
      "name": "supportsInterface",
      "outputs": [
        {
          "internalType": "bool",
          "name": "",
          "type": "bool"
        }
      ],
      "stateMutability": "view",
      "type": "function"
    },
    {
      "inputs": [
        {
          "internalType": "string",
          "name": "_appointmentId",
          "type": "string"
        },
        {
          "internalType": "string",
          "name": "_notes",
          "type": "string"
        }
      ],
      "name": "updateAppointmentNotes",
      "outputs": [],
      "stateMutability": "nonpayable",
      "type": "function"
    },
    {
      "inputs": [
        {
          "internalType": "string",
          "name": "_appointmentId",
          "type": "string"
        },
        {
          "internalType": "enum Appointments.AppointmentStatus",
          "name": "_status",
          "type": "uint8"
        }
      ],
      "name": "updateAppointmentStatus",
      "outputs": [],
      "stateMutability": "nonpayable",
      "type": "function"
    }
  ],
  "bytecode": "0x60806040523480156200001157600080fd5b50600180556200002360003362000057565b50620000507fa49807205ce4d355092ef5a8a18f56e8913cf4a201fbe287825b095693c217753362000057565b5062000106565b6000828152602081815260408083206001600160a01b038516845290915281205460ff16620000fc576000838152602081815260408083206001600160a01b03861684529091529020805460ff19166001179055620000b33390565b6001600160a01b0316826001600160a01b0316847f2f8788117e7eff1d82e926ec794901d17c78024a50270940304540a733656f0d60405160405180910390a450600162000100565b5060005b92915050565b61238480620001166000396000f3fe608060405234801561001057600080fd5b50600436106101375760003560e01c806375b238fc116100b8578063a7a04dc21161007c578063a7a04dc21461029f578063ac5cb97d146102b2578063c634b78e146102c7578063d547741f146102da578063f2ae6997146102ed578063fec331f21461030057600080fd5b806375b238fc146102495780637f2df8b01461025e5780638100b62d1461027157806391d1485414610284578063a217fddf1461029757600080fd5b806336568abe116100ff57806336568abe146101d057806344602deb146101e3578063508e4f4e146101f657806352f9e61014610209578063759daa1a1461022957600080fd5b806301ffc9a71461013c578063248a9ca31461016457806329039d3a146101955780632f2ff15d146101a85780632f5635cc146101bd575b600080fd5b61014f61014a366004611c27565b610315565b60405190151581526020015b60405180910390f35b610187610172366004611c58565b60009081526020819052604090206001015490565b60405190815260200161015b565b61014f6101a3366004611d14565b61034c565b6101bb6101b6366004611d6d565b61037a565b005b6101bb6101cb366004611d99565b6103a5565b6101bb6101de366004611d6d565b6103d9565b6101bb6101f1366004611db4565b610411565b6101bb610204366004611e18565b610583565b61021c610217366004611d14565b6106ca565b60405161015b9190611fbe565b61023c610237366004611d14565b610bce565b60405161015b9190612022565b61018760008051602061232f83398151915281565b6101bb61026c366004611d99565b610f82565b6101bb61027f366004611d14565b610fb2565b61014f610292366004611d6d565b611127565b610187600081565b61021c6102ad366004611d14565b611150565b6101876000805160206122ef83398151915281565b6101bb6102d5366004611d99565b61164c565b6101bb6102e8366004611d6d565b61166f565b6101bb6102fb366004612035565b611694565b61018760008051602061230f83398151915281565b60006001600160e01b03198216637965db0b60e01b148061034657506301ffc9a760e01b6001600160e01b03198316145b92915050565b600060028260405161035e919061210f565b9081526040519081900360200190206009015460ff1692915050565b60008281526020819052604090206001015461039581611a57565b61039f8383611a61565b50505050565b60008051602061232f8339815191526103bd81611a57565b6103d560008051602061230f8339815191528361037a565b5050565b6001600160a01b03811633146104025760405163334bd91960e11b815260040160405180910390fd5b61040c8282611af3565b505050565b610419611b5e565b600282604051610429919061210f565b9081526040519081900360200190206009015460ff166104645760405162461bcd60e51b815260040161045b9061212b565b60405180910390fd5b61047c60008051602061232f83398151915233611127565b8061049a575061049a60008051602061230f83398151915233611127565b6104b65760405162461bcd60e51b815260040161045b90612162565b806002836040516104c7919061210f565b908152602001604051809103902060050190816104e4919061220a565b50426002836040516104f6919061210f565b9081526040519081900360200181206008019190915561051790839061210f565b60405180910390207f5c9a0ac1d05e0f152323495479be6bee3b2441e50a1b1a36aaf38bd19d788b6e600284604051610550919061210f565b908152604051908190036020018120600601546105729160ff909116906122ca565b60405180910390a26103d560018055565b61058b611b5e565b60028260405161059b919061210f565b9081526040519081900360200190206009015460ff166105cd5760405162461bcd60e51b815260040161045b9061212b565b6105e560008051602061232f83398151915233611127565b80610603575061060360008051602061230f83398151915233611127565b61061f5760405162461bcd60e51b815260040161045b90612162565b80600283604051610630919061210f565b908152604051908190036020019020600601805460ff1916600183600381111561065c5761065c611ebe565b021790555042600283604051610672919061210f565b9081526040519081900360200181206008019190915561069390839061210f565b60405180910390207f5c9a0ac1d05e0f152323495479be6bee3b2441e50a1b1a36aaf38bd19d788b6e8260405161057291906122ca565b606060006004836040516106de919061210f565b9081526020016040518091039020805480602002602001604051908101604052809291908181526020016000905b828210156107b857838290600052602060002001805461072b90612188565b80601f016020809104026020016040519081016040528092919081815260200182805461075790612188565b80156107a45780601f10610779576101008083540402835291602001916107a4565b820191906000526020600020905b81548152906001019060200180831161078757829003601f168201915b50505050508152602001906001019061070c565b5050505090506000815167ffffffffffffffff8111156107da576107da611c71565b60405190808252806020026020018201604052801561081357816020015b610800611bc1565b8152602001906001900390816107f85790505b50905060005b8251811015610bc6576002838281518110610836576108366122d8565b602002602001015160405161084b919061210f565b90815260200160405180910390206040518061014001604052908160008201805461087590612188565b80601f01602080910402602001604051908101604052809291908181526020018280546108a190612188565b80156108ee5780601f106108c3576101008083540402835291602001916108ee565b820191906000526020600020905b8154815290600101906020018083116108d157829003601f168201915b5050505050815260200160018201805461090790612188565b80601f016020809104026020016040519081016040528092919081815260200182805461093390612188565b80156109805780601f1061095557610100808354040283529160200191610980565b820191906000526020600020905b81548152906001019060200180831161096357829003601f168201915b5050505050815260200160028201805461099990612188565b80601f01602080910402602001604051908101604052809291908181526020018280546109c590612188565b8015610a125780601f106109e757610100808354040283529160200191610a12565b820191906000526020600020905b8154815290600101906020018083116109f557829003601f168201915b5050505050815260200160038201548152602001600482018054610a3590612188565b80601f0160208091040260200160405190810160405280929190818152602001828054610a6190612188565b8015610aae5780601f10610a8357610100808354040283529160200191610aae565b820191906000526020600020905b815481529060010190602001808311610a9157829003601f168201915b50505050508152602001600582018054610ac790612188565b80601f0160208091040260200160405190810160405280929190818152602001828054610af390612188565b8015610b405780601f10610b1557610100808354040283529160200191610b40565b820191906000526020600020905b815481529060010190602001808311610b2357829003601f168201915b5050509183525050600682015460209091019060ff166003811115610b6757610b67611ebe565b6003811115610b7857610b78611ebe565b8152600782015460208201526008820154604082015260099091015460ff1615156060909101528251839083908110610bb357610bb36122d8565b6020908102919091010152600101610819565b509392505050565b610bd6611bc1565b600282604051610be6919061210f565b9081526040519081900360200190206009015460ff16610c185760405162461bcd60e51b815260040161045b9061212b565b600282604051610c28919061210f565b908152602001604051809103902060405180610140016040529081600082018054610c5290612188565b80601f0160208091040260200160405190810160405280929190818152602001828054610c7e90612188565b8015610ccb5780601f10610ca057610100808354040283529160200191610ccb565b820191906000526020600020905b815481529060010190602001808311610cae57829003601f168201915b50505050508152602001600182018054610ce490612188565b80601f0160208091040260200160405190810160405280929190818152602001828054610d1090612188565b8015610d5d5780601f10610d3257610100808354040283529160200191610d5d565b820191906000526020600020905b815481529060010190602001808311610d4057829003601f168201915b50505050508152602001600282018054610d7690612188565b80601f0160208091040260200160405190810160405280929190818152602001828054610da290612188565b8015610def5780601f10610dc457610100808354040283529160200191610def565b820191906000526020600020905b815481529060010190602001808311610dd257829003601f168201915b5050505050815260200160038201548152602001600482018054610e1290612188565b80601f0160208091040260200160405190810160405280929190818152602001828054610e3e90612188565b8015610e8b5780601f10610e6057610100808354040283529160200191610e8b565b820191906000526020600020905b815481529060010190602001808311610e6e57829003601f168201915b50505050508152602001600582018054610ea490612188565b80601f0160208091040260200160405190810160405280929190818152602001828054610ed090612188565b8015610f1d5780601f10610ef257610100808354040283529160200191610f1d565b820191906000526020600020905b815481529060010190602001808311610f0057829003601f168201915b5050509183525050600682015460209091019060ff166003811115610f4457610f44611ebe565b6003811115610f5557610f55611ebe565b8152600782015460208201526008820154604082015260099091015460ff16151560609091015292915050565b60008051602061232f833981519152610f9a81611a57565b6103d56000805160206122ef8339815191528361037a565b610fba611b5e565b600281604051610fca919061210f565b9081526040519081900360200190206009015460ff16610ffc5760405162461bcd60e51b815260040161045b9061212b565b61101460008051602061232f83398151915233611127565b80611032575061103260008051602061230f83398151915233611127565b8061105057506110506000805160206122ef83398151915233611127565b61106c5760405162461bcd60e51b815260040161045b90612162565b600360028260405161107e919061210f565b908152604051908190036020019020600601805460ff191660018360038111156110aa576110aa611ebe565b0217905550426002826040516110c0919061210f565b908152604051908190036020018120600801919091556110e190829061210f565b604051908190038120428252907f7994dfaf2a1c210334e2f03799cd10121b5cccca4faf2ff4c5a3887b9c47beab9060200160405180910390a261112460018055565b50565b6000918252602082815260408084206001600160a01b0393909316845291905290205460ff1690565b60606000600383604051611164919061210f565b9081526020016040518091039020805480602002602001604051908101604052809291908181526020016000905b8282101561123e5783829060005260206000200180546111b190612188565b80601f01602080910402602001604051908101604052809291908181526020018280546111dd90612188565b801561122a5780601f106111ff5761010080835404028352916020019161122a565b820191906000526020600020905b81548152906001019060200180831161120d57829003601f168201915b505050505081526020019060010190611192565b5050505090506000815167ffffffffffffffff81111561126057611260611c71565b60405190808252806020026020018201604052801561129957816020015b611286611bc1565b81526020019060019003908161127e5790505b50905060005b8251811015610bc65760028382815181106112bc576112bc6122d8565b60200260200101516040516112d1919061210f565b9081526020016040518091039020604051806101400160405290816000820180546112fb90612188565b80601f016020809104026020016040519081016040528092919081815260200182805461132790612188565b80156113745780601f1061134957610100808354040283529160200191611374565b820191906000526020600020905b81548152906001019060200180831161135757829003601f168201915b5050505050815260200160018201805461138d90612188565b80601f01602080910402602001604051908101604052809291908181526020018280546113b990612188565b80156114065780601f106113db57610100808354040283529160200191611406565b820191906000526020600020905b8154815290600101906020018083116113e957829003601f168201915b5050505050815260200160028201805461141f90612188565b80601f016020809104026020016040519081016040528092919081815260200182805461144b90612188565b80156114985780601f1061146d57610100808354040283529160200191611498565b820191906000526020600020905b81548152906001019060200180831161147b57829003601f168201915b50505050508152602001600382015481526020016004820180546114bb90612188565b80601f01602080910402602001604051908101604052809291908181526020018280546114e790612188565b80156115345780601f1061150957610100808354040283529160200191611534565b820191906000526020600020905b81548152906001019060200180831161151757829003601f168201915b5050505050815260200160058201805461154d90612188565b80601f016020809104026020016040519081016040528092919081815260200182805461157990612188565b80156115c65780601f1061159b576101008083540402835291602001916115c6565b820191906000526020600020905b8154815290600101906020018083116115a957829003601f168201915b5050509183525050600682015460209091019060ff1660038111156115ed576115ed611ebe565b60038111156115fe576115fe611ebe565b8152600782015460208201526008820154604082015260099091015460ff1615156060909101528251839083908110611639576116396122d8565b602090810291909101015260010161129f565b600061165781611a57565b6103d560008051602061232f8339815191528361037a565b60008281526020819052604090206001015461168a81611a57565b61039f8383611af3565b61169c611b5e565b6116b460008051602061232f83398151915233611127565b806116d257506116d260008051602061230f83398151915233611127565b806116f057506116f06000805160206122ef83398151915233611127565b61170c5760405162461bcd60e51b815260040161045b90612162565b60028660405161171c919061210f565b9081526040519081900360200190206009015460ff161561177f5760405162461bcd60e51b815260206004820152601a60248201527f4170706f696e746d656e7420616c726561647920657869737473000000000000604482015260640161045b565b4283116117dd5760405162461bcd60e51b815260206004820152602660248201527f4170706f696e746d656e742064617465206d75737420626520696e207468652060448201526566757475726560d01b606482015260840161045b565b6040518061014001604052808781526020018681526020018581526020018481526020018381526020018281526020016000600381111561182057611820611ebe565b815260200142815260200142815260200160011515815250600287604051611848919061210f565b90815260405190819003602001902081518190611865908261220a565b506020820151600182019061187a908261220a565b506040820151600282019061188f908261220a565b5060608201516003820155608082015160048201906118ae908261220a565b5060a082015160058201906118c3908261220a565b5060c082015160068201805460ff191660018360038111156118e7576118e7611ebe565b021790555060e082015160078201556101008201516008820155610120909101516009909101805460ff191691151591909117905560405160039061192d90879061210f565b908152604051602091819003820190208054600181018255600091825291902001611958878261220a565b50600484604051611969919061210f565b908152604051602091819003820190208054600181018255600091825291902001611994878261220a565b50600580546001810182556000919091527f036b6384b5eca791c62761152d0c79bb0604c104a5fb6f4eb0703f3154bb3db0016119d1878261220a565b50836040516119e0919061210f565b6040518091039020856040516119f6919061210f565b604051809103902087604051611a0c919061210f565b604051908190038120868252907f69ee81ee21b900193ecb30d96310fb300d5fd2a2857b9ec0f4b27ccad05aaab79060200160405180910390a4611a4f60018055565b505050505050565b6111248133611b88565b6000611a6d8383611127565b611aeb576000838152602081815260408083206001600160a01b03861684529091529020805460ff19166001179055611aa33390565b6001600160a01b0316826001600160a01b0316847f2f8788117e7eff1d82e926ec794901d17c78024a50270940304540a733656f0d60405160405180910390a4506001610346565b506000610346565b6000611aff8383611127565b15611aeb576000838152602081815260408083206001600160a01b0386168085529252808320805460ff1916905551339286917ff6391f5c32d9c69d2a47ea670b442974b53935d1edc7fd64eb21e047a839171b9190a4506001610346565b600260015403611b8157604051633ee5aeb560e01b815260040160405180910390fd5b6002600155565b611b928282611127565b6103d55760405163e2517d3f60e01b81526001600160a01b03821660048201526024810183905260440161045b565b60405180610140016040528060608152602001606081526020016060815260200160008152602001606081526020016060815260200160006003811115611c0a57611c0a611ebe565b815260200160008152602001600081526020016000151581525090565b600060208284031215611c3957600080fd5b81356001600160e01b031981168114611c5157600080fd5b9392505050565b600060208284031215611c6a57600080fd5b5035919050565b634e487b7160e01b600052604160045260246000fd5b600082601f830112611c9857600080fd5b813567ffffffffffffffff80821115611cb357611cb3611c71565b604051601f8301601f19908116603f01168101908282118183101715611cdb57611cdb611c71565b81604052838152866020858801011115611cf457600080fd5b836020870160208301376000602085830101528094505050505092915050565b600060208284031215611d2657600080fd5b813567ffffffffffffffff811115611d3d57600080fd5b611d4984828501611c87565b949350505050565b80356001600160a01b0381168114611d6857600080fd5b919050565b60008060408385031215611d8057600080fd5b82359150611d9060208401611d51565b90509250929050565b600060208284031215611dab57600080fd5b611c5182611d51565b60008060408385031215611dc757600080fd5b823567ffffffffffffffff80821115611ddf57600080fd5b611deb86838701611c87565b93506020850135915080821115611e0157600080fd5b50611e0e85828601611c87565b9150509250929050565b60008060408385031215611e2b57600080fd5b823567ffffffffffffffff811115611e4257600080fd5b611e4e85828601611c87565b925050602083013560048110611e6357600080fd5b809150509250929050565b60005b83811015611e89578181015183820152602001611e71565b50506000910152565b60008151808452611eaa816020860160208601611e6e565b601f01601f19169290920160200192915050565b634e487b7160e01b600052602160045260246000fd5b60048110611ef257634e487b7160e01b600052602160045260246000fd5b9052565b60006101408251818552611f0c82860182611e92565b91505060208301518482036020860152611f268282611e92565b91505060408301518482036040860152611f408282611e92565b9150506060830151606085015260808301518482036080860152611f648282611e92565b91505060a083015184820360a0860152611f7e8282611e92565b91505060c0830151611f9360c0860182611ed4565b5060e08381015190850152610100808401519085015261012092830151151592909301919091525090565b600060208083016020845280855180835260408601915060408160051b87010192506020870160005b8281101561201557603f19888603018452612003858351611ef6565b94509285019290850190600101611fe7565b5092979650505050505050565b602081526000611c516020830184611ef6565b60008060008060008060c0878903121561204e57600080fd5b863567ffffffffffffffff8082111561206657600080fd5b6120728a838b01611c87565b9750602089013591508082111561208857600080fd5b6120948a838b01611c87565b965060408901359150808211156120aa57600080fd5b6120b68a838b01611c87565b95506060890135945060808901359150808211156120d357600080fd5b6120df8a838b01611c87565b935060a08901359150808211156120f557600080fd5b5061210289828a01611c87565b9150509295509295509295565b60008251612121818460208701611e6e565b9190910192915050565b6020808252601a908201527f4170706f696e746d656e7420646f6573206e6f74206578697374000000000000604082015260600190565b6020808252600c908201526b155b985d5d1a1bdc9a5e995960a21b604082015260600190565b600181811c9082168061219c57607f821691505b6020821081036121bc57634e487b7160e01b600052602260045260246000fd5b50919050565b601f82111561040c576000816000526020600020601f850160051c810160208610156121eb5750805b601f850160051c820191505b81811015611a4f578281556001016121f7565b815167ffffffffffffffff81111561222457612224611c71565b612238816122328454612188565b846121c2565b602080601f83116001811461226d57600084156122555750858301515b600019600386901b1c1916600185901b178555611a4f565b600085815260208120601f198616915b8281101561229c5788860151825594840194600190910190840161227d565b50858210156122ba5787850151600019600388901b60f8161c191681555b5050505050600190811b01905550565b602081016103468284611ed4565b634e487b7160e01b600052603260045260246000fdfe72606200fac42b7dc86b75901d61ecfab2a4a1a6eded478b97a428094891abed0af1dac7dea2fd7f7738119cec7df099dfad49aa9d2e7d17ba6b60f63ae7411fa49807205ce4d355092ef5a8a18f56e8913cf4a201fbe287825b095693c21775a2646970667358221220b88f022dbec2bd0dab4ff7ffde87026d9e4ff38b626f553d4cbe2d2919f61adc64736f6c63430008180033",
  "linkReferences": {},
  "deployedLinkReferences": {},
  "address": "0x1A3F11F1735bB703587274478EEc323dC180304a"
}