{
  "_format": "hh-sol-artifact-1",
  "contractName": "DoctorCredentials",
  "sourceName": "contracts/DoctorCredentials.sol",
  "abi": [
    {
      "inputs": [],
      "stateMutability": "nonpayable",
      "type": "constructor"
    },
    {
      "inputs": [],
      "name": "AccessControlBadConfirmation",
      "type": "error"
    },
    {
      "inputs": [
        {
          "internalType": "address",
          "name": "account",
          "type": "address"
        },
        {
          "internalType": "bytes32",
          "name": "neededRole",
          "type": "bytes32"
        }
      ],
      "name": "AccessControlUnauthorizedAccount",
      "type": "error"
    },
    {
      "inputs": [],
      "name": "ReentrancyGuardReentrantCall",
      "type": "error"
    },
    {
      "anonymous": false,
      "inputs": [
        {
          "indexed": true,
          "internalType": "string",
          "name": "doctorId",
          "type": "string"
        },
        {
          "indexed": true,
          "internalType": "address",
          "name": "walletAddress",
          "type": "address"
        },
        {
          "indexed": false,
          "internalType": "uint256",
          "name": "timestamp",
          "type": "uint256"
        }
      ],
      "name": "DoctorRegistered",
      "type": "event"
    },
    {
      "anonymous": false,
      "inputs": [
        {
          "indexed": true,
          "internalType": "string",
          "name": "doctorId",
          "type": "string"
        },
        {
          "indexed": false,
          "internalType": "uint256",
          "name": "timestamp",
          "type": "uint256"
        }
      ],
      "name": "DoctorRejected",
      "type": "event"
    },
    {
      "anonymous": false,
      "inputs": [
        {
          "indexed": true,
          "internalType": "string",
          "name": "doctorId",
          "type": "string"
        },
        {
          "indexed": false,
          "internalType": "uint256",
          "name": "timestamp",
          "type": "uint256"
        }
      ],
      "name": "DoctorRevoked",
      "type": "event"
    },
    {
      "anonymous": false,
      "inputs": [
        {
          "indexed": true,
          "internalType": "string",
          "name": "doctorId",
          "type": "string"
        },
        {
          "indexed": false,
          "internalType": "uint256",
          "name": "timestamp",
          "type": "uint256"
        }
      ],
      "name": "DoctorVerified",
      "type": "event"
    },
    {
      "anonymous": false,
      "inputs": [
        {
          "indexed": true,
          "internalType": "string",
          "name": "doctorId",
          "type": "string"
        },
        {
          "indexed": false,
          "internalType": "string",
          "name": "reviewId",
          "type": "string"
        },
        {
          "indexed": false,
          "internalType": "uint8",
          "name": "rating",
          "type": "uint8"
        },
        {
          "indexed": false,
          "internalType": "uint256",
          "name": "timestamp",
          "type": "uint256"
        }
      ],
      "name": "ReviewAdded",
      "type": "event"
    },
    {
      "anonymous": false,
      "inputs": [
        {
          "indexed": true,
          "internalType": "bytes32",
          "name": "role",
          "type": "bytes32"
        },
        {
          "indexed": true,
          "internalType": "bytes32",
          "name": "previousAdminRole",
          "type": "bytes32"
        },
        {
          "indexed": true,
          "internalType": "bytes32",
          "name": "newAdminRole",
          "type": "bytes32"
        }
      ],
      "name": "RoleAdminChanged",
      "type": "event"
    },
    {
      "anonymous": false,
      "inputs": [
        {
          "indexed": true,
          "internalType": "bytes32",
          "name": "role",
          "type": "bytes32"
        },
        {
          "indexed": true,
          "internalType": "address",
          "name": "account",
          "type": "address"
        },
        {
          "indexed": true,
          "internalType": "address",
          "name": "sender",
          "type": "address"
        }
      ],
      "name": "RoleGranted",
      "type": "event"
    },
    {
      "anonymous": false,
      "inputs": [
        {
          "indexed": true,
          "internalType": "bytes32",
          "name": "role",
          "type": "bytes32"
        },
        {
          "indexed": true,
          "internalType": "address",
          "name": "account",
          "type": "address"
        },
        {
          "indexed": true,
          "internalType": "address",
          "name": "sender",
          "type": "address"
        }
      ],
      "name": "RoleRevoked",
      "type": "event"
    },
    {
      "inputs": [],
      "name": "ADMIN_ROLE",
      "outputs": [
        {
          "internalType": "bytes32",
          "name": "",
          "type": "bytes32"
        }
      ],
      "stateMutability": "view",
      "type": "function"
    },
    {
      "inputs": [],
      "name": "DEFAULT_ADMIN_ROLE",
      "outputs": [
        {
          "internalType": "bytes32",
          "name": "",
          "type": "bytes32"
        }
      ],
      "stateMutability": "view",
      "type": "function"
    },
    {
      "inputs": [],
      "name": "VERIFIER_ROLE",
      "outputs": [
        {
          "internalType": "bytes32",
          "name": "",
          "type": "bytes32"
        }
      ],
      "stateMutability": "view",
      "type": "function"
    },
    {
      "inputs": [
        {
          "internalType": "string",
          "name": "_reviewId",
          "type": "string"
        },
        {
          "internalType": "string",
          "name": "_doctorId",
          "type": "string"
        },
        {
          "internalType": "string",
          "name": "_patientId",
          "type": "string"
        },
        {
          "internalType": "uint8",
          "name": "_rating",
          "type": "uint8"
        },
        {
          "internalType": "string",
          "name": "_comment",
          "type": "string"
        }
      ],
      "name": "addReview",
      "outputs": [],
      "stateMutability": "nonpayable",
      "type": "function"
    },
    {
      "inputs": [
        {
          "internalType": "string",
          "name": "_doctorId",
          "type": "string"
        }
      ],
      "name": "doctorExists",
      "outputs": [
        {
          "internalType": "bool",
          "name": "",
          "type": "bool"
        }
      ],
      "stateMutability": "view",
      "type": "function"
    },
    {
      "inputs": [
        {
          "internalType": "string",
          "name": "_doctorId",
          "type": "string"
        }
      ],
      "name": "getAverageRating",
      "outputs": [
        {
          "internalType": "uint256",
          "name": "",
          "type": "uint256"
        }
      ],
      "stateMutability": "view",
      "type": "function"
    },
    {
      "inputs": [
        {
          "internalType": "string",
          "name": "_doctorId",
          "type": "string"
        }
      ],
      "name": "getDoctor",
      "outputs": [
        {
          "components": [
            {
              "internalType": "string",
              "name": "doctorId",
              "type": "string"
            },
            {
              "internalType": "string",
              "name": "name",
              "type": "string"
            },
            {
              "internalType": "string",
              "name": "specialty",
              "type": "string"
            },
            {
              "internalType": "string",
              "name": "licenseNumber",
              "type": "string"
            },
            {
              "internalType": "string",
              "name": "qualifications",
              "type": "string"
            },
            {
              "internalType": "string",
              "name": "hospital",
              "type": "string"
            },
            {
              "internalType": "enum DoctorCredentials.VerificationStatus",
              "name": "status",
              "type": "uint8"
            },
            {
              "internalType": "address",
              "name": "walletAddress",
              "type": "address"
            },
            {
              "internalType": "uint256",
              "name": "createdAt",
              "type": "uint256"
            },
            {
              "internalType": "uint256",
              "name": "verifiedAt",
              "type": "uint256"
            },
            {
              "internalType": "bool",
              "name": "exists",
              "type": "bool"
            }
          ],
          "internalType": "struct DoctorCredentials.Doctor",
          "name": "",
          "type": "tuple"
        }
      ],
      "stateMutability": "view",
      "type": "function"
    },
    {
      "inputs": [
        {
          "internalType": "address",
          "name": "_address",
          "type": "address"
        }
      ],
      "name": "getDoctorByAddress",
      "outputs": [
        {
          "components": [
            {
              "internalType": "string",
              "name": "doctorId",
              "type": "string"
            },
            {
              "internalType": "string",
              "name": "name",
              "type": "string"
            },
            {
              "internalType": "string",
              "name": "specialty",
              "type": "string"
            },
            {
              "internalType": "string",
              "name": "licenseNumber",
              "type": "string"
            },
            {
              "internalType": "string",
              "name": "qualifications",
              "type": "string"
            },
            {
              "internalType": "string",
              "name": "hospital",
              "type": "string"
            },
            {
              "internalType": "enum DoctorCredentials.VerificationStatus",
              "name": "status",
              "type": "uint8"
            },
            {
              "internalType": "address",
              "name": "walletAddress",
              "type": "address"
            },
            {
              "internalType": "uint256",
              "name": "createdAt",
              "type": "uint256"
            },
            {
              "internalType": "uint256",
              "name": "verifiedAt",
              "type": "uint256"
            },
            {
              "internalType": "bool",
              "name": "exists",
              "type": "bool"
            }
          ],
          "internalType": "struct DoctorCredentials.Doctor",
          "name": "",
          "type": "tuple"
        }
      ],
      "stateMutability": "view",
      "type": "function"
    },
    {
      "inputs": [
        {
          "internalType": "string",
          "name": "_doctorId",
          "type": "string"
        }
      ],
      "name": "getReviews",
      "outputs": [
        {
          "components": [
            {
              "internalType": "string",
              "name": "reviewId",
              "type": "string"
            },
            {
              "internalType": "string",
              "name": "doctorId",
              "type": "string"
            },
            {
              "internalType": "string",
              "name": "patientId",
              "type": "string"
            },
            {
              "internalType": "uint8",
              "name": "rating",
              "type": "uint8"
            },
            {
              "internalType": "string",
              "name": "comment",
              "type": "string"
            },
            {
              "internalType": "uint256",
              "name": "createdAt",
              "type": "uint256"
            },
            {
              "internalType": "bool",
              "name": "exists",
              "type": "bool"
            }
          ],
          "internalType": "struct DoctorCredentials.Review[]",
          "name": "",
          "type": "tuple[]"
        }
      ],
      "stateMutability": "view",
      "type": "function"
    },
    {
      "inputs": [
        {
          "internalType": "bytes32",
          "name": "role",
          "type": "bytes32"
        }
      ],
      "name": "getRoleAdmin",
      "outputs": [
        {
          "internalType": "bytes32",
          "name": "",
          "type": "bytes32"
        }
      ],
      "stateMutability": "view",
      "type": "function"
    },
    {
      "inputs": [],
      "name": "getTotalDoctors",
      "outputs": [
        {
          "internalType": "uint256",
          "name": "",
          "type": "uint256"
        }
      ],
      "stateMutability": "view",
      "type": "function"
    },
    {
      "inputs": [],
      "name": "getVerifiedDoctors",
      "outputs": [
        {
          "components": [
            {
              "internalType": "string",
              "name": "doctorId",
              "type": "string"
            },
            {
              "internalType": "string",
              "name": "name",
              "type": "string"
            },
            {
              "internalType": "string",
              "name": "specialty",
              "type": "string"
            },
            {
              "internalType": "string",
              "name": "licenseNumber",
              "type": "string"
            },
            {
              "internalType": "string",
              "name": "qualifications",
              "type": "string"
            },
            {
              "internalType": "string",
              "name": "hospital",
              "type": "string"
            },
            {
              "internalType": "enum DoctorCredentials.VerificationStatus",
              "name": "status",
              "type": "uint8"
            },
            {
              "internalType": "address",
              "name": "walletAddress",
              "type": "address"
            },
            {
              "internalType": "uint256",
              "name": "createdAt",
              "type": "uint256"
            },
            {
              "internalType": "uint256",
              "name": "verifiedAt",
              "type": "uint256"
            },
            {
              "internalType": "bool",
              "name": "exists",
              "type": "bool"
            }
          ],
          "internalType": "struct DoctorCredentials.Doctor[]",
          "name": "",
          "type": "tuple[]"
        }
      ],
      "stateMutability": "view",
      "type": "function"
    },
    {
      "inputs": [
        {
          "internalType": "address",
          "name": "_admin",
          "type": "address"
        }
      ],
      "name": "grantAdminRole",
      "outputs": [],
      "stateMutability": "nonpayable",
      "type": "function"
    },
    {
      "inputs": [
        {
          "internalType": "bytes32",
          "name": "role",
          "type": "bytes32"
        },
        {
          "internalType": "address",
          "name": "account",
          "type": "address"
        }
      ],
      "name": "grantRole",
      "outputs": [],
      "stateMutability": "nonpayable",
      "type": "function"
    },
    {
      "inputs": [
        {
          "internalType": "address",
          "name": "_verifier",
          "type": "address"
        }
      ],
      "name": "grantVerifierRole",
      "outputs": [],
      "stateMutability": "nonpayable",
      "type": "function"
    },
    {
      "inputs": [
        {
          "internalType": "bytes32",
          "name": "role",
          "type": "bytes32"
        },
        {
          "internalType": "address",
          "name": "account",
          "type": "address"
        }
      ],
      "name": "hasRole",
      "outputs": [
        {
          "internalType": "bool",
          "name": "",
          "type": "bool"
        }
      ],
      "stateMutability": "view",
      "type": "function"
    },
    {
      "inputs": [
        {
          "internalType": "string",
          "name": "_doctorId",
          "type": "string"
        },
        {
          "internalType": "string",
          "name": "_name",
          "type": "string"
        },
        {
          "internalType": "string",
          "name": "_specialty",
          "type": "string"
        },
        {
          "internalType": "string",
          "name": "_licenseNumber",
          "type": "string"
        },
        {
          "internalType": "string",
          "name": "_qualifications",
          "type": "string"
        },
        {
          "internalType": "string",
          "name": "_hospital",
          "type": "string"
        },
        {
          "internalType": "address",
          "name": "_walletAddress",
          "type": "address"
        }
      ],
      "name": "registerDoctor",
      "outputs": [],
      "stateMutability": "nonpayable",
      "type": "function"
    },
    {
      "inputs": [
        {
          "internalType": "string",
          "name": "_doctorId",
          "type": "string"
        }
      ],
      "name": "rejectDoctor",
      "outputs": [],
      "stateMutability": "nonpayable",
      "type": "function"
    },
    {
      "inputs": [
        {
          "internalType": "bytes32",
          "name": "role",
          "type": "bytes32"
        },
        {
          "internalType": "address",
          "name": "callerConfirmation",
          "type": "address"
        }
      ],
      "name": "renounceRole",
      "outputs": [],
      "stateMutability": "nonpayable",
      "type": "function"
    },
    {
      "inputs": [
        {
          "internalType": "string",
          "name": "_doctorId",
          "type": "string"
        }
      ],
      "name": "revokeDoctor",
      "outputs": [],
      "stateMutability": "nonpayable",
      "type": "function"
    },
    {
      "inputs": [
        {
          "internalType": "bytes32",
          "name": "role",
          "type": "bytes32"
        },
        {
          "internalType": "address",
          "name": "account",
          "type": "address"
        }
      ],
      "name": "revokeRole",
      "outputs": [],
      "stateMutability": "nonpayable",
      "type": "function"
    },
    {
      "inputs": [
        {
          "internalType": "bytes4",
          "name": "interfaceId",
          "type": "bytes4"
        }
      ],
      "name": "supportsInterface",
      "outputs": [
        {
          "internalType": "bool",
          "name": "",
          "type": "bool"
        }
      ],
      "stateMutability": "view",
      "type": "function"
    },
    {
      "inputs": [
        {
          "internalType": "string",
          "name": "_doctorId",
          "type": "string"
        }
      ],
      "name": "verifyDoctor",
      "outputs": [],
      "stateMutability": "nonpayable",
      "type": "function"
    }
  ],
  "bytecode": "0x60806040523480156200001157600080fd5b50600180556200002360003362000084565b50620000507fa49807205ce4d355092ef5a8a18f56e8913cf4a201fbe287825b095693c217753362000084565b506200007d7f0ce23c3e399818cfee81a7ab0880f714e53d7672b08df0fa62f2843416e1ea093362000084565b5062000133565b6000828152602081815260408083206001600160a01b038516845290915281205460ff1662000129576000838152602081815260408083206001600160a01b03861684529091529020805460ff19166001179055620000e03390565b6001600160a01b0316826001600160a01b0316847f2f8788117e7eff1d82e926ec794901d17c78024a50270940304540a733656f0d60405160405180910390a45060016200012d565b5060005b92915050565b612fd180620001436000396000f3fe608060405234801561001057600080fd5b506004361061014d5760003560e01c806360499092116100c357806391d148541161007c57806391d14854146102dd578063998863fd146102f0578063a217fddf14610303578063c634b78e1461030b578063d547741f1461031e578063e7705db61461033157600080fd5b80636049909214610274578063630bc6f3146102875780636bfae1e51461029a57806375b238fc146102a25780637e372956146102b75780637fc3873a146102ca57600080fd5b80632978465d116101155780632978465d146101e85780632f2ff15d1461020857806336568abe1461021b578063453c693a1461022e57806358c5d4bf146102415780635add6afc1461026157600080fd5b806301ffc9a7146101525780630337c0611461017a57806308d7c4c81461018f578063114bbfc3146101a4578063248a9ca3146101b7575b600080fd5b61016561016036600461263d565b610346565b60405190151581526020015b60405180910390f35b61018d61018836600461268a565b61037d565b005b6101976103b1565b6040516101719190612821565b61018d6101b2366004612928565b610950565b6101da6101c53660046129f0565b60009081526020819052604090206001015490565b604051908152602001610171565b6101fb6101f6366004612a09565b610b65565b6040516101719190612a3e565b61018d610216366004612b2b565b610e9c565b61018d610229366004612b2b565b610ec7565b61018d61023c366004612a09565b610eff565b61025461024f36600461268a565b610ff5565b6040516101719190612b57565b61018d61026f366004612a09565b6114fc565b610254610282366004612a09565b6116da565b61018d610295366004612b6a565b611b2e565b6005546101da565b6101da600080516020612f5c83398151915281565b61018d6102c5366004612a09565b611efd565b6101656102d8366004612a09565b612020565b6101656102eb366004612b2b565b61204e565b6101da6102fe366004612a09565b612077565b6101da600081565b61018d61031936600461268a565b612420565b61018d61032c366004612b2b565b612443565b6101da600080516020612f7c83398151915281565b60006001600160e01b03198216637965db0b60e01b148061037757506301ffc9a760e01b6001600160e01b03198316145b92915050565b600080516020612f5c83398151915261039581612468565b6103ad600080516020612f7c83398151915283610e9c565b5050565b60606000805b6005548110156104315760016002600583815481106103d8576103d8612c71565b906000526020600020016040516103ef9190612cc1565b9081526040519081900360200190206006015460ff166003811115610416576104166126f5565b03610429578161042581612d4d565b9250505b6001016103b7565b5060008167ffffffffffffffff81111561044d5761044d612885565b60405190808252806020026020018201604052801561048657816020015b6104736125d2565b81526020019060019003908161046b5790505b5090506000805b6005548110156109475760016002600583815481106104ae576104ae612c71565b906000526020600020016040516104c59190612cc1565b9081526040519081900360200190206006015460ff1660038111156104ec576104ec6126f5565b0361093f5760026005828154811061050657610506612c71565b9060005260206000200160405161051d9190612cc1565b90815260200160405180910390206040518061016001604052908160008201805461054790612c87565b80601f016020809104026020016040519081016040528092919081815260200182805461057390612c87565b80156105c05780601f10610595576101008083540402835291602001916105c0565b820191906000526020600020905b8154815290600101906020018083116105a357829003601f168201915b505050505081526020016001820180546105d990612c87565b80601f016020809104026020016040519081016040528092919081815260200182805461060590612c87565b80156106525780601f1061062757610100808354040283529160200191610652565b820191906000526020600020905b81548152906001019060200180831161063557829003601f168201915b5050505050815260200160028201805461066b90612c87565b80601f016020809104026020016040519081016040528092919081815260200182805461069790612c87565b80156106e45780601f106106b9576101008083540402835291602001916106e4565b820191906000526020600020905b8154815290600101906020018083116106c757829003601f168201915b505050505081526020016003820180546106fd90612c87565b80601f016020809104026020016040519081016040528092919081815260200182805461072990612c87565b80156107765780601f1061074b57610100808354040283529160200191610776565b820191906000526020600020905b81548152906001019060200180831161075957829003601f168201915b5050505050815260200160048201805461078f90612c87565b80601f01602080910402602001604051908101604052809291908181526020018280546107bb90612c87565b80156108085780601f106107dd57610100808354040283529160200191610808565b820191906000526020600020905b8154815290600101906020018083116107eb57829003601f168201915b5050505050815260200160058201805461082190612c87565b80601f016020809104026020016040519081016040528092919081815260200182805461084d90612c87565b801561089a5780601f1061086f5761010080835404028352916020019161089a565b820191906000526020600020905b81548152906001019060200180831161087d57829003601f168201915b5050509183525050600682015460209091019060ff1660038111156108c1576108c16126f5565b60038111156108d2576108d26126f5565b8152600682015461010090046001600160a01b03166020820152600782015460408201526008820154606082015260099091015460ff161515608090910152835184908490811061092557610925612c71565b6020026020010181905250818061093b90612d4d565b9250505b60010161048d565b50909392505050565b610958612472565b6002846040516109689190612d66565b9081526040519081900360200190206009015460ff166109a35760405162461bcd60e51b815260040161099a90612d82565b60405180910390fd5b60018260ff16101580156109bb575060058260ff1611155b610a075760405162461bcd60e51b815260206004820152601e60248201527f526174696e67206d757374206265206265747765656e203120616e6420350000604482015260640161099a565b6040805160e0810182528681526020810186905280820185905260ff84166060820152608081018390524260a0820152600160c08201529051600490610a4e908790612d66565b908152604051602091819003820190208054600181018255600091825291902082518392600702909101908190610a859082612e01565b5060208201516001820190610a9a9082612e01565b5060408201516002820190610aaf9082612e01565b50606082015160038201805460ff191660ff90921691909117905560808201516004820190610ade9082612e01565b5060a0820151600582015560c0909101516006909101805460ff1916911515919091179055604051610b11908690612d66565b60405180910390207f03c49ff121d537320cce5d1714adc648f87d593731e1f20f64327ce21cb2b6fd878542604051610b4c93929190612ec1565b60405180910390a250610b5e60018055565b5050505050565b6060600282604051610b779190612d66565b9081526040519081900360200190206009015460ff16610ba95760405162461bcd60e51b815260040161099a90612d82565b600482604051610bb99190612d66565b9081526020016040518091039020805480602002602001604051908101604052809291908181526020016000905b82821015610e9157838290600052602060002090600702016040518060e0016040529081600082018054610c1a90612c87565b80601f0160208091040260200160405190810160405280929190818152602001828054610c4690612c87565b8015610c935780601f10610c6857610100808354040283529160200191610c93565b820191906000526020600020905b815481529060010190602001808311610c7657829003601f168201915b50505050508152602001600182018054610cac90612c87565b80601f0160208091040260200160405190810160405280929190818152602001828054610cd890612c87565b8015610d255780601f10610cfa57610100808354040283529160200191610d25565b820191906000526020600020905b815481529060010190602001808311610d0857829003601f168201915b50505050508152602001600282018054610d3e90612c87565b80601f0160208091040260200160405190810160405280929190818152602001828054610d6a90612c87565b8015610db75780601f10610d8c57610100808354040283529160200191610db7565b820191906000526020600020905b815481529060010190602001808311610d9a57829003601f168201915b5050509183525050600382015460ff166020820152600482018054604090920191610de190612c87565b80601f0160208091040260200160405190810160405280929190818152602001828054610e0d90612c87565b8015610e5a5780601f10610e2f57610100808354040283529160200191610e5a565b820191906000526020600020905b815481529060010190602001808311610e3d57829003601f168201915b5050509183525050600582015460208083019190915260069092015460ff1615156040909101529082526001929092019101610be7565b505050509050919050565b600082815260208190526040902060010154610eb781612468565b610ec1838361249c565b50505050565b6001600160a01b0381163314610ef05760405163334bd91960e11b815260040160405180910390fd5b610efa828261252e565b505050565b600080516020612f5c833981519152610f1781612468565b610f1f612472565b600282604051610f2f9190612d66565b9081526040519081900360200190206009015460ff16610f615760405162461bcd60e51b815260040161099a90612d82565b6003600283604051610f739190612d66565b908152604051908190036020019020600601805460ff19166001836003811115610f9f57610f9f6126f5565b021790555081604051610fb29190612d66565b604051908190038120428252907f56b62ed60907ad64b0bcf13fefb34f2ffc0f612e6481c026adfe51263fdba8f09060200160405180910390a26103ad60018055565b610ffd6125d2565b6001600160a01b0382166000908152600360205260408120805461102090612c87565b80601f016020809104026020016040519081016040528092919081815260200182805461104c90612c87565b80156110995780601f1061106e57610100808354040283529160200191611099565b820191906000526020600020905b81548152906001019060200180831161107c57829003601f168201915b5050505050905060008151116110f15760405162461bcd60e51b815260206004820181905260248201527f4e6f20646f63746f7220666f756e6420666f7220746869732061646472657373604482015260640161099a565b6002816040516111019190612d66565b90815260200160405180910390206040518061016001604052908160008201805461112b90612c87565b80601f016020809104026020016040519081016040528092919081815260200182805461115790612c87565b80156111a45780601f10611179576101008083540402835291602001916111a4565b820191906000526020600020905b81548152906001019060200180831161118757829003601f168201915b505050505081526020016001820180546111bd90612c87565b80601f01602080910402602001604051908101604052809291908181526020018280546111e990612c87565b80156112365780601f1061120b57610100808354040283529160200191611236565b820191906000526020600020905b81548152906001019060200180831161121957829003601f168201915b5050505050815260200160028201805461124f90612c87565b80601f016020809104026020016040519081016040528092919081815260200182805461127b90612c87565b80156112c85780601f1061129d576101008083540402835291602001916112c8565b820191906000526020600020905b8154815290600101906020018083116112ab57829003601f168201915b505050505081526020016003820180546112e190612c87565b80601f016020809104026020016040519081016040528092919081815260200182805461130d90612c87565b801561135a5780601f1061132f5761010080835404028352916020019161135a565b820191906000526020600020905b81548152906001019060200180831161133d57829003601f168201915b5050505050815260200160048201805461137390612c87565b80601f016020809104026020016040519081016040528092919081815260200182805461139f90612c87565b80156113ec5780601f106113c1576101008083540402835291602001916113ec565b820191906000526020600020905b8154815290600101906020018083116113cf57829003601f168201915b5050505050815260200160058201805461140590612c87565b80601f016020809104026020016040519081016040528092919081815260200182805461143190612c87565b801561147e5780601f106114535761010080835404028352916020019161147e565b820191906000526020600020905b81548152906001019060200180831161146157829003601f168201915b5050509183525050600682015460209091019060ff1660038111156114a5576114a56126f5565b60038111156114b6576114b66126f5565b8152600682015461010090046001600160a01b03166020820152600782015460408201526008820154606082015260099091015460ff1615156080909101529392505050565b611504612472565b61151c600080516020612f5c8339815191523361204e565b8061153a575061153a600080516020612f7c8339815191523361204e565b6115565760405162461bcd60e51b815260040161099a90612ee9565b6002816040516115669190612d66565b9081526040519081900360200190206009015460ff166115985760405162461bcd60e51b815260040161099a90612d82565b60006002826040516115aa9190612d66565b9081526040519081900360200190206006015460ff1660038111156115d1576115d16126f5565b1461161e5760405162461bcd60e51b815260206004820152601f60248201527f446f63746f72206973206e6f7420696e2070656e64696e672073746174757300604482015260640161099a565b60016002826040516116309190612d66565b908152604051908190036020019020600601805460ff1916600183600381111561165c5761165c6126f5565b0217905550426002826040516116729190612d66565b90815260405190819003602001812060080191909155611693908290612d66565b604051908190038120428252907ff114d33935983577220079b34aa86f67e816335818ab71ad70b2e28c215736ea906020015b60405180910390a26116d760018055565b50565b6116e26125d2565b6002826040516116f29190612d66565b9081526040519081900360200190206009015460ff166117245760405162461bcd60e51b815260040161099a90612d82565b6002826040516117349190612d66565b90815260200160405180910390206040518061016001604052908160008201805461175e90612c87565b80601f016020809104026020016040519081016040528092919081815260200182805461178a90612c87565b80156117d75780601f106117ac576101008083540402835291602001916117d7565b820191906000526020600020905b8154815290600101906020018083116117ba57829003601f168201915b505050505081526020016001820180546117f090612c87565b80601f016020809104026020016040519081016040528092919081815260200182805461181c90612c87565b80156118695780601f1061183e57610100808354040283529160200191611869565b820191906000526020600020905b81548152906001019060200180831161184c57829003601f168201915b5050505050815260200160028201805461188290612c87565b80601f01602080910402602001604051908101604052809291908181526020018280546118ae90612c87565b80156118fb5780601f106118d0576101008083540402835291602001916118fb565b820191906000526020600020905b8154815290600101906020018083116118de57829003601f168201915b5050505050815260200160038201805461191490612c87565b80601f016020809104026020016040519081016040528092919081815260200182805461194090612c87565b801561198d5780601f106119625761010080835404028352916020019161198d565b820191906000526020600020905b81548152906001019060200180831161197057829003601f168201915b505050505081526020016004820180546119a690612c87565b80601f01602080910402602001604051908101604052809291908181526020018280546119d290612c87565b8015611a1f5780601f106119f457610100808354040283529160200191611a1f565b820191906000526020600020905b815481529060010190602001808311611a0257829003601f168201915b50505050508152602001600582018054611a3890612c87565b80601f0160208091040260200160405190810160405280929190818152602001828054611a6490612c87565b8015611ab15780601f10611a8657610100808354040283529160200191611ab1565b820191906000526020600020905b815481529060010190602001808311611a9457829003601f168201915b5050509183525050600682015460209091019060ff166003811115611ad857611ad86126f5565b6003811115611ae957611ae96126f5565b8152600682015461010090046001600160a01b03166020820152600782015460408201526008820154606082015260099091015460ff16151560809091015292915050565b611b36612472565b611b4e600080516020612f5c8339815191523361204e565b80611b6c5750611b6c600080516020612f7c8339815191523361204e565b611b885760405162461bcd60e51b815260040161099a90612ee9565b600287604051611b989190612d66565b9081526040519081900360200190206009015460ff1615611bfb5760405162461bcd60e51b815260206004820152601960248201527f446f63746f7220616c7265616479207265676973746572656400000000000000604482015260640161099a565b6001600160a01b038116611c4a5760405162461bcd60e51b8152602060048201526016602482015275496e76616c69642077616c6c6574206164647265737360501b604482015260640161099a565b6001600160a01b03811660009081526003602052604090208054611c6d90612c87565b159050611cbc5760405162461bcd60e51b815260206004820152601960248201527f57616c6c657420616c7265616479207265676973746572656400000000000000604482015260640161099a565b60405180610160016040528088815260200187815260200186815260200185815260200184815260200183815260200160006003811115611cff57611cff6126f5565b8152602001826001600160a01b031681526020014281526020016000815260200160011515815250600288604051611d379190612d66565b90815260405190819003602001902081518190611d549082612e01565b5060208201516001820190611d699082612e01565b5060408201516002820190611d7e9082612e01565b5060608201516003820190611d939082612e01565b5060808201516004820190611da89082612e01565b5060a08201516005820190611dbd9082612e01565b5060c082015160068201805460ff19166001836003811115611de157611de16126f5565b021790555060e0820151600682018054610100600160a81b0319166101006001600160a01b0393841681029190911790915583015160078301556101208301516008830155610140909201516009909101805460ff191691151591909117905581166000908152600360205260409020611e5b8882612e01565b50600580546001810182556000919091527f036b6384b5eca791c62761152d0c79bb0604c104a5fb6f4eb0703f3154bb3db001611e988882612e01565b50806001600160a01b031687604051611eb19190612d66565b604051908190038120428252907f94282b10ed0cabe7a59e7e3382c725a88cea19d73c76d64e20e52b3dfe1ca4549060200160405180910390a3611ef460018055565b50505050505050565b611f05612472565b611f1d600080516020612f5c8339815191523361204e565b80611f3b5750611f3b600080516020612f7c8339815191523361204e565b611f575760405162461bcd60e51b815260040161099a90612ee9565b600281604051611f679190612d66565b9081526040519081900360200190206009015460ff16611f995760405162461bcd60e51b815260040161099a90612d82565b60028082604051611faa9190612d66565b908152604051908190036020019020600601805460ff19166001836003811115611fd657611fd66126f5565b021790555080604051611fe99190612d66565b604051908190038120428252907fd98cd3663af603b50f28a20f0cf1328c7fc0a0a137540ea052b25050357c01ac906020016116c6565b60006002826040516120329190612d66565b9081526040519081900360200190206009015460ff1692915050565b6000918252602082815260408084206001600160a01b0393909316845291905290205460ff1690565b60006002826040516120899190612d66565b9081526040519081900360200190206009015460ff166120bb5760405162461bcd60e51b815260040161099a90612d82565b60006004836040516120cd9190612d66565b9081526020016040518091039020805480602002602001604051908101604052809291908181526020016000905b828210156123a557838290600052602060002090600702016040518060e001604052908160008201805461212e90612c87565b80601f016020809104026020016040519081016040528092919081815260200182805461215a90612c87565b80156121a75780601f1061217c576101008083540402835291602001916121a7565b820191906000526020600020905b81548152906001019060200180831161218a57829003601f168201915b505050505081526020016001820180546121c090612c87565b80601f01602080910402602001604051908101604052809291908181526020018280546121ec90612c87565b80156122395780601f1061220e57610100808354040283529160200191612239565b820191906000526020600020905b81548152906001019060200180831161221c57829003601f168201915b5050505050815260200160028201805461225290612c87565b80601f016020809104026020016040519081016040528092919081815260200182805461227e90612c87565b80156122cb5780601f106122a0576101008083540402835291602001916122cb565b820191906000526020600020905b8154815290600101906020018083116122ae57829003601f168201915b5050509183525050600382015460ff1660208201526004820180546040909201916122f590612c87565b80601f016020809104026020016040519081016040528092919081815260200182805461232190612c87565b801561236e5780601f106123435761010080835404028352916020019161236e565b820191906000526020600020905b81548152906001019060200180831161235157829003601f168201915b5050509183525050600582015460208083019190915260069092015460ff16151560409091015290825260019290920191016120fb565b50505050905080516000036123bd5750600092915050565b6000805b8251811015612400578281815181106123dc576123dc612c71565b60200260200101516060015160ff16826123f69190612f0f565b91506001016123c1565b50815161240e826064612f22565b6124189190612f39565b949350505050565b600061242b81612468565b6103ad600080516020612f5c83398151915283610e9c565b60008281526020819052604090206001015461245e81612468565b610ec1838361252e565b6116d78133612599565b60026001540361249557604051633ee5aeb560e01b815260040160405180910390fd5b6002600155565b60006124a8838361204e565b612526576000838152602081815260408083206001600160a01b03861684529091529020805460ff191660011790556124de3390565b6001600160a01b0316826001600160a01b0316847f2f8788117e7eff1d82e926ec794901d17c78024a50270940304540a733656f0d60405160405180910390a4506001610377565b506000610377565b600061253a838361204e565b15612526576000838152602081815260408083206001600160a01b0386168085529252808320805460ff1916905551339286917ff6391f5c32d9c69d2a47ea670b442974b53935d1edc7fd64eb21e047a839171b9190a4506001610377565b6125a3828261204e565b6103ad5760405163e2517d3f60e01b81526001600160a01b03821660048201526024810183905260440161099a565b6040518061016001604052806060815260200160608152602001606081526020016060815260200160608152602001606081526020016000600381111561261b5761261b6126f5565b8152600060208201819052604082018190526060820181905260809091015290565b60006020828403121561264f57600080fd5b81356001600160e01b03198116811461266757600080fd5b9392505050565b80356001600160a01b038116811461268557600080fd5b919050565b60006020828403121561269c57600080fd5b6126678261266e565b60005b838110156126c05781810151838201526020016126a8565b50506000910152565b600081518084526126e18160208601602086016126a5565b601f01601f19169290920160200192915050565b634e487b7160e01b600052602160045260246000fd5b6004811061272957634e487b7160e01b600052602160045260246000fd5b9052565b60006101608251818552612743828601826126c9565b9150506020830151848203602086015261275d82826126c9565b9150506040830151848203604086015261277782826126c9565b9150506060830151848203606086015261279182826126c9565b915050608083015184820360808601526127ab82826126c9565b91505060a083015184820360a08601526127c582826126c9565b91505060c08301516127da60c086018261270b565b5060e08301516127f560e08601826001600160a01b03169052565b506101008381015190850152610120808401519085015261014092830151151592909301919091525090565b600060208083016020845280855180835260408601915060408160051b87010192506020870160005b8281101561287857603f1988860301845261286685835161272d565b9450928501929085019060010161284a565b5092979650505050505050565b634e487b7160e01b600052604160045260246000fd5b600082601f8301126128ac57600080fd5b813567ffffffffffffffff808211156128c7576128c7612885565b604051601f8301601f19908116603f011681019082821181831017156128ef576128ef612885565b8160405283815286602085880101111561290857600080fd5b836020870160208301376000602085830101528094505050505092915050565b600080600080600060a0868803121561294057600080fd5b853567ffffffffffffffff8082111561295857600080fd5b61296489838a0161289b565b9650602088013591508082111561297a57600080fd5b61298689838a0161289b565b9550604088013591508082111561299c57600080fd5b6129a889838a0161289b565b94506060880135915060ff821682146129c057600080fd5b909250608087013590808211156129d657600080fd5b506129e38882890161289b565b9150509295509295909350565b600060208284031215612a0257600080fd5b5035919050565b600060208284031215612a1b57600080fd5b813567ffffffffffffffff811115612a3257600080fd5b6124188482850161289b565b600060208083018184528085518083526040925060408601915060408160051b87010184880160005b83811015612b1d57603f19898403018552815160e08151818652612a8d828701826126c9565b915050888201518582038a870152612aa582826126c9565b9150508782015185820389870152612abd82826126c9565b915050606060ff8184015116818701525060808083015186830382880152612ae583826126c9565b9250505060a080830151818701525060c0808301519250612b098187018415159052565b509588019593505090860190600101612a67565b509098975050505050505050565b60008060408385031215612b3e57600080fd5b82359150612b4e6020840161266e565b90509250929050565b602081526000612667602083018461272d565b600080600080600080600060e0888a031215612b8557600080fd5b873567ffffffffffffffff80821115612b9d57600080fd5b612ba98b838c0161289b565b985060208a0135915080821115612bbf57600080fd5b612bcb8b838c0161289b565b975060408a0135915080821115612be157600080fd5b612bed8b838c0161289b565b965060608a0135915080821115612c0357600080fd5b612c0f8b838c0161289b565b955060808a0135915080821115612c2557600080fd5b612c318b838c0161289b565b945060a08a0135915080821115612c4757600080fd5b50612c548a828b0161289b565b925050612c6360c0890161266e565b905092959891949750929550565b634e487b7160e01b600052603260045260246000fd5b600181811c90821680612c9b57607f821691505b602082108103612cbb57634e487b7160e01b600052602260045260246000fd5b50919050565b6000808354612ccf81612c87565b60018281168015612ce75760018114612cfc57612d2b565b60ff1984168752821515830287019450612d2b565b8760005260208060002060005b85811015612d225781548a820152908401908201612d09565b50505082870194505b50929695505050505050565b634e487b7160e01b600052601160045260246000fd5b600060018201612d5f57612d5f612d37565b5060010190565b60008251612d788184602087016126a5565b9190910192915050565b602080825260159082015274111bd8dd1bdc88191bd95cc81b9bdd08195e1a5cdd605a1b604082015260600190565b601f821115610efa576000816000526020600020601f850160051c81016020861015612dda5750805b601f850160051c820191505b81811015612df957828155600101612de6565b505050505050565b815167ffffffffffffffff811115612e1b57612e1b612885565b612e2f81612e298454612c87565b84612db1565b602080601f831160018114612e645760008415612e4c5750858301515b600019600386901b1c1916600185901b178555612df9565b600085815260208120601f198616915b82811015612e9357888601518255948401946001909101908401612e74565b5085821015612eb15787850151600019600388901b60f8161c191681555b5050505050600190811b01905550565b606081526000612ed460608301866126c9565b60ff9490941660208301525060400152919050565b6020808252600c908201526b155b985d5d1a1bdc9a5e995960a21b604082015260600190565b8082018082111561037757610377612d37565b808202811582820484141761037757610377612d37565b600082612f5657634e487b7160e01b600052601260045260246000fd5b50049056fea49807205ce4d355092ef5a8a18f56e8913cf4a201fbe287825b095693c217750ce23c3e399818cfee81a7ab0880f714e53d7672b08df0fa62f2843416e1ea09a2646970667358221220530b8db5f363baa52ec5e41daa2a91e02f33a415c45d6a137af9f66280d6315a64736f6c63430008180033",
  "linkReferences": {},
  "deployedLinkReferences": {}
}