{
  "_format": "hh-sol-artifact-1",
  "contractName": "HealthLink",
  "sourceName": "contracts/HealthLink.sol",
  "abi": [
    {
      "inputs": [],
      "stateMutability": "nonpayable",
      "type": "constructor"
    },
    {
      "inputs": [],
      "name": "AccessControlBadConfirmation",
      "type": "error"
    },
    {
      "inputs": [
        {
          "internalType": "address",
          "name": "account",
          "type": "address"
        },
        {
          "internalType": "bytes32",
          "name": "neededRole",
          "type": "bytes32"
        }
      ],
      "name": "AccessControlUnauthorizedAccount",
      "type": "error"
    },
    {
      "inputs": [],
      "name": "ReentrancyGuardReentrantCall",
      "type": "error"
    },
    {
      "anonymous": false,
      "inputs": [
        {
          "indexed": true,
          "internalType": "bytes32",
          "name": "auditId",
          "type": "bytes32"
        },
        {
          "indexed": true,
          "internalType": "address",
          "name": "actor",
          "type": "address"
        },
        {
          "indexed": false,
          "internalType": "string",
          "name": "action",
          "type": "string"
        }
      ],
      "name": "AuditRecordCreated",
      "type": "event"
    },
    {
      "anonymous": false,
      "inputs": [
        {
          "indexed": true,
          "internalType": "string",
          "name": "consentId",
          "type": "string"
        },
        {
          "indexed": true,
          "internalType": "string",
          "name": "patientId",
          "type": "string"
        },
        {
          "indexed": true,
          "internalType": "address",
          "name": "grantee",
          "type": "address"
        }
      ],
      "name": "ConsentCreated",
      "type": "event"
    },
    {
      "anonymous": false,
      "inputs": [
        {
          "indexed": true,
          "internalType": "string",
          "name": "consentId",
          "type": "string"
        },
        {
          "indexed": false,
          "internalType": "uint256",
          "name": "timestamp",
          "type": "uint256"
        }
      ],
      "name": "ConsentRevoked",
      "type": "event"
    },
    {
      "anonymous": false,
      "inputs": [
        {
          "indexed": true,
          "internalType": "string",
          "name": "patientId",
          "type": "string"
        },
        {
          "indexed": true,
          "internalType": "address",
          "name": "creator",
          "type": "address"
        },
        {
          "indexed": false,
          "internalType": "uint256",
          "name": "timestamp",
          "type": "uint256"
        }
      ],
      "name": "PatientCreated",
      "type": "event"
    },
    {
      "anonymous": false,
      "inputs": [
        {
          "indexed": true,
          "internalType": "string",
          "name": "patientId",
          "type": "string"
        },
        {
          "indexed": false,
          "internalType": "string",
          "name": "recordId",
          "type": "string"
        },
        {
          "indexed": false,
          "internalType": "string",
          "name": "recordHash",
          "type": "string"
        },
        {
          "indexed": false,
          "internalType": "uint256",
          "name": "timestamp",
          "type": "uint256"
        }
      ],
      "name": "RecordHashAdded",
      "type": "event"
    },
    {
      "anonymous": false,
      "inputs": [
        {
          "indexed": true,
          "internalType": "bytes32",
          "name": "role",
          "type": "bytes32"
        },
        {
          "indexed": true,
          "internalType": "bytes32",
          "name": "previousAdminRole",
          "type": "bytes32"
        },
        {
          "indexed": true,
          "internalType": "bytes32",
          "name": "newAdminRole",
          "type": "bytes32"
        }
      ],
      "name": "RoleAdminChanged",
      "type": "event"
    },
    {
      "anonymous": false,
      "inputs": [
        {
          "indexed": true,
          "internalType": "bytes32",
          "name": "role",
          "type": "bytes32"
        },
        {
          "indexed": true,
          "internalType": "address",
          "name": "account",
          "type": "address"
        },
        {
          "indexed": true,
          "internalType": "address",
          "name": "sender",
          "type": "address"
        }
      ],
      "name": "RoleGranted",
      "type": "event"
    },
    {
      "anonymous": false,
      "inputs": [
        {
          "indexed": true,
          "internalType": "bytes32",
          "name": "role",
          "type": "bytes32"
        },
        {
          "indexed": true,
          "internalType": "address",
          "name": "account",
          "type": "address"
        },
        {
          "indexed": true,
          "internalType": "address",
          "name": "sender",
          "type": "address"
        }
      ],
      "name": "RoleRevoked",
      "type": "event"
    },
    {
      "inputs": [],
      "name": "ADMIN_ROLE",
      "outputs": [
        {
          "internalType": "bytes32",
          "name": "",
          "type": "bytes32"
        }
      ],
      "stateMutability": "view",
      "type": "function"
    },
    {
      "inputs": [],
      "name": "DEFAULT_ADMIN_ROLE",
      "outputs": [
        {
          "internalType": "bytes32",
          "name": "",
          "type": "bytes32"
        }
      ],
      "stateMutability": "view",
      "type": "function"
    },
    {
      "inputs": [],
      "name": "DOCTOR_ROLE",
      "outputs": [
        {
          "internalType": "bytes32",
          "name": "",
          "type": "bytes32"
        }
      ],
      "stateMutability": "view",
      "type": "function"
    },
    {
      "inputs": [],
      "name": "PATIENT_ROLE",
      "outputs": [
        {
          "internalType": "bytes32",
          "name": "",
          "type": "bytes32"
        }
      ],
      "stateMutability": "view",
      "type": "function"
    },
    {
      "inputs": [
        {
          "internalType": "string",
          "name": "_patientId",
          "type": "string"
        },
        {
          "internalType": "string",
          "name": "_recordId",
          "type": "string"
        },
        {
          "internalType": "string",
          "name": "_recordHash",
          "type": "string"
        }
      ],
      "name": "addRecordHash",
      "outputs": [],
      "stateMutability": "nonpayable",
      "type": "function"
    },
    {
      "inputs": [
        {
          "internalType": "string",
          "name": "_consentId",
          "type": "string"
        },
        {
          "internalType": "string",
          "name": "_patientId",
          "type": "string"
        },
        {
          "internalType": "address",
          "name": "_granteeAddress",
          "type": "address"
        },
        {
          "internalType": "string",
          "name": "_scope",
          "type": "string"
        },
        {
          "internalType": "string",
          "name": "_purpose",
          "type": "string"
        },
        {
          "internalType": "uint256",
          "name": "_validUntil",
          "type": "uint256"
        }
      ],
      "name": "createConsent",
      "outputs": [],
      "stateMutability": "nonpayable",
      "type": "function"
    },
    {
      "inputs": [
        {
          "internalType": "string",
          "name": "_patientId",
          "type": "string"
        },
        {
          "internalType": "string",
          "name": "_publicData",
          "type": "string"
        }
      ],
      "name": "createPatient",
      "outputs": [],
      "stateMutability": "nonpayable",
      "type": "function"
    },
    {
      "inputs": [
        {
          "internalType": "bytes32",
          "name": "_auditId",
          "type": "bytes32"
        }
      ],
      "name": "getAuditRecord",
      "outputs": [
        {
          "components": [
            {
              "internalType": "string",
              "name": "action",
              "type": "string"
            },
            {
              "internalType": "address",
              "name": "actor",
              "type": "address"
            },
            {
              "internalType": "string",
              "name": "targetId",
              "type": "string"
            },
            {
              "internalType": "string",
              "name": "details",
              "type": "string"
            },
            {
              "internalType": "uint256",
              "name": "timestamp",
              "type": "uint256"
            },
            {
              "internalType": "bytes32",
              "name": "txHash",
              "type": "bytes32"
            }
          ],
          "internalType": "struct HealthLink.AuditRecord",
          "name": "",
          "type": "tuple"
        }
      ],
      "stateMutability": "view",
      "type": "function"
    },
    {
      "inputs": [
        {
          "internalType": "uint256",
          "name": "_limit",
          "type": "uint256"
        }
      ],
      "name": "getAuditRecords",
      "outputs": [
        {
          "components": [
            {
              "internalType": "string",
              "name": "action",
              "type": "string"
            },
            {
              "internalType": "address",
              "name": "actor",
              "type": "address"
            },
            {
              "internalType": "string",
              "name": "targetId",
              "type": "string"
            },
            {
              "internalType": "string",
              "name": "details",
              "type": "string"
            },
            {
              "internalType": "uint256",
              "name": "timestamp",
              "type": "uint256"
            },
            {
              "internalType": "bytes32",
              "name": "txHash",
              "type": "bytes32"
            }
          ],
          "internalType": "struct HealthLink.AuditRecord[]",
          "name": "",
          "type": "tuple[]"
        }
      ],
      "stateMutability": "view",
      "type": "function"
    },
    {
      "inputs": [
        {
          "internalType": "string",
          "name": "_consentId",
          "type": "string"
        }
      ],
      "name": "getConsent",
      "outputs": [
        {
          "components": [
            {
              "internalType": "string",
              "name": "consentId",
              "type": "string"
            },
            {
              "internalType": "string",
              "name": "patientId",
              "type": "string"
            },
            {
              "internalType": "address",
              "name": "granteeAddress",
              "type": "address"
            },
            {
              "internalType": "string",
              "name": "scope",
              "type": "string"
            },
            {
              "internalType": "string",
              "name": "purpose",
              "type": "string"
            },
            {
              "internalType": "uint256",
              "name": "validUntil",
              "type": "uint256"
            },
            {
              "internalType": "enum HealthLink.ConsentStatus",
              "name": "status",
              "type": "uint8"
            },
            {
              "internalType": "uint256",
              "name": "createdAt",
              "type": "uint256"
            },
            {
              "internalType": "uint256",
              "name": "revokedAt",
              "type": "uint256"
            }
          ],
          "internalType": "struct HealthLink.Consent",
          "name": "",
          "type": "tuple"
        }
      ],
      "stateMutability": "view",
      "type": "function"
    },
    {
      "inputs": [
        {
          "internalType": "string",
          "name": "_patientId",
          "type": "string"
        }
      ],
      "name": "getConsentsByPatient",
      "outputs": [
        {
          "components": [
            {
              "internalType": "string",
              "name": "consentId",
              "type": "string"
            },
            {
              "internalType": "string",
              "name": "patientId",
              "type": "string"
            },
            {
              "internalType": "address",
              "name": "granteeAddress",
              "type": "address"
            },
            {
              "internalType": "string",
              "name": "scope",
              "type": "string"
            },
            {
              "internalType": "string",
              "name": "purpose",
              "type": "string"
            },
            {
              "internalType": "uint256",
              "name": "validUntil",
              "type": "uint256"
            },
            {
              "internalType": "enum HealthLink.ConsentStatus",
              "name": "status",
              "type": "uint8"
            },
            {
              "internalType": "uint256",
              "name": "createdAt",
              "type": "uint256"
            },
            {
              "internalType": "uint256",
              "name": "revokedAt",
              "type": "uint256"
            }
          ],
          "internalType": "struct HealthLink.Consent[]",
          "name": "",
          "type": "tuple[]"
        }
      ],
      "stateMutability": "view",
      "type": "function"
    },
    {
      "inputs": [
        {
          "internalType": "string",
          "name": "_patientId",
          "type": "string"
        }
      ],
      "name": "getPatient",
      "outputs": [
        {
          "components": [
            {
              "internalType": "string",
              "name": "patientId",
              "type": "string"
            },
            {
              "internalType": "string",
              "name": "publicData",
              "type": "string"
            },
            {
              "internalType": "bool",
              "name": "exists",
              "type": "bool"
            },
            {
              "internalType": "uint256",
              "name": "createdAt",
              "type": "uint256"
            }
          ],
          "internalType": "struct HealthLink.Patient",
          "name": "",
          "type": "tuple"
        }
      ],
      "stateMutability": "view",
      "type": "function"
    },
    {
      "inputs": [
        {
          "internalType": "string",
          "name": "_patientId",
          "type": "string"
        },
        {
          "internalType": "string",
          "name": "_recordId",
          "type": "string"
        }
      ],
      "name": "getRecordHash",
      "outputs": [
        {
          "internalType": "string",
          "name": "",
          "type": "string"
        }
      ],
      "stateMutability": "view",
      "type": "function"
    },
    {
      "inputs": [
        {
          "internalType": "bytes32",
          "name": "role",
          "type": "bytes32"
        }
      ],
      "name": "getRoleAdmin",
      "outputs": [
        {
          "internalType": "bytes32",
          "name": "",
          "type": "bytes32"
        }
      ],
      "stateMutability": "view",
      "type": "function"
    },
    {
      "inputs": [
        {
          "internalType": "address",
          "name": "_admin",
          "type": "address"
        }
      ],
      "name": "grantAdminRole",
      "outputs": [],
      "stateMutability": "nonpayable",
      "type": "function"
    },
    {
      "inputs": [
        {
          "internalType": "address",
          "name": "_doctor",
          "type": "address"
        }
      ],
      "name": "grantDoctorRole",
      "outputs": [],
      "stateMutability": "nonpayable",
      "type": "function"
    },
    {
      "inputs": [
        {
          "internalType": "address",
          "name": "_patient",
          "type": "address"
        }
      ],
      "name": "grantPatientRole",
      "outputs": [],
      "stateMutability": "nonpayable",
      "type": "function"
    },
    {
      "inputs": [
        {
          "internalType": "bytes32",
          "name": "role",
          "type": "bytes32"
        },
        {
          "internalType": "address",
          "name": "account",
          "type": "address"
        }
      ],
      "name": "grantRole",
      "outputs": [],
      "stateMutability": "nonpayable",
      "type": "function"
    },
    {
      "inputs": [
        {
          "internalType": "bytes32",
          "name": "role",
          "type": "bytes32"
        },
        {
          "internalType": "address",
          "name": "account",
          "type": "address"
        }
      ],
      "name": "hasRole",
      "outputs": [
        {
          "internalType": "bool",
          "name": "",
          "type": "bool"
        }
      ],
      "stateMutability": "view",
      "type": "function"
    },
    {
      "inputs": [
        {
          "internalType": "bytes32",
          "name": "role",
          "type": "bytes32"
        },
        {
          "internalType": "address",
          "name": "callerConfirmation",
          "type": "address"
        }
      ],
      "name": "renounceRole",
      "outputs": [],
      "stateMutability": "nonpayable",
      "type": "function"
    },
    {
      "inputs": [
        {
          "internalType": "string",
          "name": "_consentId",
          "type": "string"
        }
      ],
      "name": "revokeConsent",
      "outputs": [],
      "stateMutability": "nonpayable",
      "type": "function"
    },
    {
      "inputs": [
        {
          "internalType": "bytes32",
          "name": "role",
          "type": "bytes32"
        },
        {
          "internalType": "address",
          "name": "account",
          "type": "address"
        }
      ],
      "name": "revokeRole",
      "outputs": [],
      "stateMutability": "nonpayable",
      "type": "function"
    },
    {
      "inputs": [
        {
          "internalType": "bytes4",
          "name": "interfaceId",
          "type": "bytes4"
        }
      ],
      "name": "supportsInterface",
      "outputs": [
        {
          "internalType": "bool",
          "name": "",
          "type": "bool"
        }
      ],
      "stateMutability": "view",
      "type": "function"
    }
  ],
  "bytecode": "0x60806040523480156200001157600080fd5b50600180556200002360003362000057565b50620000507fa49807205ce4d355092ef5a8a18f56e8913cf4a201fbe287825b095693c217753362000057565b5062000106565b6000828152602081815260408083206001600160a01b038516845290915281205460ff16620000fc576000838152602081815260408083206001600160a01b03861684529091529020805460ff19166001179055620000b33390565b6001600160a01b0316826001600160a01b0316847f2f8788117e7eff1d82e926ec794901d17c78024a50270940304540a733656f0d60405160405180910390a450600162000100565b5060005b92915050565b612ea680620001166000396000f3fe608060405234801561001057600080fd5b506004361061014d5760003560e01c806391d14854116100c3578063ac4b6bb21161007c578063ac4b6bb2146102f5578063ac5cb97d14610315578063c634b78e1461032a578063d547741f1461033d578063e79a7a2e14610350578063fec331f21461037057600080fd5b806391d14854146102815780639a57189f14610294578063a217fddf146102a7578063a24d9658146102af578063a9a97c87146102c2578063aa07c359146102d557600080fd5b80632f5635cc116101155780632f5635cc1461020057806336568abe14610213578063398487501461022657806366a71d351461023957806375b238fc146102595780637f2df8b01461026e57600080fd5b806301ffc9a7146101525780631f4b1c9e1461017a5780631fe398101461019a578063248a9ca3146101ba5780632f2ff15d146101eb575b600080fd5b610165610160366004612465565b610397565b60405190151581526020015b60405180910390f35b61018d610188366004612496565b6103ce565b604051610171919061257a565b6101ad6101a8366004612630565b61063b565b6040516101719190612694565b6101dd6101c8366004612496565b60009081526020819052604090206001015490565b604051908152602001610171565b6101fe6101f93660046126c3565b610708565b005b6101fe61020e3660046126ef565b610733565b6101fe6102213660046126c3565b610779565b6101fe610234366004612630565b6107b1565b61024c61024736600461270a565b610984565b604051610171919061283b565b6101dd600080516020612e5183398151915281565b6101fe61027c3660046126ef565b610ce0565b61016561028f3660046126c3565b610d10565b6101fe6102a236600461284e565b610d39565b6101dd600081565b6101fe6102bd36600461270a565b610f24565b6101fe6102d03660046128d6565b6111c9565b6102e86102e3366004612496565b611568565b604051610171919061299c565b61030861030336600461270a565b61184a565b6040516101719190612a00565b6101dd600080516020612e3183398151915281565b6101fe6103383660046126ef565b611cc8565b6101fe61034b3660046126c3565b611ceb565b61036361035e36600461270a565b611d10565b6040516101719190612a57565b6101dd7f0af1dac7dea2fd7f7738119cec7df099dfad49aa9d2e7d17ba6b60f63ae7411f81565b60006001600160e01b03198216637965db0b60e01b14806103c857506301ffc9a760e01b6001600160e01b03198316145b92915050565b6103d66123bd565b600082815260046020819052604082200154900361043b5760405162461bcd60e51b815260206004820152601b60248201527f4175646974207265636f726420646f6573206e6f74206578697374000000000060448201526064015b60405180910390fd5b60008281526004602052604090819020815160c0810190925280548290829061046390612ab3565b80601f016020809104026020016040519081016040528092919081815260200182805461048f90612ab3565b80156104dc5780601f106104b1576101008083540402835291602001916104dc565b820191906000526020600020905b8154815290600101906020018083116104bf57829003601f168201915b505050918352505060018201546001600160a01b0316602082015260028201805460409092019161050c90612ab3565b80601f016020809104026020016040519081016040528092919081815260200182805461053890612ab3565b80156105855780601f1061055a57610100808354040283529160200191610585565b820191906000526020600020905b81548152906001019060200180831161056857829003601f168201915b5050505050815260200160038201805461059e90612ab3565b80601f01602080910402602001604051908101604052809291908181526020018280546105ca90612ab3565b80156106175780601f106105ec57610100808354040283529160200191610617565b820191906000526020600020905b8154815290600101906020018083116105fa57829003601f168201915b50505050508152602001600482015481526020016005820154815250509050919050565b606060058360405161064d9190612aed565b9081526020016040518091039020826040516106699190612aed565b9081526020016040518091039020805461068290612ab3565b80601f01602080910402602001604051908101604052809291908181526020018280546106ae90612ab3565b80156106fb5780601f106106d0576101008083540402835291602001916106fb565b820191906000526020600020905b8154815290600101906020018083116106de57829003601f168201915b5050505050905092915050565b60008281526020819052604090206001015461072381611eec565b61072d8383611ef6565b50505050565b600080516020612e5183398151915261074b81611eec565b6107757f0af1dac7dea2fd7f7738119cec7df099dfad49aa9d2e7d17ba6b60f63ae7411f83610708565b5050565b6001600160a01b03811633146107a25760405163334bd91960e11b815260040160405180910390fd5b6107ac8282611f88565b505050565b600080516020612e518339815191526107c981611eec565b6107d1611ff3565b6002836040516107e19190612aed565b9081526040519081900360200190206002015460ff161561083d5760405162461bcd60e51b815260206004820152601660248201527550617469656e7420616c72656164792065786973747360501b6044820152606401610432565b6040805160808101825284815260208101849052600181830152426060820152905160029061086d908690612aed565b9081526040519081900360200190208151819061088a9082612b51565b506020820151600182019061089f9082612b51565b50604082015160028201805460ff1916911515919091179055606090910151600390910155600680546001810182556000919091527ff652222313e28459528d920b65115c16c04f3efc82aaedc97be59f3f377c0d3f016109008482612b51565b506109316040518060400160405280600d81526020016c10dc99585d1954185d1a595b9d609a1b815250848461201d565b6040513390610941908590612aed565b604051908190038120428252907fb6f7af19cbde1ca118bee800180d924e867450eef2cd48dccfc92336361506d49060200160405180910390a36107ac60018055565b61098c6123ff565b600060038360405161099e9190612aed565b90815260405190819003602001902080546109b890612ab3565b905011610a005760405162461bcd60e51b815260206004820152601660248201527510dbdb9cd95b9d08191bd95cc81b9bdd08195e1a5cdd60521b6044820152606401610432565b600382604051610a109190612aed565b908152602001604051809103902060405180610120016040529081600082018054610a3a90612ab3565b80601f0160208091040260200160405190810160405280929190818152602001828054610a6690612ab3565b8015610ab35780601f10610a8857610100808354040283529160200191610ab3565b820191906000526020600020905b815481529060010190602001808311610a9657829003601f168201915b50505050508152602001600182018054610acc90612ab3565b80601f0160208091040260200160405190810160405280929190818152602001828054610af890612ab3565b8015610b455780601f10610b1a57610100808354040283529160200191610b45565b820191906000526020600020905b815481529060010190602001808311610b2857829003601f168201915b505050918352505060028201546001600160a01b03166020820152600382018054604090920191610b7590612ab3565b80601f0160208091040260200160405190810160405280929190818152602001828054610ba190612ab3565b8015610bee5780601f10610bc357610100808354040283529160200191610bee565b820191906000526020600020905b815481529060010190602001808311610bd157829003601f168201915b50505050508152602001600482018054610c0790612ab3565b80601f0160208091040260200160405190810160405280929190818152602001828054610c3390612ab3565b8015610c805780601f10610c5557610100808354040283529160200191610c80565b820191906000526020600020905b815481529060010190602001808311610c6357829003601f168201915b505050918352505060058201546020820152600682015460409091019060ff166001811115610cb157610cb1612747565b6001811115610cc257610cc2612747565b81526007820154602082015260089091015460409091015292915050565b600080516020612e51833981519152610cf881611eec565b610775600080516020612e3183398151915283610708565b6000918252602082815260408084206001600160a01b0393909316845291905290205460ff1690565b610d41611ff3565b600283604051610d519190612aed565b9081526040519081900360200190206002015460ff16610d835760405162461bcd60e51b815260040161043290612c11565b610d9b600080516020612e5183398151915233610d10565b80610dcb5750610dcb7f0af1dac7dea2fd7f7738119cec7df099dfad49aa9d2e7d17ba6b60f63ae7411f33610d10565b610e345760405162461bcd60e51b815260206004820152603460248201527f556e617574686f72697a65643a204f6e6c792061646d696e73206f7220646f63604482015273746f72732063616e20616464207265636f72647360601b6064820152608401610432565b80600584604051610e459190612aed565b908152602001604051809103902083604051610e619190612aed565b90815260200160405180910390209081610e7b9190612b51565b50600082604051602001610e8f9190612c41565b60408051601f19818403018152828201909152600d82526c082c8c8a4cac6dee4c890c2e6d609b1b60208301529150610ec990858361201d565b83604051610ed79190612aed565b60405180910390207fc571213b84e6525e57b0a8f82f9c7bf2ade55faa009067b49b6f88117288db3a848442604051610f1293929190612c73565b60405180910390a2506107ac60018055565b610f2c611ff3565b6000600382604051610f3e9190612aed565b9081526040519081900360200190208054610f5890612ab3565b905011610fa05760405162461bcd60e51b815260206004820152601660248201527510dbdb9cd95b9d08191bd95cc81b9bdd08195e1a5cdd60521b6044820152606401610432565b6000600382604051610fb29190612aed565b9081526040519081900360200190206006015460ff166001811115610fd957610fd9612747565b146110265760405162461bcd60e51b815260206004820152601760248201527f436f6e73656e7420616c7265616479207265766f6b65640000000000000000006044820152606401610432565b61103e600080516020612e3183398151915233610d10565b8061105c575061105c600080516020612e5183398151915233610d10565b6110ce5760405162461bcd60e51b815260206004820152603860248201527f556e617574686f72697a65643a204f6e6c792070617469656e7473206f72206160448201527f646d696e732063616e207265766f6b6520636f6e73656e7400000000000000006064820152608401610432565b60016003826040516110e09190612aed565b908152604051908190036020019020600601805460ff19166001838181111561110b5761110b612747565b0217905550426003826040516111219190612aed565b9081526020016040518091039020600801819055506111756040518060400160405280600d81526020016c14995d9bdad950dbdb9cd95b9d609a1b815250826040518060200160405280600081525061201d565b806040516111839190612aed565b604051908190038120428252907fccb09cde5047d9b5656c21b96d24df0d89eea588876adbb059225056989004049060200160405180910390a26111c660018055565b50565b6111d1611ff3565b6002856040516111e19190612aed565b9081526040519081900360200190206002015460ff166112135760405162461bcd60e51b815260040161043290612c11565b61122b600080516020612e3183398151915233610d10565b806112495750611249600080516020612e5183398151915233610d10565b6112bb5760405162461bcd60e51b815260206004820152603860248201527f556e617574686f72697a65643a204f6e6c792070617469656e7473206f72206160448201527f646d696e732063616e2063726561746520636f6e73656e7400000000000000006064820152608401610432565b6003866040516112cb9190612aed565b90815260405190819003602001902080546112e590612ab3565b15905061132d5760405162461bcd60e51b8152602060048201526016602482015275436f6e73656e7420616c72656164792065786973747360501b6044820152606401610432565b604051806101200160405280878152602001868152602001856001600160a01b031681526020018481526020018381526020018281526020016000600181111561137957611379612747565b815260200142815260200160008152506003876040516113999190612aed565b908152604051908190036020019020815181906113b69082612b51565b50602082015160018201906113cb9082612b51565b5060408201516002820180546001600160a01b0319166001600160a01b03909216919091179055606082015160038201906114069082612b51565b506080820151600482019061141b9082612b51565b5060a0820151600582015560c082015160068201805460ff19166001838181111561144857611448612747565b021790555060e08201516007808301919091556101009092015160089091015580546001810182556000919091527fa66cc928b5edb82af9bd49922954155ab7b0942694bea4ce44661d9a8736c688016114a28782612b51565b5060006114ae8561218a565b6040516020016114be9190612ca9565b60408051601f19818403018152828201909152600d82526c10dc99585d1950dbdb9cd95b9d609a1b602083015291506114f890888361201d565b846001600160a01b0316866040516115109190612aed565b6040518091039020886040516115269190612aed565b604051908190038120907f947d72f7e95dece5a1ff48de3acf0be88533c2feb5e0f938f56775535788774990600090a45061156060018055565b505050505050565b600854606090600090831161157d5782611581565b6008545b905060008167ffffffffffffffff81111561159e5761159e61258d565b6040519080825280602002602001820160405280156115d757816020015b6115c46123bd565b8152602001906001900390816115bc5790505b50905060005b82811015611842576004600060088360016008805490506115fe9190612cf0565b6116089190612cf0565b8154811061161857611618612d03565b906000526020600020015481526020019081526020016000206040518060c001604052908160008201805461164c90612ab3565b80601f016020809104026020016040519081016040528092919081815260200182805461167890612ab3565b80156116c55780601f1061169a576101008083540402835291602001916116c5565b820191906000526020600020905b8154815290600101906020018083116116a857829003601f168201915b505050918352505060018201546001600160a01b031660208201526002820180546040909201916116f590612ab3565b80601f016020809104026020016040519081016040528092919081815260200182805461172190612ab3565b801561176e5780601f106117435761010080835404028352916020019161176e565b820191906000526020600020905b81548152906001019060200180831161175157829003601f168201915b5050505050815260200160038201805461178790612ab3565b80601f01602080910402602001604051908101604052809291908181526020018280546117b390612ab3565b80156118005780601f106117d557610100808354040283529160200191611800565b820191906000526020600020905b8154815290600101906020018083116117e357829003601f168201915b505050505081526020016004820154815260200160058201548152505082828151811061182f5761182f612d03565b60209081029190910101526001016115dd565b509392505050565b60606000805b6007548110156118cf57838051906020012060036007838154811061187757611877612d03565b9060005260206000200160405161188e9190612d8c565b90815260200160405180910390206001016040516118ac9190612d8c565b6040518091039020036118c757816118c381612d98565b9250505b600101611850565b5060008167ffffffffffffffff8111156118eb576118eb61258d565b60405190808252806020026020018201604052801561192457816020015b6119116123ff565b8152602001906001900390816119095790505b5090506000805b600754811015611cbe57858051906020012060036007838154811061195257611952612d03565b906000526020600020016040516119699190612d8c565b90815260200160405180910390206001016040516119879190612d8c565b604051809103902003611cb6576003600782815481106119a9576119a9612d03565b906000526020600020016040516119c09190612d8c565b9081526020016040518091039020604051806101200160405290816000820180546119ea90612ab3565b80601f0160208091040260200160405190810160405280929190818152602001828054611a1690612ab3565b8015611a635780601f10611a3857610100808354040283529160200191611a63565b820191906000526020600020905b815481529060010190602001808311611a4657829003601f168201915b50505050508152602001600182018054611a7c90612ab3565b80601f0160208091040260200160405190810160405280929190818152602001828054611aa890612ab3565b8015611af55780601f10611aca57610100808354040283529160200191611af5565b820191906000526020600020905b815481529060010190602001808311611ad857829003601f168201915b505050918352505060028201546001600160a01b03166020820152600382018054604090920191611b2590612ab3565b80601f0160208091040260200160405190810160405280929190818152602001828054611b5190612ab3565b8015611b9e5780601f10611b7357610100808354040283529160200191611b9e565b820191906000526020600020905b815481529060010190602001808311611b8157829003601f168201915b50505050508152602001600482018054611bb790612ab3565b80601f0160208091040260200160405190810160405280929190818152602001828054611be390612ab3565b8015611c305780601f10611c0557610100808354040283529160200191611c30565b820191906000526020600020905b815481529060010190602001808311611c1357829003601f168201915b505050918352505060058201546020820152600682015460409091019060ff166001811115611c6157611c61612747565b6001811115611c7257611c72612747565b815260200160078201548152602001600882015481525050838381518110611c9c57611c9c612d03565b60200260200101819052508180611cb290612d98565b9250505b60010161192b565b5090949350505050565b6000611cd381611eec565b610775600080516020612e5183398151915283610708565b600082815260208190526040902060010154611d0681611eec565b61072d8383611f88565b611d3d60405180608001604052806060815260200160608152602001600015158152602001600081525090565b600282604051611d4d9190612aed565b9081526040519081900360200190206002015460ff16611d7f5760405162461bcd60e51b815260040161043290612c11565b600282604051611d8f9190612aed565b9081526020016040518091039020604051806080016040529081600082018054611db890612ab3565b80601f0160208091040260200160405190810160405280929190818152602001828054611de490612ab3565b8015611e315780601f10611e0657610100808354040283529160200191611e31565b820191906000526020600020905b815481529060010190602001808311611e1457829003601f168201915b50505050508152602001600182018054611e4a90612ab3565b80601f0160208091040260200160405190810160405280929190818152602001828054611e7690612ab3565b8015611ec35780601f10611e9857610100808354040283529160200191611ec3565b820191906000526020600020905b815481529060010190602001808311611ea657829003601f168201915b5050509183525050600282015460ff161515602082015260039091015460409091015292915050565b6111c68133612384565b6000611f028383610d10565b611f80576000838152602081815260408083206001600160a01b03861684529091529020805460ff19166001179055611f383390565b6001600160a01b0316826001600160a01b0316847f2f8788117e7eff1d82e926ec794901d17c78024a50270940304540a733656f0d60405160405180910390a45060016103c8565b5060006103c8565b6000611f948383610d10565b15611f80576000838152602081815260408083206001600160a01b0386168085529252808320805460ff1916905551339286917ff6391f5c32d9c69d2a47ea670b442974b53935d1edc7fd64eb21e047a839171b9190a45060016103c8565b60026001540361201657604051633ee5aeb560e01b815260040160405180910390fd5b6002600155565b6000423385856040516020016120369493929190612db1565b6040516020818303038152906040528051906020012090506040518060c00160405280858152602001336001600160a01b0316815260200184815260200183815260200142815260200160014361208d9190612cf0565b4090526000828152600460205260409020815181906120ac9082612b51565b5060208201516001820180546001600160a01b0319166001600160a01b03909216919091179055604082015160028201906120e79082612b51565b50606082015160038201906120fc9082612b51565b506080820151600482015560a090910151600590910155600880546001810182556000919091527ff3f7a9fe364faab93b216da50a3214154f22a0a2b415b23a84c8169e8b636ee301819055604051339082907fbc841b031c5232969796ed9c9e1d8cb2d13db1ccb72ef36a07a96e0c8d37cbfd9061217c908890612694565b60405180910390a350505050565b604051606082811b6bffffffffffffffffffffffff191660208301529060009060340160408051808303601f190181528282018252601083526f181899199a1a9b1b9c1cb0b131b232b360811b60208401528151602a80825260608201909352909350600091602082018180368337019050509050600360fc1b8160008151811061221757612217612d03565b60200101906001600160f81b031916908160001a905350600f60fb1b8160018151811061224657612246612d03565b60200101906001600160f81b031916908160001a90535060005b601481101561237b5782600485838151811061227e5761227e612d03565b016020015182516001600160f81b031990911690911c60f81c9081106122a6576122a6612d03565b01602001516001600160f81b031916826122c1836002612e06565b6122cc906002612e1d565b815181106122dc576122dc612d03565b60200101906001600160f81b031916908160001a9053508284828151811061230657612306612d03565b602091010151815160f89190911c600f1690811061232657612326612d03565b01602001516001600160f81b03191682612341836002612e06565b61234c906003612e1d565b8151811061235c5761235c612d03565b60200101906001600160f81b031916908160001a905350600101612260565b50949350505050565b61238e8282610d10565b6107755760405163e2517d3f60e01b81526001600160a01b038216600482015260248101839052604401610432565b6040518060c001604052806060815260200160006001600160a01b03168152602001606081526020016060815260200160008152602001600080191681525090565b604051806101200160405280606081526020016060815260200160006001600160a01b031681526020016060815260200160608152602001600081526020016000600181111561245157612451612747565b815260200160008152602001600081525090565b60006020828403121561247757600080fd5b81356001600160e01b03198116811461248f57600080fd5b9392505050565b6000602082840312156124a857600080fd5b5035919050565b60005b838110156124ca5781810151838201526020016124b2565b50506000910152565b600081518084526124eb8160208601602086016124af565b601f01601f19169290920160200192915050565b6000815160c0845261251460c08501826124d3565b905060018060a01b0360208401511660208501526040830151848203604086015261253f82826124d3565b9150506060830151848203606086015261255982826124d3565b9150506080830151608085015260a083015160a08501528091505092915050565b60208152600061248f60208301846124ff565b634e487b7160e01b600052604160045260246000fd5b600082601f8301126125b457600080fd5b813567ffffffffffffffff808211156125cf576125cf61258d565b604051601f8301601f19908116603f011681019082821181831017156125f7576125f761258d565b8160405283815286602085880101111561261057600080fd5b836020870160208301376000602085830101528094505050505092915050565b6000806040838503121561264357600080fd5b823567ffffffffffffffff8082111561265b57600080fd5b612667868387016125a3565b9350602085013591508082111561267d57600080fd5b5061268a858286016125a3565b9150509250929050565b60208152600061248f60208301846124d3565b80356001600160a01b03811681146126be57600080fd5b919050565b600080604083850312156126d657600080fd5b823591506126e6602084016126a7565b90509250929050565b60006020828403121561270157600080fd5b61248f826126a7565b60006020828403121561271c57600080fd5b813567ffffffffffffffff81111561273357600080fd5b61273f848285016125a3565b949350505050565b634e487b7160e01b600052602160045260246000fd5b6002811061277b57634e487b7160e01b600052602160045260246000fd5b9052565b60006101208251818552612795828601826124d3565b915050602083015184820360208601526127af82826124d3565b91505060408301516127cc60408601826001600160a01b03169052565b50606083015184820360608601526127e482826124d3565b915050608083015184820360808601526127fe82826124d3565b91505060a083015160a085015260c083015161281d60c086018261275d565b5060e083810151908501526101009283015192909301919091525090565b60208152600061248f602083018461277f565b60008060006060848603121561286357600080fd5b833567ffffffffffffffff8082111561287b57600080fd5b612887878388016125a3565b9450602086013591508082111561289d57600080fd5b6128a9878388016125a3565b935060408601359150808211156128bf57600080fd5b506128cc868287016125a3565b9150509250925092565b60008060008060008060c087890312156128ef57600080fd5b863567ffffffffffffffff8082111561290757600080fd5b6129138a838b016125a3565b9750602089013591508082111561292957600080fd5b6129358a838b016125a3565b965061294360408a016126a7565b9550606089013591508082111561295957600080fd5b6129658a838b016125a3565b9450608089013591508082111561297b57600080fd5b5061298889828a016125a3565b92505060a087013590509295509295509295565b600060208083016020845280855180835260408601915060408160051b87010192506020870160005b828110156129f357603f198886030184526129e18583516124ff565b945092850192908501906001016129c5565b5092979650505050505050565b600060208083016020845280855180835260408601915060408160051b87010192506020870160005b828110156129f357603f19888603018452612a4585835161277f565b94509285019290850190600101612a29565b602081526000825160806020840152612a7360a08401826124d3565b90506020840151601f19848303016040850152612a9082826124d3565b915050604084015115156060840152606084015160808401528091505092915050565b600181811c90821680612ac757607f821691505b602082108103612ae757634e487b7160e01b600052602260045260246000fd5b50919050565b60008251612aff8184602087016124af565b9190910192915050565b601f8211156107ac576000816000526020600020601f850160051c81016020861015612b325750805b601f850160051c820191505b8181101561156057828155600101612b3e565b815167ffffffffffffffff811115612b6b57612b6b61258d565b612b7f81612b798454612ab3565b84612b09565b602080601f831160018114612bb45760008415612b9c5750858301515b600019600386901b1c1916600185901b178555611560565b600085815260208120601f198616915b82811015612be357888601518255948401946001909101908401612bc4565b5085821015612c015787850151600019600388901b60f8161c191681555b5050505050600190811b01905550565b60208082526016908201527514185d1a595b9d08191bd95cc81b9bdd08195e1a5cdd60521b604082015260600190565b6902932b1b7b93224b21d160b51b815260008251612c6681600a8501602087016124af565b91909101600a0192915050565b606081526000612c8660608301866124d3565b8281036020840152612c9881866124d3565b915050826040830152949350505050565b68023b930b73a32b29d160bd1b815260008251612ccd8160098501602087016124af565b9190910160090192915050565b634e487b7160e01b600052601160045260246000fd5b818103818111156103c8576103c8612cda565b634e487b7160e01b600052603260045260246000fd5b60008154612d2681612ab3565b60018281168015612d3e5760018114612d5357612d82565b60ff1984168752821515830287019450612d82565b8560005260208060002060005b85811015612d795781548a820152908401908201612d60565b50505082870194505b5050505092915050565b600061248f8284612d19565b600060018201612daa57612daa612cda565b5060010190565b8481526bffffffffffffffffffffffff198460601b16602082015260008351612de18160348501602088016124af565b835190830190612df88160348401602088016124af565b016034019695505050505050565b80820281158282048414176103c8576103c8612cda565b808201808211156103c8576103c8612cda56fe72606200fac42b7dc86b75901d61ecfab2a4a1a6eded478b97a428094891abeda49807205ce4d355092ef5a8a18f56e8913cf4a201fbe287825b095693c21775a264697066735822122098241fbc7b6b9047c93e67463e43e56ddc3359597246a540b8622f4789a5342664736f6c63430008180033",
  "linkReferences": {},
  "deployedLinkReferences": {},
  "address": "0xA94AFCbFF804527315391EA52890c826f897A757"
}