{
  "_format": "hh-sol-artifact-1",
  "contractName": "HealthLink",
  "sourceName": "contracts/HealthLink.sol",
  "abi": [
    {
      "inputs": [
        {
          "internalType": "address",
          "name": "initialAdmin",
          "type": "address"
        }
      ],
      "stateMutability": "nonpayable",
      "type": "constructor"
    },
    {
      "inputs": [],
      "name": "AccessControlBadConfirmation",
      "type": "error"
    },
    {
      "inputs": [
        {
          "internalType": "address",
          "name": "account",
          "type": "address"
        },
        {
          "internalType": "bytes32",
          "name": "neededRole",
          "type": "bytes32"
        }
      ],
      "name": "AccessControlUnauthorizedAccount",
      "type": "error"
    },
    {
      "anonymous": false,
      "inputs": [
        {
          "indexed": true,
          "internalType": "uint256",
          "name": "appointmentId",
          "type": "uint256"
        },
        {
          "indexed": true,
          "internalType": "address",
          "name": "patient",
          "type": "address"
        },
        {
          "indexed": true,
          "internalType": "address",
          "name": "doctor",
          "type": "address"
        },
        {
          "indexed": false,
          "internalType": "uint256",
          "name": "time",
          "type": "uint256"
        },
        {
          "indexed": false,
          "internalType": "string",
          "name": "details",
          "type": "string"
        },
        {
          "indexed": false,
          "internalType": "address",
          "name": "scheduledBy",
          "type": "address"
        }
      ],
      "name": "AppointmentCreated",
      "type": "event"
    },
    {
      "anonymous": false,
      "inputs": [
        {
          "indexed": true,
          "internalType": "address",
          "name": "account",
          "type": "address"
        },
        {
          "indexed": true,
          "internalType": "address",
          "name": "admin",
          "type": "address"
        }
      ],
      "name": "DoctorAdded",
      "type": "event"
    },
    {
      "anonymous": false,
      "inputs": [
        {
          "indexed": true,
          "internalType": "address",
          "name": "patient",
          "type": "address"
        },
        {
          "indexed": true,
          "internalType": "address",
          "name": "doctor",
          "type": "address"
        },
        {
          "indexed": true,
          "internalType": "address",
          "name": "uploadedBy",
          "type": "address"
        },
        {
          "indexed": false,
          "internalType": "string",
          "name": "ipfsHash",
          "type": "string"
        },
        {
          "indexed": false,
          "internalType": "string",
          "name": "fileName",
          "type": "string"
        },
        {
          "indexed": false,
          "internalType": "uint256",
          "name": "timestamp",
          "type": "uint256"
        }
      ],
      "name": "RecordUploaded",
      "type": "event"
    },
    {
      "anonymous": false,
      "inputs": [
        {
          "indexed": true,
          "internalType": "bytes32",
          "name": "role",
          "type": "bytes32"
        },
        {
          "indexed": true,
          "internalType": "bytes32",
          "name": "previousAdminRole",
          "type": "bytes32"
        },
        {
          "indexed": true,
          "internalType": "bytes32",
          "name": "newAdminRole",
          "type": "bytes32"
        }
      ],
      "name": "RoleAdminChanged",
      "type": "event"
    },
    {
      "anonymous": false,
      "inputs": [
        {
          "indexed": true,
          "internalType": "bytes32",
          "name": "role",
          "type": "bytes32"
        },
        {
          "indexed": true,
          "internalType": "address",
          "name": "account",
          "type": "address"
        },
        {
          "indexed": true,
          "internalType": "address",
          "name": "sender",
          "type": "address"
        }
      ],
      "name": "RoleGranted",
      "type": "event"
    },
    {
      "anonymous": false,
      "inputs": [
        {
          "indexed": true,
          "internalType": "bytes32",
          "name": "role",
          "type": "bytes32"
        },
        {
          "indexed": true,
          "internalType": "address",
          "name": "account",
          "type": "address"
        },
        {
          "indexed": true,
          "internalType": "address",
          "name": "sender",
          "type": "address"
        }
      ],
      "name": "RoleRevoked",
      "type": "event"
    },
    {
      "inputs": [],
      "name": "DEFAULT_ADMIN_ROLE",
      "outputs": [
        {
          "internalType": "bytes32",
          "name": "",
          "type": "bytes32"
        }
      ],
      "stateMutability": "view",
      "type": "function"
    },
    {
      "inputs": [],
      "name": "DOCTOR_ROLE",
      "outputs": [
        {
          "internalType": "bytes32",
          "name": "",
          "type": "bytes32"
        }
      ],
      "stateMutability": "view",
      "type": "function"
    },
    {
      "inputs": [
        {
          "internalType": "address",
          "name": "account",
          "type": "address"
        }
      ],
      "name": "addDoctor",
      "outputs": [],
      "stateMutability": "nonpayable",
      "type": "function"
    },
    {
      "inputs": [
        {
          "internalType": "address",
          "name": "_doctor",
          "type": "address"
        },
        {
          "internalType": "uint256",
          "name": "_appointmentIndex",
          "type": "uint256"
        }
      ],
      "name": "cancelAppointment",
      "outputs": [],
      "stateMutability": "nonpayable",
      "type": "function"
    },
    {
      "inputs": [
        {
          "internalType": "address",
          "name": "_patient",
          "type": "address"
        },
        {
          "internalType": "address",
          "name": "_targetDoctor",
          "type": "address"
        },
        {
          "internalType": "uint256",
          "name": "_time",
          "type": "uint256"
        },
        {
          "internalType": "string",
          "name": "_details",
          "type": "string"
        }
      ],
      "name": "createAppointment",
      "outputs": [
        {
          "internalType": "uint256",
          "name": "",
          "type": "uint256"
        }
      ],
      "stateMutability": "nonpayable",
      "type": "function"
    },
    {
      "inputs": [
        {
          "internalType": "string",
          "name": "_patientId",
          "type": "string"
        },
        {
          "internalType": "string",
          "name": "_name",
          "type": "string"
        },
        {
          "internalType": "uint256",
          "name": "_age",
          "type": "uint256"
        },
        {
          "internalType": "string",
          "name": "_gender",
          "type": "string"
        },
        {
          "internalType": "string",
          "name": "_ipfsHash",
          "type": "string"
        }
      ],
      "name": "createPatient",
      "outputs": [
        {
          "internalType": "bool",
          "name": "",
          "type": "bool"
        }
      ],
      "stateMutability": "nonpayable",
      "type": "function"
    },
    {
      "inputs": [
        {
          "internalType": "address",
          "name": "_doctor",
          "type": "address"
        }
      ],
      "name": "getAppointmentsForDoctor",
      "outputs": [
        {
          "components": [
            {
              "internalType": "uint256",
              "name": "id",
              "type": "uint256"
            },
            {
              "internalType": "address",
              "name": "patient",
              "type": "address"
            },
            {
              "internalType": "address",
              "name": "doctor",
              "type": "address"
            },
            {
              "internalType": "uint256",
              "name": "time",
              "type": "uint256"
            },
            {
              "internalType": "string",
              "name": "details",
              "type": "string"
            },
            {
              "internalType": "address",
              "name": "scheduledBy",
              "type": "address"
            },
            {
              "internalType": "bool",
              "name": "isActive",
              "type": "bool"
            }
          ],
          "internalType": "struct HealthLink.Appointment[]",
          "name": "",
          "type": "tuple[]"
        }
      ],
      "stateMutability": "view",
      "type": "function"
    },
    {
      "inputs": [
        {
          "internalType": "address",
          "name": "_patient",
          "type": "address"
        }
      ],
      "name": "getAppointmentsForPatient",
      "outputs": [
        {
          "components": [
            {
              "internalType": "uint256",
              "name": "id",
              "type": "uint256"
            },
            {
              "internalType": "address",
              "name": "patient",
              "type": "address"
            },
            {
              "internalType": "address",
              "name": "doctor",
              "type": "address"
            },
            {
              "internalType": "uint256",
              "name": "time",
              "type": "uint256"
            },
            {
              "internalType": "string",
              "name": "details",
              "type": "string"
            },
            {
              "internalType": "address",
              "name": "scheduledBy",
              "type": "address"
            },
            {
              "internalType": "bool",
              "name": "isActive",
              "type": "bool"
            }
          ],
          "internalType": "struct HealthLink.Appointment[]",
          "name": "",
          "type": "tuple[]"
        }
      ],
      "stateMutability": "view",
      "type": "function"
    },
    {
      "inputs": [
        {
          "internalType": "string",
          "name": "_patientId",
          "type": "string"
        }
      ],
      "name": "getPatient",
      "outputs": [
        {
          "internalType": "string",
          "name": "patientId",
          "type": "string"
        },
        {
          "internalType": "string",
          "name": "publicData",
          "type": "string"
        },
        {
          "internalType": "bool",
          "name": "exists",
          "type": "bool"
        },
        {
          "internalType": "uint256",
          "name": "createdAt",
          "type": "uint256"
        }
      ],
      "stateMutability": "view",
      "type": "function"
    },
    {
      "inputs": [
        {
          "internalType": "address",
          "name": "_patient",
          "type": "address"
        }
      ],
      "name": "getRecordsForPatient",
      "outputs": [
        {
          "components": [
            {
              "internalType": "string",
              "name": "ipfsHash",
              "type": "string"
            },
            {
              "internalType": "string",
              "name": "fileName",
              "type": "string"
            },
            {
              "internalType": "address",
              "name": "patient",
              "type": "address"
            },
            {
              "internalType": "address",
              "name": "doctor",
              "type": "address"
            },
            {
              "internalType": "address",
              "name": "uploadedBy",
              "type": "address"
            },
            {
              "internalType": "uint256",
              "name": "timestamp",
              "type": "uint256"
            }
          ],
          "internalType": "struct HealthLink.Record[]",
          "name": "",
          "type": "tuple[]"
        }
      ],
      "stateMutability": "view",
      "type": "function"
    },
    {
      "inputs": [
        {
          "internalType": "bytes32",
          "name": "role",
          "type": "bytes32"
        }
      ],
      "name": "getRoleAdmin",
      "outputs": [
        {
          "internalType": "bytes32",
          "name": "",
          "type": "bytes32"
        }
      ],
      "stateMutability": "view",
      "type": "function"
    },
    {
      "inputs": [
        {
          "internalType": "bytes32",
          "name": "role",
          "type": "bytes32"
        },
        {
          "internalType": "address",
          "name": "account",
          "type": "address"
        }
      ],
      "name": "grantRole",
      "outputs": [],
      "stateMutability": "nonpayable",
      "type": "function"
    },
    {
      "inputs": [
        {
          "internalType": "bytes32",
          "name": "role",
          "type": "bytes32"
        },
        {
          "internalType": "address",
          "name": "account",
          "type": "address"
        }
      ],
      "name": "hasRole",
      "outputs": [
        {
          "internalType": "bool",
          "name": "",
          "type": "bool"
        }
      ],
      "stateMutability": "view",
      "type": "function"
    },
    {
      "inputs": [
        {
          "internalType": "bytes32",
          "name": "role",
          "type": "bytes32"
        },
        {
          "internalType": "address",
          "name": "callerConfirmation",
          "type": "address"
        }
      ],
      "name": "renounceRole",
      "outputs": [],
      "stateMutability": "nonpayable",
      "type": "function"
    },
    {
      "inputs": [
        {
          "internalType": "bytes32",
          "name": "role",
          "type": "bytes32"
        },
        {
          "internalType": "address",
          "name": "account",
          "type": "address"
        }
      ],
      "name": "revokeRole",
      "outputs": [],
      "stateMutability": "nonpayable",
      "type": "function"
    },
    {
      "inputs": [
        {
          "internalType": "bytes4",
          "name": "interfaceId",
          "type": "bytes4"
        }
      ],
      "name": "supportsInterface",
      "outputs": [
        {
          "internalType": "bool",
          "name": "",
          "type": "bool"
        }
      ],
      "stateMutability": "view",
      "type": "function"
    },
    {
      "inputs": [
        {
          "internalType": "string",
          "name": "_patientId",
          "type": "string"
        },
        {
          "internalType": "string",
          "name": "_updatedData",
          "type": "string"
        }
      ],
      "name": "updatePatientData",
      "outputs": [],
      "stateMutability": "nonpayable",
      "type": "function"
    },
    {
      "inputs": [
        {
          "internalType": "address",
          "name": "_patient",
          "type": "address"
        },
        {
          "internalType": "string",
          "name": "_ipfsHash",
          "type": "string"
        },
        {
          "internalType": "string",
          "name": "_fileName",
          "type": "string"
        },
        {
          "internalType": "address",
          "name": "_targetDoctor",
          "type": "address"
        }
      ],
      "name": "uploadRecord",
      "outputs": [
        {
          "internalType": "uint256",
          "name": "",
          "type": "uint256"
        }
      ],
      "stateMutability": "nonpayable",
      "type": "function"
    }
  ],
  "bytecode": "0x60806040523480156200001157600080fd5b50604051620026f9380380620026f983398101604081905262000034916200018e565b60006001600160a01b038216156200004d57816200004f565b335b90506200005e60008262000094565b506200008c7f0af1dac7dea2fd7f7738119cec7df099dfad49aa9d2e7d17ba6b60f63ae7411f600062000143565b5050620001c0565b6000828152602081815260408083206001600160a01b038516845290915281205460ff1662000139576000838152602081815260408083206001600160a01b03861684529091529020805460ff19166001179055620000f03390565b6001600160a01b0316826001600160a01b0316847f2f8788117e7eff1d82e926ec794901d17c78024a50270940304540a733656f0d60405160405180910390a45060016200013d565b5060005b92915050565b600082815260208190526040808220600101805490849055905190918391839186917fbd79b86ffe0ab8e8776151514217cd7cacd52c909f66475c3af44e129f0b00ff9190a4505050565b600060208284031215620001a157600080fd5b81516001600160a01b0381168114620001b957600080fd5b9392505050565b61252980620001d06000396000f3fe608060405234801561001057600080fd5b50600436106101155760003560e01c806365286a85116100a2578063e79a7a2e11610071578063e79a7a2e14610248578063f6541ab01461026b578063f96150131461028b578063fa88ab821461029e578063fec331f2146102b157600080fd5b806365286a851461020757806391d148541461021a578063a217fddf1461022d578063d547741f1461023557600080fd5b806324a58660116100e957806324a58660146101995780632f2ff15d146101ae57806336568abe146101c15780634780468f146101d45780634ea1558e146101e757600080fd5b8062d0252a1461011a57806301ffc9a7146101405780630f4f660814610163578063248a9ca314610176575b600080fd5b61012d610128366004611ac8565b6102c6565b6040519081526020015b60405180910390f35b61015361014e366004611b58565b610663565b6040519015158152602001610137565b610153610171366004611b89565b610674565b61012d610184366004611c59565b60009081526020819052604090206001015490565b6101ac6101a7366004611c72565b610895565b005b6101ac6101bc366004611cde565b6109e8565b6101ac6101cf366004611cde565b610a13565b6101ac6101e2366004611d0a565b610a4b565b6101fa6101f5366004611d0a565b610afe565b6040516101379190611d75565b61012d610215366004611e36565b610cd5565b610153610228366004611cde565b6110c9565b61012d600081565b6101ac610243366004611cde565b6110f2565b61025b610256366004611ea5565b611117565b6040516101379493929190611ee7565b61027e610279366004611d0a565b6112ad565b6040516101379190611f20565b61027e610299366004611d0a565b611413565b6101ac6102ac366004611fdf565b611579565b61012d6000805160206124d483398151915281565b60006001600160a01b0387166103235760405162461bcd60e51b815260206004820152601b60248201527f4865616c74684c696e6b3a20696e76616c69642070617469656e74000000000060448201526064015b60405180910390fd5b846103705760405162461bcd60e51b815260206004820152601e60248201527f4865616c74684c696e6b3a206970667320686173682072657175697265640000604482015260640161031a565b826103bd5760405162461bcd60e51b815260206004820152601d60248201527f4865616c74684c696e6b3a2066696c654e616d65207265717569726564000000604482015260640161031a565b60006103c981336110c9565b156103fb576001600160a01b0383166103f45760405162461bcd60e51b815260040161031a90612009565b508161048a565b6104136000805160206124d4833981519152336110c9565b61045f5760405162461bcd60e51b815260206004820181905260248201527f4865616c74684c696e6b3a206f6e6c7920646f63746f72206f722061646d696e604482015260640161031a565b6001600160a01b03831633146104875760405162461bcd60e51b815260040161031a90612055565b50335b6040805160e06020601f8a01819004028201810190925260c081018881526000928291908b908b9081908501838280828437600092019190915250505090825250604080516020601f8a018190048102820181019092528881529181019190899089908190840183828082843760009201829052509385525050506001600160a01b03808d1660208085018290529187166040808601919091523360608601524260809095019490945282526001808252928220805493840181558252902082519293508392600690920201908190610563908261213a565b5060208201516001820190610578908261213a565b506040828101516002830180546001600160a01b03199081166001600160a01b039384161790915560608501516003850180548316918416919091179055608085015160048501805490921690831617905560a090930151600590920191909155908a166000908152600160208190529181205490916105f791612210565b9050336001600160a01b0316836001600160a01b03168b6001600160a01b03167f4fad930a3fd2e8b189eef3216f78e36da6431b5ddd8266d5b812d15641099a998c8c8c8c4260405161064e95949392919061224c565b60405180910390a49998505050505050505050565b600061066e826117bb565b92915050565b600060048a8a604051610688929190612286565b9081526040519081900360200190206002015460ff16156106f65760405162461bcd60e51b815260206004820152602260248201527f4865616c74684c696e6b3a2070617469656e7420616c72656164792065786973604482015261747360f01b606482015260840161031a565b886107435760405162461bcd60e51b815260206004820152601f60248201527f4865616c74684c696e6b3a2070617469656e7420494420726571756972656400604482015260640161031a565b866107905760405162461bcd60e51b815260206004820152601960248201527f4865616c74684c696e6b3a206e616d6520726571756972656400000000000000604482015260640161031a565b6000888861079d896117f0565b888888886040516020016107b79796959493929190612296565b60408051601f1981840301815260a06020601f8f018190040284018101909252608083018d815290935082918e908e9081908501838280828437600092019190915250505090825250602081018390526001604080830191909152426060909201919091525160049061082d908e908e90612286565b9081526040519081900360200190208151819061084a908261213a565b506020820151600182019061085f908261213a565b50604082015160028201805460ff19169115159190911790556060909101516003909101555060019a9950505050505050505050565b600484846040516108a7929190612286565b9081526040519081900360200190206002015460ff166109145760405162461bcd60e51b815260206004820152602260248201527f4865616c74684c696e6b3a2070617469656e7420646f6573206e6f74206578696044820152611cdd60f21b606482015260840161031a565b61091f6000336110c9565b8061093d575061093d6000805160206124d4833981519152336110c9565b6109af5760405162461bcd60e51b815260206004820152603860248201527f4865616c74684c696e6b3a206f6e6c792061646d696e206f7220646f63746f7260448201527f2063616e207570646174652070617469656e7420646174610000000000000000606482015260840161031a565b8181600486866040516109c3929190612286565b908152602001604051809103902060010191826109e192919061234c565b5050505050565b600082815260208190526040902060010154610a038161191c565b610a0d8383611929565b50505050565b6001600160a01b0381163314610a3c5760405163334bd91960e11b815260040160405180910390fd5b610a4682826119bb565b505050565b6000610a568161191c565b6001600160a01b038216610aac5760405162461bcd60e51b815260206004820152601f60248201527f4865616c74684c696e6b3a20646f63746f722061646472657373207a65726f00604482015260640161031a565b610ac46000805160206124d4833981519152836109e8565b60405133906001600160a01b038416907f33bf928d86de7748634840213597b90fd2b04ffcf2c88fa2e8abcf3575836a1390600090a35050565b6001600160a01b0381166000908152600160209081526040808320805482518185028101850190935280835260609492939192909184015b82821015610cca57838290600052602060002090600602016040518060c0016040529081600082018054610b69906120b0565b80601f0160208091040260200160405190810160405280929190818152602001828054610b95906120b0565b8015610be25780601f10610bb757610100808354040283529160200191610be2565b820191906000526020600020905b815481529060010190602001808311610bc557829003601f168201915b50505050508152602001600182018054610bfb906120b0565b80601f0160208091040260200160405190810160405280929190818152602001828054610c27906120b0565b8015610c745780601f10610c4957610100808354040283529160200191610c74565b820191906000526020600020905b815481529060010190602001808311610c5757829003601f168201915b505050918352505060028201546001600160a01b03908116602080840191909152600384015482166040840152600484015490911660608301526005909201546080909101529082526001929092019101610b36565b505050509050919050565b60006001600160a01b038616610d2d5760405162461bcd60e51b815260206004820152601b60248201527f4865616c74684c696e6b3a20696e76616c69642070617469656e740000000000604482015260640161031a565b428411610d905760405162461bcd60e51b815260206004820152602b60248201527f4865616c74684c696e6b3a206170706f696e746d656e742074696d65206d757360448201526a742062652066757475726560a81b606482015260840161031a565b6000610d9c81336110c9565b15610dce576001600160a01b038616610dc75760405162461bcd60e51b815260040161031a90612009565b5084610e5d565b610de66000805160206124d4833981519152336110c9565b610e325760405162461bcd60e51b815260206004820181905260248201527f4865616c74684c696e6b3a206f6e6c7920646f63746f72206f722061646d696e604482015260640161031a565b6001600160a01b0386163314610e5a5760405162461bcd60e51b815260040161031a90612055565b50335b600160056000828254610e70919061240c565b925050819055506000600554905060006040518060e001604052808381526020018a6001600160a01b03168152602001846001600160a01b0316815260200188815260200187878080601f0160208091040260200160405190810160405280939291908181526020018383808284376000920182905250938552505033602080850191909152600160409485018190526001600160a01b0389811685526002808452868620805480850182559087529584902088516006909702019586559287015191850180549282166001600160a01b03199384161790559486015191840180549290951691161790925560608301516003820155608083015192935083929091506004820190610f82908261213a565b5060a08201516005909101805460c0909301511515600160a01b026001600160a81b03199093166001600160a01b03928316179290921790915589811660009081526003602081815260408084208054600181810183559186529483902087516006909602019485559186015191840180549286166001600160a01b0319938416179055850151600284018054919095169116179092556060830151918101919091556080820151829190600482019061103c908261213a565b5060a08201516005909101805460c0909301511515600160a01b026001600160a81b03199093166001600160a01b039283161792909217909155604051848216918b169084907f752052926ff4a466e2fc0cefce130e09aca2d6b016e5e90ba28af2b027617c62906110b5908c908c908c90339061241f565b60405180910390a450979650505050505050565b6000918252602082815260408084206001600160a01b0393909316845291905290205460ff1690565b60008281526020819052604090206001015461110d8161191c565b610a0d83836119bb565b606080600080600060048787604051611131929190612286565b908152602001604051809103902060405180608001604052908160008201805461115a906120b0565b80601f0160208091040260200160405190810160405280929190818152602001828054611186906120b0565b80156111d35780601f106111a8576101008083540402835291602001916111d3565b820191906000526020600020905b8154815290600101906020018083116111b657829003601f168201915b505050505081526020016001820180546111ec906120b0565b80601f0160208091040260200160405190810160405280929190818152602001828054611218906120b0565b80156112655780601f1061123a57610100808354040283529160200191611265565b820191906000526020600020905b81548152906001019060200180831161124857829003601f168201915b5050509183525050600282015460ff16151560208083019190915260039092015460409182015282519183015190830151606090930151919a90995091975095509350505050565b6001600160a01b0381166000908152600360209081526040808320805482518185028101850190935280835260609492939192909184015b82821015610cca5760008481526020908190206040805160e081018252600686029092018054835260018101546001600160a01b039081169484019490945260028101549093169082015260038201546060820152600482018054919291608084019190611352906120b0565b80601f016020809104026020016040519081016040528092919081815260200182805461137e906120b0565b80156113cb5780601f106113a0576101008083540402835291602001916113cb565b820191906000526020600020905b8154815290600101906020018083116113ae57829003601f168201915b5050509183525050600591909101546001600160a01b038116602080840191909152600160a01b90910460ff16151560409092019190915290825260019290920191016112e5565b6001600160a01b0381166000908152600260209081526040808320805482518185028101850190935280835260609492939192909184015b82821015610cca5760008481526020908190206040805160e081018252600686029092018054835260018101546001600160a01b0390811694840194909452600281015490931690820152600382015460608201526004820180549192916080840191906114b8906120b0565b80601f01602080910402602001604051908101604052809291908181526020018280546114e4906120b0565b80156115315780601f1061150657610100808354040283529160200191611531565b820191906000526020600020905b81548152906001019060200180831161151457829003601f168201915b5050509183525050600591909101546001600160a01b038116602080840191909152600160a01b90910460ff161515604090920191909152908252600192909201910161144b565b6001600160a01b0382166115cf5760405162461bcd60e51b815260206004820152601a60248201527f4865616c74684c696e6b3a20696e76616c696420646f63746f72000000000000604482015260640161031a565b6001600160a01b03821660009081526002602052604090205481106116445760405162461bcd60e51b815260206004820152602560248201527f4865616c74684c696e6b3a20696e76616c6964206170706f696e746d656e74206044820152640d2dcc8caf60db1b606482015260840161031a565b6001600160a01b038216600090815260026020526040812080548390811061166e5761166e612452565b9060005260206000209060060201905061168b6000801b336110c9565b61170e5760058101546001600160a01b03163314806116b6575060028101546001600160a01b031633145b61170e5760405162461bcd60e51b8152602060048201526024808201527f4865616c74684c696e6b3a206e6f7420617574686f72697a656420746f2063616044820152631b98d95b60e21b606482015260840161031a565b60058101805460ff60a01b1916905560018101546001600160a01b03166000908152600360205260408120905b81548110156109e157826000015482828154811061175b5761175b612452565b906000526020600020906006020160000154036117b357600082828154811061178657611786612452565b906000526020600020906006020160050160146101000a81548160ff0219169083151502179055506109e1565b60010161173b565b60006001600160e01b03198216637965db0b60e01b148061066e57506301ffc9a760e01b6001600160e01b031983161461066e565b6060816000036118175750506040805180820190915260018152600360fc1b602082015290565b8160005b8115611841578061182b81612468565b915061183a9050600a83612481565b915061181b565b60008167ffffffffffffffff81111561185c5761185c61209a565b6040519080825280601f01601f191660200182016040528015611886576020820181803683370190505b509050815b85156119135761189c600182612210565b905060006118ab600a88612481565b6118b690600a6124a3565b6118c09088612210565b6118cb9060306124ba565b905060008160f81b9050808484815181106118e8576118e8612452565b60200101906001600160f81b031916908160001a90535061190a600a89612481565b9750505061188b565b50949350505050565b6119268133611a26565b50565b600061193583836110c9565b6119b3576000838152602081815260408083206001600160a01b03861684529091529020805460ff1916600117905561196b3390565b6001600160a01b0316826001600160a01b0316847f2f8788117e7eff1d82e926ec794901d17c78024a50270940304540a733656f0d60405160405180910390a450600161066e565b50600061066e565b60006119c783836110c9565b156119b3576000838152602081815260408083206001600160a01b0386168085529252808320805460ff1916905551339286917ff6391f5c32d9c69d2a47ea670b442974b53935d1edc7fd64eb21e047a839171b9190a450600161066e565b611a3082826110c9565b611a5f5760405163e2517d3f60e01b81526001600160a01b03821660048201526024810183905260440161031a565b5050565b80356001600160a01b0381168114611a7a57600080fd5b919050565b60008083601f840112611a9157600080fd5b50813567ffffffffffffffff811115611aa957600080fd5b602083019150836020828501011115611ac157600080fd5b9250929050565b60008060008060008060808789031215611ae157600080fd5b611aea87611a63565b9550602087013567ffffffffffffffff80821115611b0757600080fd5b611b138a838b01611a7f565b90975095506040890135915080821115611b2c57600080fd5b50611b3989828a01611a7f565b9094509250611b4c905060608801611a63565b90509295509295509295565b600060208284031215611b6a57600080fd5b81356001600160e01b031981168114611b8257600080fd5b9392505050565b600080600080600080600080600060a08a8c031215611ba757600080fd5b893567ffffffffffffffff80821115611bbf57600080fd5b611bcb8d838e01611a7f565b909b50995060208c0135915080821115611be457600080fd5b611bf08d838e01611a7f565b909950975060408c0135965060608c0135915080821115611c1057600080fd5b611c1c8d838e01611a7f565b909650945060808c0135915080821115611c3557600080fd5b50611c428c828d01611a7f565b915080935050809150509295985092959850929598565b600060208284031215611c6b57600080fd5b5035919050565b60008060008060408587031215611c8857600080fd5b843567ffffffffffffffff80821115611ca057600080fd5b611cac88838901611a7f565b90965094506020870135915080821115611cc557600080fd5b50611cd287828801611a7f565b95989497509550505050565b60008060408385031215611cf157600080fd5b82359150611d0160208401611a63565b90509250929050565b600060208284031215611d1c57600080fd5b611b8282611a63565b60005b83811015611d40578181015183820152602001611d28565b50506000910152565b60008151808452611d61816020860160208601611d25565b601f01601f19169290920160200192915050565b600060208083018184528085518083526040925060408601915060408160051b87010184880160005b83811015611e2857603f19898403018552815160c08151818652611dc482870182611d49565b915050888201518582038a870152611ddc8282611d49565b898401516001600160a01b03908116888c01526060808601518216908901526080808601519091169088015260a093840151939096019290925250509386019390860190600101611d9e565b509098975050505050505050565b600080600080600060808688031215611e4e57600080fd5b611e5786611a63565b9450611e6560208701611a63565b935060408601359250606086013567ffffffffffffffff811115611e8857600080fd5b611e9488828901611a7f565b969995985093965092949392505050565b60008060208385031215611eb857600080fd5b823567ffffffffffffffff811115611ecf57600080fd5b611edb85828601611a7f565b90969095509350505050565b608081526000611efa6080830187611d49565b8281036020840152611f0c8187611d49565b941515604084015250506060015292915050565b600060208083018184528085518083526040925060408601915060408160051b87010184880160005b83811015611e2857888303603f19018552815180518452878101516001600160a01b0390811689860152878201518116888601526060808301519086015260808083015160e08288018190529290611fa384890182611d49565b93505060a0915080828501511682880152505060c0808301519250611fcb8187018415159052565b509588019593505090860190600101611f49565b60008060408385031215611ff257600080fd5b611ffb83611a63565b946020939093013593505050565b6020808252602c908201527f4865616c74684c696e6b3a2074617267657420646f63746f722072657175697260408201526b32b2103337b91030b236b4b760a11b606082015260800190565b60208082526025908201527f4865616c74684c696e6b3a20646f63746f72206d757374206265206d73672e7360408201526432b73232b960d91b606082015260800190565b634e487b7160e01b600052604160045260246000fd5b600181811c908216806120c457607f821691505b6020821081036120e457634e487b7160e01b600052602260045260246000fd5b50919050565b601f821115610a46576000816000526020600020601f850160051c810160208610156121135750805b601f850160051c820191505b818110156121325782815560010161211f565b505050505050565b815167ffffffffffffffff8111156121545761215461209a565b6121688161216284546120b0565b846120ea565b602080601f83116001811461219d57600084156121855750858301515b600019600386901b1c1916600185901b178555612132565b600085815260208120601f198616915b828110156121cc578886015182559484019460019091019084016121ad565b50858210156121ea5787850151600019600388901b60f8161c191681555b5050505050600190811b01905550565b634e487b7160e01b600052601160045260246000fd5b8181038181111561066e5761066e6121fa565b81835281816020850137506000828201602090810191909152601f909101601f19169091010190565b606081526000612260606083018789612223565b8281036020840152612273818688612223565b9150508260408301529695505050505050565b8183823760009101908152919050565b683d913730b6b2911d1160b91b815286886009830137600087820161088b60f21b806009830152651130b3b2911d60d11b600b83015288516122df816011850160208d01611d25565b600b60fa1b60119390910192830152691133b2b73232b9111d1160b11b60128301528688601c840137601c918701918201526b1134b83339a430b9b4111d1160a11b601e8201528385602a83013761227d60f01b9301602a8101939093525050602c019695505050505050565b67ffffffffffffffff8311156123645761236461209a565b6123788361237283546120b0565b836120ea565b6000601f8411600181146123ac57600085156123945750838201355b600019600387901b1c1916600186901b1783556109e1565b600083815260209020601f19861690835b828110156123dd57868501358255602094850194600190920191016123bd565b50868210156123fa5760001960f88860031b161c19848701351681555b505060018560011b0183555050505050565b8082018082111561066e5761066e6121fa565b848152606060208201526000612439606083018587612223565b905060018060a01b038316604083015295945050505050565b634e487b7160e01b600052603260045260246000fd5b60006001820161247a5761247a6121fa565b5060010190565b60008261249e57634e487b7160e01b600052601260045260246000fd5b500490565b808202811582820484141761066e5761066e6121fa565b60ff818116838216019081111561066e5761066e6121fa56fe0af1dac7dea2fd7f7738119cec7df099dfad49aa9d2e7d17ba6b60f63ae7411fa2646970667358221220f17373ff632872c3f93f04089e31cec173f8317f9abfab5e01e1b09d7f043c6c64736f6c63430008180033",
  "linkReferences": {},
  "deployedLinkReferences": {}
}