{
  "_format": "hh-sol-artifact-1",
  "contractName": "PatientRecords",
  "sourceName": "contracts/PatientRecords.sol",
  "abi": [
    {
      "inputs": [],
      "stateMutability": "nonpayable",
      "type": "constructor"
    },
    {
      "inputs": [],
      "name": "AccessControlBadConfirmation",
      "type": "error"
    },
    {
      "inputs": [
        {
          "internalType": "address",
          "name": "account",
          "type": "address"
        },
        {
          "internalType": "bytes32",
          "name": "neededRole",
          "type": "bytes32"
        }
      ],
      "name": "AccessControlUnauthorizedAccount",
      "type": "error"
    },
    {
      "inputs": [],
      "name": "ReentrancyGuardReentrantCall",
      "type": "error"
    },
    {
      "anonymous": false,
      "inputs": [
        {
          "indexed": true,
          "internalType": "string",
          "name": "recordId",
          "type": "string"
        },
        {
          "indexed": true,
          "internalType": "string",
          "name": "patientId",
          "type": "string"
        },
        {
          "indexed": false,
          "internalType": "string",
          "name": "doctorId",
          "type": "string"
        },
        {
          "indexed": false,
          "internalType": "string",
          "name": "recordType",
          "type": "string"
        },
        {
          "indexed": false,
          "internalType": "uint256",
          "name": "timestamp",
          "type": "uint256"
        }
      ],
      "name": "RecordCreated",
      "type": "event"
    },
    {
      "anonymous": false,
      "inputs": [
        {
          "indexed": true,
          "internalType": "string",
          "name": "recordId",
          "type": "string"
        },
        {
          "indexed": false,
          "internalType": "uint256",
          "name": "timestamp",
          "type": "uint256"
        }
      ],
      "name": "RecordDeleted",
      "type": "event"
    },
    {
      "anonymous": false,
      "inputs": [
        {
          "indexed": true,
          "internalType": "string",
          "name": "recordId",
          "type": "string"
        },
        {
          "indexed": false,
          "internalType": "uint256",
          "name": "timestamp",
          "type": "uint256"
        }
      ],
      "name": "RecordUpdated",
      "type": "event"
    },
    {
      "anonymous": false,
      "inputs": [
        {
          "indexed": true,
          "internalType": "bytes32",
          "name": "role",
          "type": "bytes32"
        },
        {
          "indexed": true,
          "internalType": "bytes32",
          "name": "previousAdminRole",
          "type": "bytes32"
        },
        {
          "indexed": true,
          "internalType": "bytes32",
          "name": "newAdminRole",
          "type": "bytes32"
        }
      ],
      "name": "RoleAdminChanged",
      "type": "event"
    },
    {
      "anonymous": false,
      "inputs": [
        {
          "indexed": true,
          "internalType": "bytes32",
          "name": "role",
          "type": "bytes32"
        },
        {
          "indexed": true,
          "internalType": "address",
          "name": "account",
          "type": "address"
        },
        {
          "indexed": true,
          "internalType": "address",
          "name": "sender",
          "type": "address"
        }
      ],
      "name": "RoleGranted",
      "type": "event"
    },
    {
      "anonymous": false,
      "inputs": [
        {
          "indexed": true,
          "internalType": "bytes32",
          "name": "role",
          "type": "bytes32"
        },
        {
          "indexed": true,
          "internalType": "address",
          "name": "account",
          "type": "address"
        },
        {
          "indexed": true,
          "internalType": "address",
          "name": "sender",
          "type": "address"
        }
      ],
      "name": "RoleRevoked",
      "type": "event"
    },
    {
      "inputs": [],
      "name": "ADMIN_ROLE",
      "outputs": [
        {
          "internalType": "bytes32",
          "name": "",
          "type": "bytes32"
        }
      ],
      "stateMutability": "view",
      "type": "function"
    },
    {
      "inputs": [],
      "name": "DEFAULT_ADMIN_ROLE",
      "outputs": [
        {
          "internalType": "bytes32",
          "name": "",
          "type": "bytes32"
        }
      ],
      "stateMutability": "view",
      "type": "function"
    },
    {
      "inputs": [],
      "name": "DOCTOR_ROLE",
      "outputs": [
        {
          "internalType": "bytes32",
          "name": "",
          "type": "bytes32"
        }
      ],
      "stateMutability": "view",
      "type": "function"
    },
    {
      "inputs": [],
      "name": "PATIENT_ROLE",
      "outputs": [
        {
          "internalType": "bytes32",
          "name": "",
          "type": "bytes32"
        }
      ],
      "stateMutability": "view",
      "type": "function"
    },
    {
      "inputs": [
        {
          "internalType": "string",
          "name": "_recordId",
          "type": "string"
        },
        {
          "internalType": "string",
          "name": "_patientId",
          "type": "string"
        },
        {
          "internalType": "string",
          "name": "_doctorId",
          "type": "string"
        },
        {
          "internalType": "string",
          "name": "_recordType",
          "type": "string"
        },
        {
          "internalType": "string",
          "name": "_ipfsHash",
          "type": "string"
        },
        {
          "internalType": "string",
          "name": "_metadata",
          "type": "string"
        }
      ],
      "name": "createRecord",
      "outputs": [],
      "stateMutability": "nonpayable",
      "type": "function"
    },
    {
      "inputs": [
        {
          "internalType": "string",
          "name": "_recordId",
          "type": "string"
        }
      ],
      "name": "deleteRecord",
      "outputs": [],
      "stateMutability": "nonpayable",
      "type": "function"
    },
    {
      "inputs": [
        {
          "internalType": "string",
          "name": "_patientId",
          "type": "string"
        }
      ],
      "name": "getPatientRecordCount",
      "outputs": [
        {
          "internalType": "uint256",
          "name": "",
          "type": "uint256"
        }
      ],
      "stateMutability": "view",
      "type": "function"
    },
    {
      "inputs": [
        {
          "internalType": "string",
          "name": "_recordId",
          "type": "string"
        }
      ],
      "name": "getRecord",
      "outputs": [
        {
          "components": [
            {
              "internalType": "string",
              "name": "recordId",
              "type": "string"
            },
            {
              "internalType": "string",
              "name": "patientId",
              "type": "string"
            },
            {
              "internalType": "string",
              "name": "doctorId",
              "type": "string"
            },
            {
              "internalType": "string",
              "name": "recordType",
              "type": "string"
            },
            {
              "internalType": "string",
              "name": "ipfsHash",
              "type": "string"
            },
            {
              "internalType": "string",
              "name": "metadata",
              "type": "string"
            },
            {
              "internalType": "uint256",
              "name": "createdAt",
              "type": "uint256"
            },
            {
              "internalType": "uint256",
              "name": "updatedAt",
              "type": "uint256"
            },
            {
              "internalType": "bool",
              "name": "exists",
              "type": "bool"
            }
          ],
          "internalType": "struct PatientRecords.MedicalRecord",
          "name": "",
          "type": "tuple"
        }
      ],
      "stateMutability": "view",
      "type": "function"
    },
    {
      "inputs": [
        {
          "internalType": "string",
          "name": "_patientId",
          "type": "string"
        }
      ],
      "name": "getRecordsByPatient",
      "outputs": [
        {
          "components": [
            {
              "internalType": "string",
              "name": "recordId",
              "type": "string"
            },
            {
              "internalType": "string",
              "name": "patientId",
              "type": "string"
            },
            {
              "internalType": "string",
              "name": "doctorId",
              "type": "string"
            },
            {
              "internalType": "string",
              "name": "recordType",
              "type": "string"
            },
            {
              "internalType": "string",
              "name": "ipfsHash",
              "type": "string"
            },
            {
              "internalType": "string",
              "name": "metadata",
              "type": "string"
            },
            {
              "internalType": "uint256",
              "name": "createdAt",
              "type": "uint256"
            },
            {
              "internalType": "uint256",
              "name": "updatedAt",
              "type": "uint256"
            },
            {
              "internalType": "bool",
              "name": "exists",
              "type": "bool"
            }
          ],
          "internalType": "struct PatientRecords.MedicalRecord[]",
          "name": "",
          "type": "tuple[]"
        }
      ],
      "stateMutability": "view",
      "type": "function"
    },
    {
      "inputs": [
        {
          "internalType": "bytes32",
          "name": "role",
          "type": "bytes32"
        }
      ],
      "name": "getRoleAdmin",
      "outputs": [
        {
          "internalType": "bytes32",
          "name": "",
          "type": "bytes32"
        }
      ],
      "stateMutability": "view",
      "type": "function"
    },
    {
      "inputs": [],
      "name": "getTotalRecords",
      "outputs": [
        {
          "internalType": "uint256",
          "name": "",
          "type": "uint256"
        }
      ],
      "stateMutability": "view",
      "type": "function"
    },
    {
      "inputs": [
        {
          "internalType": "address",
          "name": "_admin",
          "type": "address"
        }
      ],
      "name": "grantAdminRole",
      "outputs": [],
      "stateMutability": "nonpayable",
      "type": "function"
    },
    {
      "inputs": [
        {
          "internalType": "address",
          "name": "_doctor",
          "type": "address"
        }
      ],
      "name": "grantDoctorRole",
      "outputs": [],
      "stateMutability": "nonpayable",
      "type": "function"
    },
    {
      "inputs": [
        {
          "internalType": "address",
          "name": "_patient",
          "type": "address"
        }
      ],
      "name": "grantPatientRole",
      "outputs": [],
      "stateMutability": "nonpayable",
      "type": "function"
    },
    {
      "inputs": [
        {
          "internalType": "bytes32",
          "name": "role",
          "type": "bytes32"
        },
        {
          "internalType": "address",
          "name": "account",
          "type": "address"
        }
      ],
      "name": "grantRole",
      "outputs": [],
      "stateMutability": "nonpayable",
      "type": "function"
    },
    {
      "inputs": [
        {
          "internalType": "bytes32",
          "name": "role",
          "type": "bytes32"
        },
        {
          "internalType": "address",
          "name": "account",
          "type": "address"
        }
      ],
      "name": "hasRole",
      "outputs": [
        {
          "internalType": "bool",
          "name": "",
          "type": "bool"
        }
      ],
      "stateMutability": "view",
      "type": "function"
    },
    {
      "inputs": [
        {
          "internalType": "string",
          "name": "_recordId",
          "type": "string"
        }
      ],
      "name": "recordExists",
      "outputs": [
        {
          "internalType": "bool",
          "name": "",
          "type": "bool"
        }
      ],
      "stateMutability": "view",
      "type": "function"
    },
    {
      "inputs": [
        {
          "internalType": "bytes32",
          "name": "role",
          "type": "bytes32"
        },
        {
          "internalType": "address",
          "name": "callerConfirmation",
          "type": "address"
        }
      ],
      "name": "renounceRole",
      "outputs": [],
      "stateMutability": "nonpayable",
      "type": "function"
    },
    {
      "inputs": [
        {
          "internalType": "bytes32",
          "name": "role",
          "type": "bytes32"
        },
        {
          "internalType": "address",
          "name": "account",
          "type": "address"
        }
      ],
      "name": "revokeRole",
      "outputs": [],
      "stateMutability": "nonpayable",
      "type": "function"
    },
    {
      "inputs": [
        {
          "internalType": "bytes4",
          "name": "interfaceId",
          "type": "bytes4"
        }
      ],
      "name": "supportsInterface",
      "outputs": [
        {
          "internalType": "bool",
          "name": "",
          "type": "bool"
        }
      ],
      "stateMutability": "view",
      "type": "function"
    },
    {
      "inputs": [
        {
          "internalType": "string",
          "name": "_recordId",
          "type": "string"
        },
        {
          "internalType": "string",
          "name": "_metadata",
          "type": "string"
        }
      ],
      "name": "updateRecordMetadata",
      "outputs": [],
      "stateMutability": "nonpayable",
      "type": "function"
    }
  ],
  "bytecode": "0x60806040523480156200001157600080fd5b50600180556200002360003362000057565b50620000507fa49807205ce4d355092ef5a8a18f56e8913cf4a201fbe287825b095693c217753362000057565b5062000106565b6000828152602081815260408083206001600160a01b038516845290915281205460ff16620000fc576000838152602081815260408083206001600160a01b03861684529091529020805460ff19166001179055620000b33390565b6001600160a01b0316826001600160a01b0316847f2f8788117e7eff1d82e926ec794901d17c78024a50270940304540a733656f0d60405160405180910390a450600162000100565b5060005b92915050565b61212480620001166000396000f3fe608060405234801561001057600080fd5b50600436106101375760003560e01c806375b238fc116100b8578063ac5cb97d1161007c578063ac5cb97d14610290578063c634b78e146102b7578063d547741f146102ca578063d7552559146102dd578063fbc47d53146102f0578063fec331f21461030357600080fd5b806375b238fc1461022d578063789b7b46146102425780637f2df8b01461026257806391d1485414610275578063a217fddf1461028857600080fd5b80632f2ff15d116100ff5780632f2ff15d146101ce5780632f5635cc146101e15780633502f323146101f457806336568abe14610207578063540248f01461021a57600080fd5b806301ffc9a71461013c5780630aeacb5e1461016457806311dd884514610176578063248a9ca31461019657806329b2e412146101b9575b600080fd5b61014f61014a3660046118d3565b610318565b60405190151581526020015b60405180910390f35b6004545b60405190815260200161015b565b6101896101843660046119a7565b61034f565b60405161015b9190611b01565b6101686101a4366004611b14565b60009081526020819052604090206001015490565b6101cc6101c7366004611b2d565b610762565b005b6101cc6101dc366004611bad565b6108fc565b6101cc6101ef366004611bd9565b610927565b6101686102023660046119a7565b610957565b6101cc610215366004611bad565b61097f565b61014f6102283660046119a7565b6109b7565b6101686000805160206120cf83398151915281565b6102556102503660046119a7565b6109e5565b60405161015b9190611bf4565b6101cc610270366004611bd9565b610f3f565b61014f610283366004611bad565b610f81565b610168600081565b6101687f72606200fac42b7dc86b75901d61ecfab2a4a1a6eded478b97a428094891abed81565b6101cc6102c5366004611bd9565b610faa565b6101cc6102d8366004611bad565b610fcd565b6101cc6102eb366004611c58565b610ff2565b6101cc6102fe3660046119a7565b6113d8565b6101686000805160206120af83398151915281565b60006001600160e01b03198216637965db0b60e01b148061034957506301ffc9a760e01b6001600160e01b03198316145b92915050565b610357611837565b6002826040516103679190611d4d565b9081526040519081900360200190206008015460ff166103a25760405162461bcd60e51b815260040161039990611d69565b60405180910390fd5b6002826040516103b29190611d4d565b9081526020016040518091039020604051806101200160405290816000820180546103dc90611d98565b80601f016020809104026020016040519081016040528092919081815260200182805461040890611d98565b80156104555780601f1061042a57610100808354040283529160200191610455565b820191906000526020600020905b81548152906001019060200180831161043857829003601f168201915b5050505050815260200160018201805461046e90611d98565b80601f016020809104026020016040519081016040528092919081815260200182805461049a90611d98565b80156104e75780601f106104bc576101008083540402835291602001916104e7565b820191906000526020600020905b8154815290600101906020018083116104ca57829003601f168201915b5050505050815260200160028201805461050090611d98565b80601f016020809104026020016040519081016040528092919081815260200182805461052c90611d98565b80156105795780601f1061054e57610100808354040283529160200191610579565b820191906000526020600020905b81548152906001019060200180831161055c57829003601f168201915b5050505050815260200160038201805461059290611d98565b80601f01602080910402602001604051908101604052809291908181526020018280546105be90611d98565b801561060b5780601f106105e05761010080835404028352916020019161060b565b820191906000526020600020905b8154815290600101906020018083116105ee57829003601f168201915b5050505050815260200160048201805461062490611d98565b80601f016020809104026020016040519081016040528092919081815260200182805461065090611d98565b801561069d5780601f106106725761010080835404028352916020019161069d565b820191906000526020600020905b81548152906001019060200180831161068057829003601f168201915b505050505081526020016005820180546106b690611d98565b80601f01602080910402602001604051908101604052809291908181526020018280546106e290611d98565b801561072f5780601f106107045761010080835404028352916020019161072f565b820191906000526020600020905b81548152906001019060200180831161071257829003601f168201915b5050509183525050600682015460208201526007820154604082015260089091015460ff16151560609091015292915050565b61076a6116cd565b60028260405161077a9190611d4d565b9081526040519081900360200190206008015460ff166107ac5760405162461bcd60e51b815260040161039990611d69565b6107c46000805160206120cf83398151915233610f81565b806107e257506107e26000805160206120af83398151915233610f81565b6108545760405162461bcd60e51b815260206004820152603760248201527f556e617574686f72697a65643a204f6e6c792061646d696e73206f7220646f6360448201527f746f72732063616e20757064617465207265636f7264730000000000000000006064820152608401610399565b806002836040516108659190611d4d565b908152602001604051809103902060050190816108829190611e1a565b50426002836040516108949190611d4d565b908152604051908190036020018120600701919091556108b5908390611d4d565b604051908190038120428252907f200aa5b3f37ec0ad2966885b74884991dac6b79416007daa387f27875b1fe1f19060200160405180910390a26108f860018055565b5050565b600082815260208190526040902060010154610917816116f7565b6109218383611701565b50505050565b6000805160206120cf83398151915261093f816116f7565b6108f86000805160206120af833981519152836108fc565b60006003826040516109699190611d4d565b9081526040519081900360200190205492915050565b6001600160a01b03811633146109a85760405163334bd91960e11b815260040160405180910390fd5b6109b28282611793565b505050565b60006002826040516109c99190611d4d565b9081526040519081900360200190206008015460ff1692915050565b606060006003836040516109f99190611d4d565b9081526020016040518091039020805480602002602001604051908101604052809291908181526020016000905b82821015610ad3578382906000526020600020018054610a4690611d98565b80601f0160208091040260200160405190810160405280929190818152602001828054610a7290611d98565b8015610abf5780601f10610a9457610100808354040283529160200191610abf565b820191906000526020600020905b815481529060010190602001808311610aa257829003601f168201915b505050505081526020019060010190610a27565b5050505090506000815167ffffffffffffffff811115610af557610af5611904565b604051908082528060200260200182016040528015610b2e57816020015b610b1b611837565b815260200190600190039081610b135790505b50905060005b8251811015610f37576002838281518110610b5157610b51611eda565b6020026020010151604051610b669190611d4d565b908152602001604051809103902060405180610120016040529081600082018054610b9090611d98565b80601f0160208091040260200160405190810160405280929190818152602001828054610bbc90611d98565b8015610c095780601f10610bde57610100808354040283529160200191610c09565b820191906000526020600020905b815481529060010190602001808311610bec57829003601f168201915b50505050508152602001600182018054610c2290611d98565b80601f0160208091040260200160405190810160405280929190818152602001828054610c4e90611d98565b8015610c9b5780601f10610c7057610100808354040283529160200191610c9b565b820191906000526020600020905b815481529060010190602001808311610c7e57829003601f168201915b50505050508152602001600282018054610cb490611d98565b80601f0160208091040260200160405190810160405280929190818152602001828054610ce090611d98565b8015610d2d5780601f10610d0257610100808354040283529160200191610d2d565b820191906000526020600020905b815481529060010190602001808311610d1057829003601f168201915b50505050508152602001600382018054610d4690611d98565b80601f0160208091040260200160405190810160405280929190818152602001828054610d7290611d98565b8015610dbf5780601f10610d9457610100808354040283529160200191610dbf565b820191906000526020600020905b815481529060010190602001808311610da257829003601f168201915b50505050508152602001600482018054610dd890611d98565b80601f0160208091040260200160405190810160405280929190818152602001828054610e0490611d98565b8015610e515780601f10610e2657610100808354040283529160200191610e51565b820191906000526020600020905b815481529060010190602001808311610e3457829003601f168201915b50505050508152602001600582018054610e6a90611d98565b80601f0160208091040260200160405190810160405280929190818152602001828054610e9690611d98565b8015610ee35780601f10610eb857610100808354040283529160200191610ee3565b820191906000526020600020905b815481529060010190602001808311610ec657829003601f168201915b5050509183525050600682015460208201526007820154604082015260089091015460ff1615156060909101528251839083908110610f2457610f24611eda565b6020908102919091010152600101610b34565b509392505050565b6000805160206120cf833981519152610f57816116f7565b6108f87f72606200fac42b7dc86b75901d61ecfab2a4a1a6eded478b97a428094891abed836108fc565b6000918252602082815260408084206001600160a01b0393909316845291905290205460ff1690565b6000610fb5816116f7565b6108f86000805160206120cf833981519152836108fc565b600082815260208190526040902060010154610fe8816116f7565b6109218383611793565b610ffa6116cd565b6110126000805160206120cf83398151915233610f81565b8061103057506110306000805160206120af83398151915233610f81565b8061106057506110607f72606200fac42b7dc86b75901d61ecfab2a4a1a6eded478b97a428094891abed33610f81565b61109b5760405162461bcd60e51b815260206004820152600c60248201526b155b985d5d1a1bdc9a5e995960a21b6044820152606401610399565b6002866040516110ab9190611d4d565b9081526040519081900360200190206008015460ff16156111065760405162461bcd60e51b81526020600482015260156024820152745265636f726420616c72656164792065786973747360581b6044820152606401610399565b60008651116111575760405162461bcd60e51b815260206004820152601960248201527f5265636f72642049442063616e6e6f7420626520656d707479000000000000006044820152606401610399565b60008551116111a85760405162461bcd60e51b815260206004820152601a60248201527f50617469656e742049442063616e6e6f7420626520656d7074790000000000006044820152606401610399565b60405180610120016040528087815260200186815260200160008651116111f4576040518060400160405280600d81526020016c1cd95b198b5d5c1b1bd8591959609a1b8152506111f6565b855b8152602001848152602001838152602001828152602001428152602001428152602001600115158152506002876040516112309190611d4d565b9081526040519081900360200190208151819061124d9082611e1a565b50602082015160018201906112629082611e1a565b50604082015160028201906112779082611e1a565b506060820151600382019061128c9082611e1a565b50608082015160048201906112a19082611e1a565b5060a082015160058201906112b69082611e1a565b5060c0820151600682015560e08201516007820155610100909101516008909101805460ff19169115159190911790556040516003906112f7908790611d4d565b9081526040516020918190038201902080546001810182556000918252919020016113228782611e1a565b50600480546001810182556000919091527f8a35acfbc15ff81a39ae7d344fd709f28e8600b4aa8c65c6b64bfe7fe36bd19b0161135f8782611e1a565b508460405161136e9190611d4d565b6040518091039020866040516113849190611d4d565b60405180910390207fdc230c5e1569e688fa3b740b543e8b434a9c6cd064bb2a3fbbc3865759e9bacd8686426040516113bf93929190611ef0565b60405180910390a36113d060018055565b505050505050565b6113e06116cd565b6002816040516113f09190611d4d565b9081526040519081900360200190206008015460ff166114225760405162461bcd60e51b815260040161039990611d69565b61143a6000805160206120cf83398151915233610f81565b61149b5760405162461bcd60e51b815260206004820152602c60248201527f556e617574686f72697a65643a204f6e6c792061646d696e732063616e20646560448201526b6c657465207265636f72647360a01b6064820152608401610399565b60006002826040516114ad9190611d4d565b908152602001604051809103902060010180546114c990611d98565b80601f01602080910402602001604051908101604052809291908181526020018280546114f590611d98565b80156115425780601f1061151757610100808354040283529160200191611542565b820191906000526020600020905b81548152906001019060200180831161152557829003601f168201915b50505050509050600060038260405161155b9190611d4d565b9081526020016040518091039020905060005b815481101561164357838051906020012082828154811061159157611591611eda565b906000526020600020016040516115a89190611f26565b60405180910390200361163b57815482906115c590600190611f9c565b815481106115d5576115d5611eda565b906000526020600020018282815481106115f1576115f1611eda565b9060005260206000200190816116079190611fbd565b508180548061161857611618612098565b6001900381819060005260206000200160006116349190611885565b9055611643565b60010161156e565b5060006002846040516116569190611d4d565b908152604051908190036020018120600801805492151560ff1990931692909217909155611685908490611d4d565b604051908190038120428252907f0a9209b2d48d541b7c405a70317fe57ad90c03c5489cfb2bed8aba17a8eadb1f9060200160405180910390a250506116ca60018055565b50565b6002600154036116f057604051633ee5aeb560e01b815260040160405180910390fd5b6002600155565b6116ca81336117fe565b600061170d8383610f81565b61178b576000838152602081815260408083206001600160a01b03861684529091529020805460ff191660011790556117433390565b6001600160a01b0316826001600160a01b0316847f2f8788117e7eff1d82e926ec794901d17c78024a50270940304540a733656f0d60405160405180910390a4506001610349565b506000610349565b600061179f8383610f81565b1561178b576000838152602081815260408083206001600160a01b0386168085529252808320805460ff1916905551339286917ff6391f5c32d9c69d2a47ea670b442974b53935d1edc7fd64eb21e047a839171b9190a4506001610349565b6118088282610f81565b6108f85760405163e2517d3f60e01b81526001600160a01b038216600482015260248101839052604401610399565b60405180610120016040528060608152602001606081526020016060815260200160608152602001606081526020016060815260200160008152602001600081526020016000151581525090565b50805461189190611d98565b6000825580601f106118a1575050565b601f0160209004906000526020600020908101906116ca91905b808211156118cf57600081556001016118bb565b5090565b6000602082840312156118e557600080fd5b81356001600160e01b0319811681146118fd57600080fd5b9392505050565b634e487b7160e01b600052604160045260246000fd5b600082601f83011261192b57600080fd5b813567ffffffffffffffff8082111561194657611946611904565b604051601f8301601f19908116603f0116810190828211818310171561196e5761196e611904565b8160405283815286602085880101111561198757600080fd5b836020870160208301376000602085830101528094505050505092915050565b6000602082840312156119b957600080fd5b813567ffffffffffffffff8111156119d057600080fd5b6119dc8482850161191a565b949350505050565b60005b838110156119ff5781810151838201526020016119e7565b50506000910152565b60008151808452611a208160208601602086016119e4565b601f01601f19169290920160200192915050565b60006101208251818552611a4a82860182611a08565b91505060208301518482036020860152611a648282611a08565b91505060408301518482036040860152611a7e8282611a08565b91505060608301518482036060860152611a988282611a08565b91505060808301518482036080860152611ab28282611a08565b91505060a083015184820360a0860152611acc8282611a08565b91505060c083015160c085015260e083015160e085015261010080840151611af78287018215159052565b5090949350505050565b6020815260006118fd6020830184611a34565b600060208284031215611b2657600080fd5b5035919050565b60008060408385031215611b4057600080fd5b823567ffffffffffffffff80821115611b5857600080fd5b611b648683870161191a565b93506020850135915080821115611b7a57600080fd5b50611b878582860161191a565b9150509250929050565b80356001600160a01b0381168114611ba857600080fd5b919050565b60008060408385031215611bc057600080fd5b82359150611bd060208401611b91565b90509250929050565b600060208284031215611beb57600080fd5b6118fd82611b91565b600060208083016020845280855180835260408601915060408160051b87010192506020870160005b82811015611c4b57603f19888603018452611c39858351611a34565b94509285019290850190600101611c1d565b5092979650505050505050565b60008060008060008060c08789031215611c7157600080fd5b863567ffffffffffffffff80821115611c8957600080fd5b611c958a838b0161191a565b97506020890135915080821115611cab57600080fd5b611cb78a838b0161191a565b96506040890135915080821115611ccd57600080fd5b611cd98a838b0161191a565b95506060890135915080821115611cef57600080fd5b611cfb8a838b0161191a565b94506080890135915080821115611d1157600080fd5b611d1d8a838b0161191a565b935060a0890135915080821115611d3357600080fd5b50611d4089828a0161191a565b9150509295509295509295565b60008251611d5f8184602087016119e4565b9190910192915050565b602080825260159082015274149958dbdc9908191bd95cc81b9bdd08195e1a5cdd605a1b604082015260600190565b600181811c90821680611dac57607f821691505b602082108103611dcc57634e487b7160e01b600052602260045260246000fd5b50919050565b601f8211156109b2576000816000526020600020601f850160051c81016020861015611dfb5750805b601f850160051c820191505b818110156113d057828155600101611e07565b815167ffffffffffffffff811115611e3457611e34611904565b611e4881611e428454611d98565b84611dd2565b602080601f831160018114611e7d5760008415611e655750858301515b600019600386901b1c1916600185901b1785556113d0565b600085815260208120601f198616915b82811015611eac57888601518255948401946001909101908401611e8d565b5085821015611eca5787850151600019600388901b60f8161c191681555b5050505050600190811b01905550565b634e487b7160e01b600052603260045260246000fd5b606081526000611f036060830186611a08565b8281036020840152611f158186611a08565b915050826040830152949350505050565b6000808354611f3481611d98565b60018281168015611f4c5760018114611f6157611f90565b60ff1984168752821515830287019450611f90565b8760005260208060002060005b85811015611f875781548a820152908401908201611f6e565b50505082870194505b50929695505050505050565b8181038181111561034957634e487b7160e01b600052601160045260246000fd5b818103611fc8575050565b611fd28254611d98565b67ffffffffffffffff811115611fea57611fea611904565b611ff881611e428454611d98565b6000601f82116001811461202c57600083156120145750848201545b600019600385901b1c1916600184901b178455612091565b600085815260209020601f19841690600086815260209020845b838110156120665782860154825560019586019590910190602001612046565b50858310156120845781850154600019600388901b60f8161c191681555b50505060018360011b0184555b5050505050565b634e487b7160e01b600052603160045260246000fdfe0af1dac7dea2fd7f7738119cec7df099dfad49aa9d2e7d17ba6b60f63ae7411fa49807205ce4d355092ef5a8a18f56e8913cf4a201fbe287825b095693c21775a26469706673582212208e4935a5f1f23e72fc31843aef55d4706cbf4d2072e3dc22b53df88f1fb40f7b64736f6c63430008180033",
  "linkReferences": {},
  "deployedLinkReferences": {}
}