{
  "_format": "hh-sol-artifact-1",
  "contractName": "Prescriptions",
  "sourceName": "contracts/Prescriptions.sol",
  "abi": [
    {
      "inputs": [],
      "stateMutability": "nonpayable",
      "type": "constructor"
    },
    {
      "inputs": [],
      "name": "AccessControlBadConfirmation",
      "type": "error"
    },
    {
      "inputs": [
        {
          "internalType": "address",
          "name": "account",
          "type": "address"
        },
        {
          "internalType": "bytes32",
          "name": "neededRole",
          "type": "bytes32"
        }
      ],
      "name": "AccessControlUnauthorizedAccount",
      "type": "error"
    },
    {
      "inputs": [],
      "name": "ReentrancyGuardReentrantCall",
      "type": "error"
    },
    {
      "anonymous": false,
      "inputs": [
        {
          "indexed": true,
          "internalType": "string",
          "name": "prescriptionId",
          "type": "string"
        },
        {
          "indexed": false,
          "internalType": "uint256",
          "name": "timestamp",
          "type": "uint256"
        }
      ],
      "name": "PrescriptionCancelled",
      "type": "event"
    },
    {
      "anonymous": false,
      "inputs": [
        {
          "indexed": true,
          "internalType": "string",
          "name": "prescriptionId",
          "type": "string"
        },
        {
          "indexed": true,
          "internalType": "string",
          "name": "patientId",
          "type": "string"
        },
        {
          "indexed": true,
          "internalType": "string",
          "name": "doctorId",
          "type": "string"
        },
        {
          "indexed": false,
          "internalType": "string",
          "name": "medication",
          "type": "string"
        }
      ],
      "name": "PrescriptionCreated",
      "type": "event"
    },
    {
      "anonymous": false,
      "inputs": [
        {
          "indexed": true,
          "internalType": "string",
          "name": "prescriptionId",
          "type": "string"
        },
        {
          "indexed": false,
          "internalType": "uint256",
          "name": "timestamp",
          "type": "uint256"
        }
      ],
      "name": "PrescriptionExpired",
      "type": "event"
    },
    {
      "anonymous": false,
      "inputs": [
        {
          "indexed": true,
          "internalType": "string",
          "name": "prescriptionId",
          "type": "string"
        },
        {
          "indexed": false,
          "internalType": "string",
          "name": "filledBy",
          "type": "string"
        },
        {
          "indexed": false,
          "internalType": "uint256",
          "name": "timestamp",
          "type": "uint256"
        }
      ],
      "name": "PrescriptionFilled",
      "type": "event"
    },
    {
      "anonymous": false,
      "inputs": [
        {
          "indexed": true,
          "internalType": "bytes32",
          "name": "role",
          "type": "bytes32"
        },
        {
          "indexed": true,
          "internalType": "bytes32",
          "name": "previousAdminRole",
          "type": "bytes32"
        },
        {
          "indexed": true,
          "internalType": "bytes32",
          "name": "newAdminRole",
          "type": "bytes32"
        }
      ],
      "name": "RoleAdminChanged",
      "type": "event"
    },
    {
      "anonymous": false,
      "inputs": [
        {
          "indexed": true,
          "internalType": "bytes32",
          "name": "role",
          "type": "bytes32"
        },
        {
          "indexed": true,
          "internalType": "address",
          "name": "account",
          "type": "address"
        },
        {
          "indexed": true,
          "internalType": "address",
          "name": "sender",
          "type": "address"
        }
      ],
      "name": "RoleGranted",
      "type": "event"
    },
    {
      "anonymous": false,
      "inputs": [
        {
          "indexed": true,
          "internalType": "bytes32",
          "name": "role",
          "type": "bytes32"
        },
        {
          "indexed": true,
          "internalType": "address",
          "name": "account",
          "type": "address"
        },
        {
          "indexed": true,
          "internalType": "address",
          "name": "sender",
          "type": "address"
        }
      ],
      "name": "RoleRevoked",
      "type": "event"
    },
    {
      "inputs": [],
      "name": "ADMIN_ROLE",
      "outputs": [
        {
          "internalType": "bytes32",
          "name": "",
          "type": "bytes32"
        }
      ],
      "stateMutability": "view",
      "type": "function"
    },
    {
      "inputs": [],
      "name": "DEFAULT_ADMIN_ROLE",
      "outputs": [
        {
          "internalType": "bytes32",
          "name": "",
          "type": "bytes32"
        }
      ],
      "stateMutability": "view",
      "type": "function"
    },
    {
      "inputs": [],
      "name": "DOCTOR_ROLE",
      "outputs": [
        {
          "internalType": "bytes32",
          "name": "",
          "type": "bytes32"
        }
      ],
      "stateMutability": "view",
      "type": "function"
    },
    {
      "inputs": [],
      "name": "PATIENT_ROLE",
      "outputs": [
        {
          "internalType": "bytes32",
          "name": "",
          "type": "bytes32"
        }
      ],
      "stateMutability": "view",
      "type": "function"
    },
    {
      "inputs": [],
      "name": "PHARMACIST_ROLE",
      "outputs": [
        {
          "internalType": "bytes32",
          "name": "",
          "type": "bytes32"
        }
      ],
      "stateMutability": "view",
      "type": "function"
    },
    {
      "inputs": [
        {
          "internalType": "string",
          "name": "_prescriptionId",
          "type": "string"
        }
      ],
      "name": "cancelPrescription",
      "outputs": [],
      "stateMutability": "nonpayable",
      "type": "function"
    },
    {
      "inputs": [
        {
          "internalType": "string",
          "name": "_prescriptionId",
          "type": "string"
        },
        {
          "internalType": "string",
          "name": "_patientId",
          "type": "string"
        },
        {
          "internalType": "string",
          "name": "_doctorId",
          "type": "string"
        },
        {
          "internalType": "string",
          "name": "_medication",
          "type": "string"
        },
        {
          "internalType": "string",
          "name": "_dosage",
          "type": "string"
        },
        {
          "internalType": "string",
          "name": "_instructions",
          "type": "string"
        },
        {
          "internalType": "uint256",
          "name": "_expiryDate",
          "type": "uint256"
        }
      ],
      "name": "createPrescription",
      "outputs": [],
      "stateMutability": "nonpayable",
      "type": "function"
    },
    {
      "inputs": [
        {
          "internalType": "string",
          "name": "_prescriptionId",
          "type": "string"
        },
        {
          "internalType": "string",
          "name": "_pharmacistId",
          "type": "string"
        }
      ],
      "name": "fillPrescription",
      "outputs": [],
      "stateMutability": "nonpayable",
      "type": "function"
    },
    {
      "inputs": [
        {
          "internalType": "string",
          "name": "_prescriptionId",
          "type": "string"
        }
      ],
      "name": "getPrescription",
      "outputs": [
        {
          "components": [
            {
              "internalType": "string",
              "name": "prescriptionId",
              "type": "string"
            },
            {
              "internalType": "string",
              "name": "patientId",
              "type": "string"
            },
            {
              "internalType": "string",
              "name": "doctorId",
              "type": "string"
            },
            {
              "internalType": "string",
              "name": "medication",
              "type": "string"
            },
            {
              "internalType": "string",
              "name": "dosage",
              "type": "string"
            },
            {
              "internalType": "string",
              "name": "instructions",
              "type": "string"
            },
            {
              "internalType": "uint256",
              "name": "issuedDate",
              "type": "uint256"
            },
            {
              "internalType": "uint256",
              "name": "expiryDate",
              "type": "uint256"
            },
            {
              "internalType": "enum Prescriptions.PrescriptionStatus",
              "name": "status",
              "type": "uint8"
            },
            {
              "internalType": "string",
              "name": "filledBy",
              "type": "string"
            },
            {
              "internalType": "uint256",
              "name": "filledDate",
              "type": "uint256"
            },
            {
              "internalType": "string",
              "name": "qrCodeHash",
              "type": "string"
            },
            {
              "internalType": "bool",
              "name": "isDispensed",
              "type": "bool"
            },
            {
              "internalType": "uint256",
              "name": "createdAt",
              "type": "uint256"
            },
            {
              "internalType": "uint256",
              "name": "updatedAt",
              "type": "uint256"
            },
            {
              "internalType": "bool",
              "name": "exists",
              "type": "bool"
            }
          ],
          "internalType": "struct Prescriptions.Prescription",
          "name": "",
          "type": "tuple"
        }
      ],
      "stateMutability": "view",
      "type": "function"
    },
    {
      "inputs": [
        {
          "internalType": "string",
          "name": "_doctorId",
          "type": "string"
        }
      ],
      "name": "getPrescriptionsByDoctor",
      "outputs": [
        {
          "components": [
            {
              "internalType": "string",
              "name": "prescriptionId",
              "type": "string"
            },
            {
              "internalType": "string",
              "name": "patientId",
              "type": "string"
            },
            {
              "internalType": "string",
              "name": "doctorId",
              "type": "string"
            },
            {
              "internalType": "string",
              "name": "medication",
              "type": "string"
            },
            {
              "internalType": "string",
              "name": "dosage",
              "type": "string"
            },
            {
              "internalType": "string",
              "name": "instructions",
              "type": "string"
            },
            {
              "internalType": "uint256",
              "name": "issuedDate",
              "type": "uint256"
            },
            {
              "internalType": "uint256",
              "name": "expiryDate",
              "type": "uint256"
            },
            {
              "internalType": "enum Prescriptions.PrescriptionStatus",
              "name": "status",
              "type": "uint8"
            },
            {
              "internalType": "string",
              "name": "filledBy",
              "type": "string"
            },
            {
              "internalType": "uint256",
              "name": "filledDate",
              "type": "uint256"
            },
            {
              "internalType": "string",
              "name": "qrCodeHash",
              "type": "string"
            },
            {
              "internalType": "bool",
              "name": "isDispensed",
              "type": "bool"
            },
            {
              "internalType": "uint256",
              "name": "createdAt",
              "type": "uint256"
            },
            {
              "internalType": "uint256",
              "name": "updatedAt",
              "type": "uint256"
            },
            {
              "internalType": "bool",
              "name": "exists",
              "type": "bool"
            }
          ],
          "internalType": "struct Prescriptions.Prescription[]",
          "name": "",
          "type": "tuple[]"
        }
      ],
      "stateMutability": "view",
      "type": "function"
    },
    {
      "inputs": [
        {
          "internalType": "string",
          "name": "_patientId",
          "type": "string"
        }
      ],
      "name": "getPrescriptionsByPatient",
      "outputs": [
        {
          "components": [
            {
              "internalType": "string",
              "name": "prescriptionId",
              "type": "string"
            },
            {
              "internalType": "string",
              "name": "patientId",
              "type": "string"
            },
            {
              "internalType": "string",
              "name": "doctorId",
              "type": "string"
            },
            {
              "internalType": "string",
              "name": "medication",
              "type": "string"
            },
            {
              "internalType": "string",
              "name": "dosage",
              "type": "string"
            },
            {
              "internalType": "string",
              "name": "instructions",
              "type": "string"
            },
            {
              "internalType": "uint256",
              "name": "issuedDate",
              "type": "uint256"
            },
            {
              "internalType": "uint256",
              "name": "expiryDate",
              "type": "uint256"
            },
            {
              "internalType": "enum Prescriptions.PrescriptionStatus",
              "name": "status",
              "type": "uint8"
            },
            {
              "internalType": "string",
              "name": "filledBy",
              "type": "string"
            },
            {
              "internalType": "uint256",
              "name": "filledDate",
              "type": "uint256"
            },
            {
              "internalType": "string",
              "name": "qrCodeHash",
              "type": "string"
            },
            {
              "internalType": "bool",
              "name": "isDispensed",
              "type": "bool"
            },
            {
              "internalType": "uint256",
              "name": "createdAt",
              "type": "uint256"
            },
            {
              "internalType": "uint256",
              "name": "updatedAt",
              "type": "uint256"
            },
            {
              "internalType": "bool",
              "name": "exists",
              "type": "bool"
            }
          ],
          "internalType": "struct Prescriptions.Prescription[]",
          "name": "",
          "type": "tuple[]"
        }
      ],
      "stateMutability": "view",
      "type": "function"
    },
    {
      "inputs": [
        {
          "internalType": "bytes32",
          "name": "role",
          "type": "bytes32"
        }
      ],
      "name": "getRoleAdmin",
      "outputs": [
        {
          "internalType": "bytes32",
          "name": "",
          "type": "bytes32"
        }
      ],
      "stateMutability": "view",
      "type": "function"
    },
    {
      "inputs": [
        {
          "internalType": "address",
          "name": "_admin",
          "type": "address"
        }
      ],
      "name": "grantAdminRole",
      "outputs": [],
      "stateMutability": "nonpayable",
      "type": "function"
    },
    {
      "inputs": [
        {
          "internalType": "address",
          "name": "_doctor",
          "type": "address"
        }
      ],
      "name": "grantDoctorRole",
      "outputs": [],
      "stateMutability": "nonpayable",
      "type": "function"
    },
    {
      "inputs": [
        {
          "internalType": "address",
          "name": "_patient",
          "type": "address"
        }
      ],
      "name": "grantPatientRole",
      "outputs": [],
      "stateMutability": "nonpayable",
      "type": "function"
    },
    {
      "inputs": [
        {
          "internalType": "address",
          "name": "_pharmacist",
          "type": "address"
        }
      ],
      "name": "grantPharmacistRole",
      "outputs": [],
      "stateMutability": "nonpayable",
      "type": "function"
    },
    {
      "inputs": [
        {
          "internalType": "bytes32",
          "name": "role",
          "type": "bytes32"
        },
        {
          "internalType": "address",
          "name": "account",
          "type": "address"
        }
      ],
      "name": "grantRole",
      "outputs": [],
      "stateMutability": "nonpayable",
      "type": "function"
    },
    {
      "inputs": [
        {
          "internalType": "bytes32",
          "name": "role",
          "type": "bytes32"
        },
        {
          "internalType": "address",
          "name": "account",
          "type": "address"
        }
      ],
      "name": "hasRole",
      "outputs": [
        {
          "internalType": "bool",
          "name": "",
          "type": "bool"
        }
      ],
      "stateMutability": "view",
      "type": "function"
    },
    {
      "inputs": [
        {
          "internalType": "string",
          "name": "_prescriptionId",
          "type": "string"
        }
      ],
      "name": "markAsExpired",
      "outputs": [],
      "stateMutability": "nonpayable",
      "type": "function"
    },
    {
      "inputs": [
        {
          "internalType": "string",
          "name": "_prescriptionId",
          "type": "string"
        }
      ],
      "name": "prescriptionExists",
      "outputs": [
        {
          "internalType": "bool",
          "name": "",
          "type": "bool"
        }
      ],
      "stateMutability": "view",
      "type": "function"
    },
    {
      "inputs": [
        {
          "internalType": "bytes32",
          "name": "role",
          "type": "bytes32"
        },
        {
          "internalType": "address",
          "name": "callerConfirmation",
          "type": "address"
        }
      ],
      "name": "renounceRole",
      "outputs": [],
      "stateMutability": "nonpayable",
      "type": "function"
    },
    {
      "inputs": [
        {
          "internalType": "address",
          "name": "_pharmacist",
          "type": "address"
        }
      ],
      "name": "revokePharmacistRole",
      "outputs": [],
      "stateMutability": "nonpayable",
      "type": "function"
    },
    {
      "inputs": [
        {
          "internalType": "bytes32",
          "name": "role",
          "type": "bytes32"
        },
        {
          "internalType": "address",
          "name": "account",
          "type": "address"
        }
      ],
      "name": "revokeRole",
      "outputs": [],
      "stateMutability": "nonpayable",
      "type": "function"
    },
    {
      "inputs": [
        {
          "internalType": "bytes4",
          "name": "interfaceId",
          "type": "bytes4"
        }
      ],
      "name": "supportsInterface",
      "outputs": [
        {
          "internalType": "bool",
          "name": "",
          "type": "bool"
        }
      ],
      "stateMutability": "view",
      "type": "function"
    },
    {
      "inputs": [
        {
          "internalType": "string",
          "name": "_prescriptionId",
          "type": "string"
        },
        {
          "internalType": "string",
          "name": "_qrHash",
          "type": "string"
        }
      ],
      "name": "verifyPrescriptionQR",
      "outputs": [
        {
          "internalType": "bool",
          "name": "isValid",
          "type": "bool"
        }
      ],
      "stateMutability": "view",
      "type": "function"
    }
  ],
  "bytecode": "0x60806040523480156200001157600080fd5b50600180556200002360003362000057565b50620000507fa49807205ce4d355092ef5a8a18f56e8913cf4a201fbe287825b095693c217753362000057565b5062000106565b6000828152602081815260408083206001600160a01b038516845290915281205460ff16620000fc576000838152602081815260408083206001600160a01b03861684529091529020805460ff19166001179055620000b33390565b6001600160a01b0316826001600160a01b0316847f2f8788117e7eff1d82e926ec794901d17c78024a50270940304540a733656f0d60405160405180910390a450600162000100565b5060005b92915050565b6135d780620001166000396000f3fe608060405234801561001057600080fd5b50600436106101735760003560e01c80638fe816e4116100de578063c532d9fa11610097578063d0a43d9811610071578063d0a43d9814610363578063d547741f14610376578063dc00880a14610389578063fec331f21461039c57600080fd5b8063c532d9fa14610328578063c634b78e1461033d578063c77c99c51461035057600080fd5b80638fe816e4146102ad57806391d14854146102c05780639379244e146102d3578063a217fddf146102e6578063a44f154e146102ee578063ac5cb97d1461030157600080fd5b806336568abe1161013057806336568abe1461023957806356813d7e1461024c57806365e635551461025f57806375b238fc146102725780637f2df8b0146102875780638642727f1461029a57600080fd5b806301ffc9a71461017857806318c3a3ac146101a0578063248a9ca3146101c05780632b21e808146101f15780632f2ff15d146102115780632f5635cc14610226575b600080fd5b61018b610186366004612dad565b6103b1565b60405190151581526020015b60405180910390f35b6101b36101ae366004612e81565b6103e8565b604051610197919061308f565b6101e36101ce3660046130f3565b60009081526020819052604090206001015490565b604051908152602001610197565b6102046101ff366004612e81565b610ac8565b604051610197919061310c565b61022461021f36600461313b565b611061565b005b610224610234366004613167565b61108c565b61022461024736600461313b565b6110c0565b61022461025a366004612e81565b6110f8565b61018b61026d366004612e81565b6112c4565b6101e360008051602061356283398151915281565b610224610295366004613167565b6112f2565b6102246102a8366004613167565b611334565b6101b36102bb366004612e81565b611364565b61018b6102ce36600461313b565b611a3c565b6102246102e1366004613167565b611a65565b6101e3600081565b61018b6102fc366004613182565b611a95565b6101e37f72606200fac42b7dc86b75901d61ecfab2a4a1a6eded478b97a428094891abed81565b6101e360008051602061358283398151915281565b61022461034b366004613167565b6120a0565b61022461035e3660046131e6565b6120c3565b610224610371366004612e81565b61256c565b61022461038436600461313b565b612728565b610224610397366004613182565b61274d565b6101e360008051602061354283398151915281565b60006001600160e01b03198216637965db0b60e01b14806103e257506301ffc9a760e01b6001600160e01b03198316145b92915050565b606060006003836040516103fc91906132e6565b9081526020016040518091039020805480602002602001604051908101604052809291908181526020016000905b828210156104d657838290600052602060002001805461044990613302565b80601f016020809104026020016040519081016040528092919081815260200182805461047590613302565b80156104c25780601f10610497576101008083540402835291602001916104c2565b820191906000526020600020905b8154815290600101906020018083116104a557829003601f168201915b50505050508152602001906001019061042a565b5050505090506000815167ffffffffffffffff8111156104f8576104f8612dde565b60405190808252806020026020018201604052801561053157816020015b61051e612d1b565b8152602001906001900390816105165790505b50905060005b8251811015610ac05760028382815181106105545761055461333c565b602002602001015160405161056991906132e6565b90815260200160405180910390206040518061020001604052908160008201805461059390613302565b80601f01602080910402602001604051908101604052809291908181526020018280546105bf90613302565b801561060c5780601f106105e15761010080835404028352916020019161060c565b820191906000526020600020905b8154815290600101906020018083116105ef57829003601f168201915b5050505050815260200160018201805461062590613302565b80601f016020809104026020016040519081016040528092919081815260200182805461065190613302565b801561069e5780601f106106735761010080835404028352916020019161069e565b820191906000526020600020905b81548152906001019060200180831161068157829003601f168201915b505050505081526020016002820180546106b790613302565b80601f01602080910402602001604051908101604052809291908181526020018280546106e390613302565b80156107305780601f1061070557610100808354040283529160200191610730565b820191906000526020600020905b81548152906001019060200180831161071357829003601f168201915b5050505050815260200160038201805461074990613302565b80601f016020809104026020016040519081016040528092919081815260200182805461077590613302565b80156107c25780601f10610797576101008083540402835291602001916107c2565b820191906000526020600020905b8154815290600101906020018083116107a557829003601f168201915b505050505081526020016004820180546107db90613302565b80601f016020809104026020016040519081016040528092919081815260200182805461080790613302565b80156108545780601f1061082957610100808354040283529160200191610854565b820191906000526020600020905b81548152906001019060200180831161083757829003601f168201915b5050505050815260200160058201805461086d90613302565b80601f016020809104026020016040519081016040528092919081815260200182805461089990613302565b80156108e65780601f106108bb576101008083540402835291602001916108e6565b820191906000526020600020905b8154815290600101906020018083116108c957829003601f168201915b50505091835250506006820154602082015260078201546040820152600882015460609091019060ff16600381111561092157610921612f0e565b600381111561093257610932612f0e565b815260200160098201805461094690613302565b80601f016020809104026020016040519081016040528092919081815260200182805461097290613302565b80156109bf5780601f10610994576101008083540402835291602001916109bf565b820191906000526020600020905b8154815290600101906020018083116109a257829003601f168201915b50505050508152602001600a8201548152602001600b820180546109e290613302565b80601f0160208091040260200160405190810160405280929190818152602001828054610a0e90613302565b8015610a5b5780601f10610a3057610100808354040283529160200191610a5b565b820191906000526020600020905b815481529060010190602001808311610a3e57829003601f168201915b5050509183525050600c82015460ff90811615156020830152600d8301546040830152600e8301546060830152600f9092015490911615156080909101528251839083908110610aad57610aad61333c565b6020908102919091010152600101610537565b509392505050565b610ad0612d1b565b600282604051610ae091906132e6565b908152604051908190036020019020600f015460ff16610b1b5760405162461bcd60e51b8152600401610b1290613352565b60405180910390fd5b600282604051610b2b91906132e6565b908152602001604051809103902060405180610200016040529081600082018054610b5590613302565b80601f0160208091040260200160405190810160405280929190818152602001828054610b8190613302565b8015610bce5780601f10610ba357610100808354040283529160200191610bce565b820191906000526020600020905b815481529060010190602001808311610bb157829003601f168201915b50505050508152602001600182018054610be790613302565b80601f0160208091040260200160405190810160405280929190818152602001828054610c1390613302565b8015610c605780601f10610c3557610100808354040283529160200191610c60565b820191906000526020600020905b815481529060010190602001808311610c4357829003601f168201915b50505050508152602001600282018054610c7990613302565b80601f0160208091040260200160405190810160405280929190818152602001828054610ca590613302565b8015610cf25780601f10610cc757610100808354040283529160200191610cf2565b820191906000526020600020905b815481529060010190602001808311610cd557829003601f168201915b50505050508152602001600382018054610d0b90613302565b80601f0160208091040260200160405190810160405280929190818152602001828054610d3790613302565b8015610d845780601f10610d5957610100808354040283529160200191610d84565b820191906000526020600020905b815481529060010190602001808311610d6757829003601f168201915b50505050508152602001600482018054610d9d90613302565b80601f0160208091040260200160405190810160405280929190818152602001828054610dc990613302565b8015610e165780601f10610deb57610100808354040283529160200191610e16565b820191906000526020600020905b815481529060010190602001808311610df957829003601f168201915b50505050508152602001600582018054610e2f90613302565b80601f0160208091040260200160405190810160405280929190818152602001828054610e5b90613302565b8015610ea85780601f10610e7d57610100808354040283529160200191610ea8565b820191906000526020600020905b815481529060010190602001808311610e8b57829003601f168201915b50505091835250506006820154602082015260078201546040820152600882015460609091019060ff166003811115610ee357610ee3612f0e565b6003811115610ef457610ef4612f0e565b8152602001600982018054610f0890613302565b80601f0160208091040260200160405190810160405280929190818152602001828054610f3490613302565b8015610f815780601f10610f5657610100808354040283529160200191610f81565b820191906000526020600020905b815481529060010190602001808311610f6457829003601f168201915b50505050508152602001600a8201548152602001600b82018054610fa490613302565b80601f0160208091040260200160405190810160405280929190818152602001828054610fd090613302565b801561101d5780601f10610ff25761010080835404028352916020019161101d565b820191906000526020600020905b81548152906001019060200180831161100057829003601f168201915b5050509183525050600c82015460ff90811615156020830152600d8301546040830152600e8301546060830152600f90920154909116151560809091015292915050565b60008281526020819052604090206001015461107c81612a12565b6110868383612a1c565b50505050565b6000805160206135628339815191526110a481612a12565b6110bc60008051602061354283398151915283611061565b5050565b6001600160a01b03811633146110e95760405163334bd91960e11b815260040160405180910390fd5b6110f38282612aae565b505050565b611100612b19565b60028160405161111091906132e6565b908152604051908190036020019020600f015460ff166111425760405162461bcd60e51b8152600401610b1290613352565b61115a60008051602061356283398151915233611a3c565b80611178575061117860008051602061354283398151915233611a3c565b6111b35760405162461bcd60e51b815260206004820152600c60248201526b155b985d5d1a1bdc9a5e995960a21b6044820152606401610b12565b60006002826040516111c591906132e6565b9081526040519081900360200190206008015460ff1660038111156111ec576111ec612f0e565b146112095760405162461bcd60e51b8152600401610b1290613389565b6002808260405161121a91906132e6565b908152604051908190036020019020600801805460ff1916600183600381111561124657611246612f0e565b02179055504260028260405161125c91906132e6565b908152604051908190036020018120600e019190915561127d9082906132e6565b604051908190038120428252907f543f096761eb6f54b0dfe962b201d9a89f165b7c2f01ac8d52fa12449936086a906020015b60405180910390a26112c160018055565b50565b60006002826040516112d691906132e6565b908152604051908190036020019020600f015460ff1692915050565b60008051602061356283398151915261130a81612a12565b6110bc7f72606200fac42b7dc86b75901d61ecfab2a4a1a6eded478b97a428094891abed83611061565b60008051602061356283398151915261134c81612a12565b6110bc60008051602061358283398151915283612728565b6060600060048360405161137891906132e6565b9081526020016040518091039020805480602002602001604051908101604052809291908181526020016000905b828210156114525783829060005260206000200180546113c590613302565b80601f01602080910402602001604051908101604052809291908181526020018280546113f190613302565b801561143e5780601f106114135761010080835404028352916020019161143e565b820191906000526020600020905b81548152906001019060200180831161142157829003601f168201915b5050505050815260200190600101906113a6565b5050505090506000815167ffffffffffffffff81111561147457611474612dde565b6040519080825280602002602001820160405280156114ad57816020015b61149a612d1b565b8152602001906001900390816114925790505b50905060005b8251811015610ac05760028382815181106114d0576114d061333c565b60200260200101516040516114e591906132e6565b90815260200160405180910390206040518061020001604052908160008201805461150f90613302565b80601f016020809104026020016040519081016040528092919081815260200182805461153b90613302565b80156115885780601f1061155d57610100808354040283529160200191611588565b820191906000526020600020905b81548152906001019060200180831161156b57829003601f168201915b505050505081526020016001820180546115a190613302565b80601f01602080910402602001604051908101604052809291908181526020018280546115cd90613302565b801561161a5780601f106115ef5761010080835404028352916020019161161a565b820191906000526020600020905b8154815290600101906020018083116115fd57829003601f168201915b5050505050815260200160028201805461163390613302565b80601f016020809104026020016040519081016040528092919081815260200182805461165f90613302565b80156116ac5780601f10611681576101008083540402835291602001916116ac565b820191906000526020600020905b81548152906001019060200180831161168f57829003601f168201915b505050505081526020016003820180546116c590613302565b80601f01602080910402602001604051908101604052809291908181526020018280546116f190613302565b801561173e5780601f106117135761010080835404028352916020019161173e565b820191906000526020600020905b81548152906001019060200180831161172157829003601f168201915b5050505050815260200160048201805461175790613302565b80601f016020809104026020016040519081016040528092919081815260200182805461178390613302565b80156117d05780601f106117a5576101008083540402835291602001916117d0565b820191906000526020600020905b8154815290600101906020018083116117b357829003601f168201915b505050505081526020016005820180546117e990613302565b80601f016020809104026020016040519081016040528092919081815260200182805461181590613302565b80156118625780601f1061183757610100808354040283529160200191611862565b820191906000526020600020905b81548152906001019060200180831161184557829003601f168201915b50505091835250506006820154602082015260078201546040820152600882015460609091019060ff16600381111561189d5761189d612f0e565b60038111156118ae576118ae612f0e565b81526020016009820180546118c290613302565b80601f01602080910402602001604051908101604052809291908181526020018280546118ee90613302565b801561193b5780601f106119105761010080835404028352916020019161193b565b820191906000526020600020905b81548152906001019060200180831161191e57829003601f168201915b50505050508152602001600a8201548152602001600b8201805461195e90613302565b80601f016020809104026020016040519081016040528092919081815260200182805461198a90613302565b80156119d75780601f106119ac576101008083540402835291602001916119d7565b820191906000526020600020905b8154815290600101906020018083116119ba57829003601f168201915b5050509183525050600c82015460ff90811615156020830152600d8301546040830152600e8301546060830152600f9092015490911615156080909101528251839083908110611a2957611a2961333c565b60209081029190910101526001016114b3565b6000918252602082815260408084206001600160a01b0393909316845291905290205460ff1690565b600080516020613562833981519152611a7d81612a12565b6110bc60008051602061358283398151915283611061565b6000600283604051611aa791906132e6565b908152604051908190036020019020600f015460ff16611ad95760405162461bcd60e51b8152600401610b1290613352565b6000600284604051611aeb91906132e6565b908152602001604051809103902060405180610200016040529081600082018054611b1590613302565b80601f0160208091040260200160405190810160405280929190818152602001828054611b4190613302565b8015611b8e5780601f10611b6357610100808354040283529160200191611b8e565b820191906000526020600020905b815481529060010190602001808311611b7157829003601f168201915b50505050508152602001600182018054611ba790613302565b80601f0160208091040260200160405190810160405280929190818152602001828054611bd390613302565b8015611c205780601f10611bf557610100808354040283529160200191611c20565b820191906000526020600020905b815481529060010190602001808311611c0357829003601f168201915b50505050508152602001600282018054611c3990613302565b80601f0160208091040260200160405190810160405280929190818152602001828054611c6590613302565b8015611cb25780601f10611c8757610100808354040283529160200191611cb2565b820191906000526020600020905b815481529060010190602001808311611c9557829003601f168201915b50505050508152602001600382018054611ccb90613302565b80601f0160208091040260200160405190810160405280929190818152602001828054611cf790613302565b8015611d445780601f10611d1957610100808354040283529160200191611d44565b820191906000526020600020905b815481529060010190602001808311611d2757829003601f168201915b50505050508152602001600482018054611d5d90613302565b80601f0160208091040260200160405190810160405280929190818152602001828054611d8990613302565b8015611dd65780601f10611dab57610100808354040283529160200191611dd6565b820191906000526020600020905b815481529060010190602001808311611db957829003601f168201915b50505050508152602001600582018054611def90613302565b80601f0160208091040260200160405190810160405280929190818152602001828054611e1b90613302565b8015611e685780601f10611e3d57610100808354040283529160200191611e68565b820191906000526020600020905b815481529060010190602001808311611e4b57829003601f168201915b50505091835250506006820154602082015260078201546040820152600882015460609091019060ff166003811115611ea357611ea3612f0e565b6003811115611eb457611eb4612f0e565b8152602001600982018054611ec890613302565b80601f0160208091040260200160405190810160405280929190818152602001828054611ef490613302565b8015611f415780601f10611f1657610100808354040283529160200191611f41565b820191906000526020600020905b815481529060010190602001808311611f2457829003601f168201915b50505050508152602001600a8201548152602001600b82018054611f6490613302565b80601f0160208091040260200160405190810160405280929190818152602001828054611f9090613302565b8015611fdd5780601f10611fb257610100808354040283529160200191611fdd565b820191906000526020600020905b815481529060010190602001808311611fc057829003601f168201915b5050509183525050600c82015460ff9081161515602080840191909152600d8401546040840152600e8401546060840152600f909301541615156080909101528451858201206101608301518051920191909120919250146120435760009150506103e2565b6000816101000151600381111561205c5761205c612f0e565b1461206b5760009150506103e2565b806101800151156120805760009150506103e2565b8060e001514211156120965760009150506103e2565b5060019392505050565b60006120ab81612a12565b6110bc60008051602061356283398151915283611061565b6120cb612b19565b6120e360008051602061356283398151915233611a3c565b80612101575061210160008051602061354283398151915233611a3c565b6121735760405162461bcd60e51b815260206004820152603d60248201527f556e617574686f72697a65643a204f6e6c7920646f63746f7273206f7220616460448201527f6d696e732063616e2063726561746520707265736372697074696f6e730000006064820152608401610b12565b60028760405161218391906132e6565b908152604051908190036020019020600f015460ff16156121e65760405162461bcd60e51b815260206004820152601b60248201527f507265736372697074696f6e20616c72656164792065786973747300000000006044820152606401610b12565b42811161223f5760405162461bcd60e51b815260206004820152602160248201527f4578706972792064617465206d75737420626520696e207468652066757475726044820152606560f81b6064820152608401610b12565b6040518061020001604052808881526020018781526020018681526020018581526020018481526020018381526020014281526020018281526020016000600381111561228e5761228e612f0e565b8152602001604051806020016040528060008152508152602001600081526020016122b98942612b43565b8152602001600015158152602001428152602001428152602001600115158152506002886040516122ea91906132e6565b908152604051908190036020019020815181906123079082613410565b506020820151600182019061231c9082613410565b50604082015160028201906123319082613410565b50606082015160038201906123469082613410565b506080820151600482019061235b9082613410565b5060a082015160058201906123709082613410565b5060c0820151600682015560e0820151600782015561010082015160088201805460ff191660018360038111156123a9576123a9612f0e565b021790555061012082015160098201906123c39082613410565b50610140820151600a820155610160820151600b8201906123e49082613410565b50610180820151600c8201805491151560ff199283161790556101a0830151600d8301556101c0830151600e8301556101e090920151600f90910180549115159190921617905560405160039061243c9088906132e6565b9081526040516020918190038201902080546001810182556000918252919020016124678882613410565b5060048560405161247891906132e6565b9081526040516020918190038201902080546001810182556000918252919020016124a38882613410565b50600580546001810182556000919091527f036b6384b5eca791c62761152d0c79bb0604c104a5fb6f4eb0703f3154bb3db0016124e08882613410565b50846040516124ef91906132e6565b60405180910390208660405161250591906132e6565b60405180910390208860405161251b91906132e6565b60405180910390207f1e6dbc5c378cd2487405853a7cadd2590f15ab9915549d5e73e139fb6684785c8760405161255291906134d0565b60405180910390a461256360018055565b50505050505050565b612574612b19565b60028160405161258491906132e6565b908152604051908190036020019020600f015460ff166125b65760405162461bcd60e51b8152600401610b1290613352565b6002816040516125c691906132e6565b90815260200160405180910390206007015442116126265760405162461bcd60e51b815260206004820181905260248201527f507265736372697074696f6e20686173206e6f742065787069726564207965746044820152606401610b12565b600060028260405161263891906132e6565b9081526040519081900360200190206008015460ff16600381111561265f5761265f612f0e565b1461267c5760405162461bcd60e51b8152600401610b1290613389565b600360028260405161268e91906132e6565b908152604051908190036020019020600801805460ff191660018360038111156126ba576126ba612f0e565b0217905550426002826040516126d091906132e6565b908152604051908190036020018120600e01919091556126f19082906132e6565b604051908190038120428252907f0fc41bbe0797df83353b0e15c249503933aa6911b618d0db1649901c202a0851906020016112b0565b60008281526020819052604090206001015461274381612a12565b6110868383612aae565b612755612b19565b60028260405161276591906132e6565b908152604051908190036020019020600f015460ff166127975760405162461bcd60e51b8152600401610b1290613352565b6127af60008051602061358283398151915233611a3c565b806127cd57506127cd60008051602061356283398151915233611a3c565b6128375760405162461bcd60e51b815260206004820152603560248201527f556e617574686f72697a65643a204f6e6c7920706861726d6163697374732063604482015274616e2066696c6c20707265736372697074696f6e7360581b6064820152608401610b12565b600060028360405161284991906132e6565b9081526040519081900360200190206008015460ff16600381111561287057612870612f0e565b1461288d5760405162461bcd60e51b8152600401610b1290613389565b60028260405161289d91906132e6565b9081526020016040518091039020600701544211156128fe5760405162461bcd60e51b815260206004820152601860248201527f507265736372697074696f6e20686173206578706972656400000000000000006044820152606401610b12565b600160028360405161291091906132e6565b908152604051908190036020019020600801805460ff1916600183600381111561293c5761293c612f0e565b02179055508060028360405161295291906132e6565b9081526020016040518091039020600901908161296f9190613410565b504260028360405161298191906132e6565b9081526020016040518091039020600a0181905550426002836040516129a791906132e6565b908152604051908190036020018120600e01919091556129c89083906132e6565b60405180910390207ffc31fc6f04f05e32085b7c6d30d04a241e74ffd54ac68f72f4bde91c811693948242604051612a019291906134e3565b60405180910390a26110bc60018055565b6112c18133612b77565b6000612a288383611a3c565b612aa6576000838152602081815260408083206001600160a01b03861684529091529020805460ff19166001179055612a5e3390565b6001600160a01b0316826001600160a01b0316847f2f8788117e7eff1d82e926ec794901d17c78024a50270940304540a733656f0d60405160405180910390a45060016103e2565b5060006103e2565b6000612aba8383611a3c565b15612aa6576000838152602081815260408083206001600160a01b0386168085529252808320805460ff1916905551339286917ff6391f5c32d9c69d2a47ea670b442974b53935d1edc7fd64eb21e047a839171b9190a45060016103e2565b600260015403612b3c57604051633ee5aeb560e01b815260040160405180910390fd5b6002600155565b606082612b4f83612bb0565b604051602001612b60929190613505565b604051602081830303815290604052905092915050565b612b818282611a3c565b6110bc5760405163e2517d3f60e01b81526001600160a01b038216600482015260248101839052604401610b12565b60606000612bbd83612c43565b600101905060008167ffffffffffffffff811115612bdd57612bdd612dde565b6040519080825280601f01601f191660200182016040528015612c07576020820181803683370190505b5090508181016020015b600019016f181899199a1a9b1b9c1cb0b131b232b360811b600a86061a8153600a8504945084612c1157509392505050565b60008072184f03e93ff9f4daa797ed6e38ed64bf6a1f0160401b8310612c825772184f03e93ff9f4daa797ed6e38ed64bf6a1f0160401b830492506040015b6d04ee2d6d415b85acef81000000008310612cae576d04ee2d6d415b85acef8100000000830492506020015b662386f26fc100008310612ccc57662386f26fc10000830492506010015b6305f5e1008310612ce4576305f5e100830492506008015b6127108310612cf857612710830492506004015b60648310612d0a576064830492506002015b600a83106103e25760010192915050565b604051806102000160405280606081526020016060815260200160608152602001606081526020016060815260200160608152602001600081526020016000815260200160006003811115612d7257612d72612f0e565b815260200160608152602001600081526020016060815260200160001515815260200160008152602001600081526020016000151581525090565b600060208284031215612dbf57600080fd5b81356001600160e01b031981168114612dd757600080fd5b9392505050565b634e487b7160e01b600052604160045260246000fd5b600082601f830112612e0557600080fd5b813567ffffffffffffffff80821115612e2057612e20612dde565b604051601f8301601f19908116603f01168101908282118183101715612e4857612e48612dde565b81604052838152866020858801011115612e6157600080fd5b836020870160208301376000602085830101528094505050505092915050565b600060208284031215612e9357600080fd5b813567ffffffffffffffff811115612eaa57600080fd5b612eb684828501612df4565b949350505050565b60005b83811015612ed9578181015183820152602001612ec1565b50506000910152565b60008151808452612efa816020860160208601612ebe565b601f01601f19169290920160200192915050565b634e487b7160e01b600052602160045260246000fd5b60048110612f4257634e487b7160e01b600052602160045260246000fd5b9052565b60006102008251818552612f5c82860182612ee2565b91505060208301518482036020860152612f768282612ee2565b91505060408301518482036040860152612f908282612ee2565b91505060608301518482036060860152612faa8282612ee2565b91505060808301518482036080860152612fc48282612ee2565b91505060a083015184820360a0860152612fde8282612ee2565b91505060c083015160c085015260e083015160e08501526101008084015161300882870182612f24565b505061012080840151858303828701526130228382612ee2565b92505050610140808401518186015250610160808401518583038287015261304a8382612ee2565b92505050610180808401516130628287018215159052565b50506101a083810151908501526101c080840151908501526101e092830151151592909301919091525090565b600060208083016020845280855180835260408601915060408160051b87010192506020870160005b828110156130e657603f198886030184526130d4858351612f46565b945092850192908501906001016130b8565b5092979650505050505050565b60006020828403121561310557600080fd5b5035919050565b602081526000612dd76020830184612f46565b80356001600160a01b038116811461313657600080fd5b919050565b6000806040838503121561314e57600080fd5b8235915061315e6020840161311f565b90509250929050565b60006020828403121561317957600080fd5b612dd78261311f565b6000806040838503121561319557600080fd5b823567ffffffffffffffff808211156131ad57600080fd5b6131b986838701612df4565b935060208501359150808211156131cf57600080fd5b506131dc85828601612df4565b9150509250929050565b600080600080600080600060e0888a03121561320157600080fd5b873567ffffffffffffffff8082111561321957600080fd5b6132258b838c01612df4565b985060208a013591508082111561323b57600080fd5b6132478b838c01612df4565b975060408a013591508082111561325d57600080fd5b6132698b838c01612df4565b965060608a013591508082111561327f57600080fd5b61328b8b838c01612df4565b955060808a01359150808211156132a157600080fd5b6132ad8b838c01612df4565b945060a08a01359150808211156132c357600080fd5b506132d08a828b01612df4565b92505060c0880135905092959891949750929550565b600082516132f8818460208701612ebe565b9190910192915050565b600181811c9082168061331657607f821691505b60208210810361333657634e487b7160e01b600052602260045260246000fd5b50919050565b634e487b7160e01b600052603260045260246000fd5b6020808252601b908201527f507265736372697074696f6e20646f6573206e6f742065786973740000000000604082015260600190565b6020808252601a908201527f507265736372697074696f6e206973206e6f7420616374697665000000000000604082015260600190565b601f8211156110f3576000816000526020600020601f850160051c810160208610156133e95750805b601f850160051c820191505b81811015613408578281556001016133f5565b505050505050565b815167ffffffffffffffff81111561342a5761342a612dde565b61343e816134388454613302565b846133c0565b602080601f831160018114613473576000841561345b5750858301515b600019600386901b1c1916600185901b178555613408565b600085815260208120601f198616915b828110156134a257888601518255948401946001909101908401613483565b50858210156134c05787850151600019600388901b60f8161c191681555b5050505050600190811b01905550565b602081526000612dd76020830184612ee2565b6040815260006134f66040830185612ee2565b90508260208301529392505050565b60008351613517818460208801612ebe565b602d60f81b9083019081528351613535816001840160208801612ebe565b0160010194935050505056fe0af1dac7dea2fd7f7738119cec7df099dfad49aa9d2e7d17ba6b60f63ae7411fa49807205ce4d355092ef5a8a18f56e8913cf4a201fbe287825b095693c21775c2d498fa6734073871a6dde33c56174c52423804118e0d5b66171fad3494de68a2646970667358221220227282419f1cb3a7b2cf19b42177ce885ef178a4e25e2adafc1f3f9f59e3c25464736f6c63430008180033",
  "linkReferences": {},
  "deployedLinkReferences": {}
}