{
  "_format": "hh-sol-artifact-1",
  "contractName": "Prescriptions",
  "sourceName": "contracts/Prescriptions.sol",
  "abi": [
    {
      "inputs": [],
      "stateMutability": "nonpayable",
      "type": "constructor"
    },
    {
      "inputs": [],
      "name": "AccessControlBadConfirmation",
      "type": "error"
    },
    {
      "inputs": [
        {
          "internalType": "address",
          "name": "account",
          "type": "address"
        },
        {
          "internalType": "bytes32",
          "name": "neededRole",
          "type": "bytes32"
        }
      ],
      "name": "AccessControlUnauthorizedAccount",
      "type": "error"
    },
    {
      "inputs": [],
      "name": "ReentrancyGuardReentrantCall",
      "type": "error"
    },
    {
      "anonymous": false,
      "inputs": [
        {
          "indexed": true,
          "internalType": "string",
          "name": "prescriptionId",
          "type": "string"
        },
        {
          "indexed": false,
          "internalType": "uint256",
          "name": "timestamp",
          "type": "uint256"
        }
      ],
      "name": "PrescriptionCancelled",
      "type": "event"
    },
    {
      "anonymous": false,
      "inputs": [
        {
          "indexed": true,
          "internalType": "string",
          "name": "prescriptionId",
          "type": "string"
        },
        {
          "indexed": true,
          "internalType": "string",
          "name": "patientId",
          "type": "string"
        },
        {
          "indexed": true,
          "internalType": "string",
          "name": "doctorId",
          "type": "string"
        },
        {
          "indexed": false,
          "internalType": "string",
          "name": "medication",
          "type": "string"
        }
      ],
      "name": "PrescriptionCreated",
      "type": "event"
    },
    {
      "anonymous": false,
      "inputs": [
        {
          "indexed": true,
          "internalType": "string",
          "name": "prescriptionId",
          "type": "string"
        },
        {
          "indexed": false,
          "internalType": "uint256",
          "name": "timestamp",
          "type": "uint256"
        }
      ],
      "name": "PrescriptionExpired",
      "type": "event"
    },
    {
      "anonymous": false,
      "inputs": [
        {
          "indexed": true,
          "internalType": "string",
          "name": "prescriptionId",
          "type": "string"
        },
        {
          "indexed": false,
          "internalType": "string",
          "name": "filledBy",
          "type": "string"
        },
        {
          "indexed": false,
          "internalType": "uint256",
          "name": "timestamp",
          "type": "uint256"
        }
      ],
      "name": "PrescriptionFilled",
      "type": "event"
    },
    {
      "anonymous": false,
      "inputs": [
        {
          "indexed": true,
          "internalType": "bytes32",
          "name": "role",
          "type": "bytes32"
        },
        {
          "indexed": true,
          "internalType": "bytes32",
          "name": "previousAdminRole",
          "type": "bytes32"
        },
        {
          "indexed": true,
          "internalType": "bytes32",
          "name": "newAdminRole",
          "type": "bytes32"
        }
      ],
      "name": "RoleAdminChanged",
      "type": "event"
    },
    {
      "anonymous": false,
      "inputs": [
        {
          "indexed": true,
          "internalType": "bytes32",
          "name": "role",
          "type": "bytes32"
        },
        {
          "indexed": true,
          "internalType": "address",
          "name": "account",
          "type": "address"
        },
        {
          "indexed": true,
          "internalType": "address",
          "name": "sender",
          "type": "address"
        }
      ],
      "name": "RoleGranted",
      "type": "event"
    },
    {
      "anonymous": false,
      "inputs": [
        {
          "indexed": true,
          "internalType": "bytes32",
          "name": "role",
          "type": "bytes32"
        },
        {
          "indexed": true,
          "internalType": "address",
          "name": "account",
          "type": "address"
        },
        {
          "indexed": true,
          "internalType": "address",
          "name": "sender",
          "type": "address"
        }
      ],
      "name": "RoleRevoked",
      "type": "event"
    },
    {
      "inputs": [],
      "name": "ADMIN_ROLE",
      "outputs": [
        {
          "internalType": "bytes32",
          "name": "",
          "type": "bytes32"
        }
      ],
      "stateMutability": "view",
      "type": "function"
    },
    {
      "inputs": [],
      "name": "DEFAULT_ADMIN_ROLE",
      "outputs": [
        {
          "internalType": "bytes32",
          "name": "",
          "type": "bytes32"
        }
      ],
      "stateMutability": "view",
      "type": "function"
    },
    {
      "inputs": [],
      "name": "DOCTOR_ROLE",
      "outputs": [
        {
          "internalType": "bytes32",
          "name": "",
          "type": "bytes32"
        }
      ],
      "stateMutability": "view",
      "type": "function"
    },
    {
      "inputs": [],
      "name": "PATIENT_ROLE",
      "outputs": [
        {
          "internalType": "bytes32",
          "name": "",
          "type": "bytes32"
        }
      ],
      "stateMutability": "view",
      "type": "function"
    },
    {
      "inputs": [],
      "name": "PHARMACIST_ROLE",
      "outputs": [
        {
          "internalType": "bytes32",
          "name": "",
          "type": "bytes32"
        }
      ],
      "stateMutability": "view",
      "type": "function"
    },
    {
      "inputs": [
        {
          "internalType": "string",
          "name": "_prescriptionId",
          "type": "string"
        }
      ],
      "name": "cancelPrescription",
      "outputs": [],
      "stateMutability": "nonpayable",
      "type": "function"
    },
    {
      "inputs": [
        {
          "internalType": "string",
          "name": "_prescriptionId",
          "type": "string"
        },
        {
          "internalType": "string",
          "name": "_patientId",
          "type": "string"
        },
        {
          "internalType": "string",
          "name": "_doctorId",
          "type": "string"
        },
        {
          "internalType": "string",
          "name": "_medication",
          "type": "string"
        },
        {
          "internalType": "string",
          "name": "_dosage",
          "type": "string"
        },
        {
          "internalType": "string",
          "name": "_instructions",
          "type": "string"
        },
        {
          "internalType": "uint256",
          "name": "_expiryDate",
          "type": "uint256"
        }
      ],
      "name": "createPrescription",
      "outputs": [],
      "stateMutability": "nonpayable",
      "type": "function"
    },
    {
      "inputs": [
        {
          "internalType": "string",
          "name": "_prescriptionId",
          "type": "string"
        },
        {
          "internalType": "string",
          "name": "_pharmacistId",
          "type": "string"
        }
      ],
      "name": "fillPrescription",
      "outputs": [],
      "stateMutability": "nonpayable",
      "type": "function"
    },
    {
      "inputs": [
        {
          "internalType": "string",
          "name": "_prescriptionId",
          "type": "string"
        }
      ],
      "name": "getPrescription",
      "outputs": [
        {
          "components": [
            {
              "internalType": "string",
              "name": "prescriptionId",
              "type": "string"
            },
            {
              "internalType": "string",
              "name": "patientId",
              "type": "string"
            },
            {
              "internalType": "string",
              "name": "doctorId",
              "type": "string"
            },
            {
              "internalType": "string",
              "name": "medication",
              "type": "string"
            },
            {
              "internalType": "string",
              "name": "dosage",
              "type": "string"
            },
            {
              "internalType": "string",
              "name": "instructions",
              "type": "string"
            },
            {
              "internalType": "uint256",
              "name": "issuedDate",
              "type": "uint256"
            },
            {
              "internalType": "uint256",
              "name": "expiryDate",
              "type": "uint256"
            },
            {
              "internalType": "enum Prescriptions.PrescriptionStatus",
              "name": "status",
              "type": "uint8"
            },
            {
              "internalType": "string",
              "name": "filledBy",
              "type": "string"
            },
            {
              "internalType": "uint256",
              "name": "filledDate",
              "type": "uint256"
            },
            {
              "internalType": "uint256",
              "name": "createdAt",
              "type": "uint256"
            },
            {
              "internalType": "uint256",
              "name": "updatedAt",
              "type": "uint256"
            },
            {
              "internalType": "bool",
              "name": "exists",
              "type": "bool"
            }
          ],
          "internalType": "struct Prescriptions.Prescription",
          "name": "",
          "type": "tuple"
        }
      ],
      "stateMutability": "view",
      "type": "function"
    },
    {
      "inputs": [
        {
          "internalType": "string",
          "name": "_doctorId",
          "type": "string"
        }
      ],
      "name": "getPrescriptionsByDoctor",
      "outputs": [
        {
          "components": [
            {
              "internalType": "string",
              "name": "prescriptionId",
              "type": "string"
            },
            {
              "internalType": "string",
              "name": "patientId",
              "type": "string"
            },
            {
              "internalType": "string",
              "name": "doctorId",
              "type": "string"
            },
            {
              "internalType": "string",
              "name": "medication",
              "type": "string"
            },
            {
              "internalType": "string",
              "name": "dosage",
              "type": "string"
            },
            {
              "internalType": "string",
              "name": "instructions",
              "type": "string"
            },
            {
              "internalType": "uint256",
              "name": "issuedDate",
              "type": "uint256"
            },
            {
              "internalType": "uint256",
              "name": "expiryDate",
              "type": "uint256"
            },
            {
              "internalType": "enum Prescriptions.PrescriptionStatus",
              "name": "status",
              "type": "uint8"
            },
            {
              "internalType": "string",
              "name": "filledBy",
              "type": "string"
            },
            {
              "internalType": "uint256",
              "name": "filledDate",
              "type": "uint256"
            },
            {
              "internalType": "uint256",
              "name": "createdAt",
              "type": "uint256"
            },
            {
              "internalType": "uint256",
              "name": "updatedAt",
              "type": "uint256"
            },
            {
              "internalType": "bool",
              "name": "exists",
              "type": "bool"
            }
          ],
          "internalType": "struct Prescriptions.Prescription[]",
          "name": "",
          "type": "tuple[]"
        }
      ],
      "stateMutability": "view",
      "type": "function"
    },
    {
      "inputs": [
        {
          "internalType": "string",
          "name": "_patientId",
          "type": "string"
        }
      ],
      "name": "getPrescriptionsByPatient",
      "outputs": [
        {
          "components": [
            {
              "internalType": "string",
              "name": "prescriptionId",
              "type": "string"
            },
            {
              "internalType": "string",
              "name": "patientId",
              "type": "string"
            },
            {
              "internalType": "string",
              "name": "doctorId",
              "type": "string"
            },
            {
              "internalType": "string",
              "name": "medication",
              "type": "string"
            },
            {
              "internalType": "string",
              "name": "dosage",
              "type": "string"
            },
            {
              "internalType": "string",
              "name": "instructions",
              "type": "string"
            },
            {
              "internalType": "uint256",
              "name": "issuedDate",
              "type": "uint256"
            },
            {
              "internalType": "uint256",
              "name": "expiryDate",
              "type": "uint256"
            },
            {
              "internalType": "enum Prescriptions.PrescriptionStatus",
              "name": "status",
              "type": "uint8"
            },
            {
              "internalType": "string",
              "name": "filledBy",
              "type": "string"
            },
            {
              "internalType": "uint256",
              "name": "filledDate",
              "type": "uint256"
            },
            {
              "internalType": "uint256",
              "name": "createdAt",
              "type": "uint256"
            },
            {
              "internalType": "uint256",
              "name": "updatedAt",
              "type": "uint256"
            },
            {
              "internalType": "bool",
              "name": "exists",
              "type": "bool"
            }
          ],
          "internalType": "struct Prescriptions.Prescription[]",
          "name": "",
          "type": "tuple[]"
        }
      ],
      "stateMutability": "view",
      "type": "function"
    },
    {
      "inputs": [
        {
          "internalType": "bytes32",
          "name": "role",
          "type": "bytes32"
        }
      ],
      "name": "getRoleAdmin",
      "outputs": [
        {
          "internalType": "bytes32",
          "name": "",
          "type": "bytes32"
        }
      ],
      "stateMutability": "view",
      "type": "function"
    },
    {
      "inputs": [
        {
          "internalType": "address",
          "name": "_admin",
          "type": "address"
        }
      ],
      "name": "grantAdminRole",
      "outputs": [],
      "stateMutability": "nonpayable",
      "type": "function"
    },
    {
      "inputs": [
        {
          "internalType": "address",
          "name": "_doctor",
          "type": "address"
        }
      ],
      "name": "grantDoctorRole",
      "outputs": [],
      "stateMutability": "nonpayable",
      "type": "function"
    },
    {
      "inputs": [
        {
          "internalType": "address",
          "name": "_patient",
          "type": "address"
        }
      ],
      "name": "grantPatientRole",
      "outputs": [],
      "stateMutability": "nonpayable",
      "type": "function"
    },
    {
      "inputs": [
        {
          "internalType": "address",
          "name": "_pharmacist",
          "type": "address"
        }
      ],
      "name": "grantPharmacistRole",
      "outputs": [],
      "stateMutability": "nonpayable",
      "type": "function"
    },
    {
      "inputs": [
        {
          "internalType": "bytes32",
          "name": "role",
          "type": "bytes32"
        },
        {
          "internalType": "address",
          "name": "account",
          "type": "address"
        }
      ],
      "name": "grantRole",
      "outputs": [],
      "stateMutability": "nonpayable",
      "type": "function"
    },
    {
      "inputs": [
        {
          "internalType": "bytes32",
          "name": "role",
          "type": "bytes32"
        },
        {
          "internalType": "address",
          "name": "account",
          "type": "address"
        }
      ],
      "name": "hasRole",
      "outputs": [
        {
          "internalType": "bool",
          "name": "",
          "type": "bool"
        }
      ],
      "stateMutability": "view",
      "type": "function"
    },
    {
      "inputs": [
        {
          "internalType": "string",
          "name": "_prescriptionId",
          "type": "string"
        }
      ],
      "name": "markAsExpired",
      "outputs": [],
      "stateMutability": "nonpayable",
      "type": "function"
    },
    {
      "inputs": [
        {
          "internalType": "string",
          "name": "_prescriptionId",
          "type": "string"
        }
      ],
      "name": "prescriptionExists",
      "outputs": [
        {
          "internalType": "bool",
          "name": "",
          "type": "bool"
        }
      ],
      "stateMutability": "view",
      "type": "function"
    },
    {
      "inputs": [
        {
          "internalType": "bytes32",
          "name": "role",
          "type": "bytes32"
        },
        {
          "internalType": "address",
          "name": "callerConfirmation",
          "type": "address"
        }
      ],
      "name": "renounceRole",
      "outputs": [],
      "stateMutability": "nonpayable",
      "type": "function"
    },
    {
      "inputs": [
        {
          "internalType": "bytes32",
          "name": "role",
          "type": "bytes32"
        },
        {
          "internalType": "address",
          "name": "account",
          "type": "address"
        }
      ],
      "name": "revokeRole",
      "outputs": [],
      "stateMutability": "nonpayable",
      "type": "function"
    },
    {
      "inputs": [
        {
          "internalType": "bytes4",
          "name": "interfaceId",
          "type": "bytes4"
        }
      ],
      "name": "supportsInterface",
      "outputs": [
        {
          "internalType": "bool",
          "name": "",
          "type": "bool"
        }
      ],
      "stateMutability": "view",
      "type": "function"
    }
  ],
  "bytecode": "0x60806040523480156200001157600080fd5b50600180556200002360003362000057565b50620000507fa49807205ce4d355092ef5a8a18f56e8913cf4a201fbe287825b095693c217753362000057565b5062000106565b6000828152602081815260408083206001600160a01b038516845290915281205460ff16620000fc576000838152602081815260408083206001600160a01b03861684529091529020805460ff19166001179055620000b33390565b6001600160a01b0316826001600160a01b0316847f2f8788117e7eff1d82e926ec794901d17c78024a50270940304540a733656f0d60405160405180910390a450600162000100565b5060005b92915050565b612b1d80620001166000396000f3fe608060405234801561001057600080fd5b506004361061014d5760003560e01c80638fe816e4116100c3578063c634b78e1161007c578063c634b78e14610303578063c77c99c514610316578063d0a43d9814610329578063d547741f1461033c578063dc00880a1461034f578063fec331f21461036257600080fd5b80638fe816e41461027457806391d14854146102875780639379244e1461029a578063a217fddf146102ad578063ac5cb97d146102b5578063c532d9fa146102dc57600080fd5b80632f5635cc116101155780632f5635cc1461020057806336568abe1461021357806356813d7e1461022657806365e635551461023957806375b238fc1461024c5780637f2df8b01461026157600080fd5b806301ffc9a71461015257806318c3a3ac1461017a578063248a9ca31461019a5780632b21e808146101cb5780632f2ff15d146101eb575b600080fd5b610165610160366004612381565b610377565b60405190151581526020015b60405180910390f35b61018d610188366004612455565b6103ae565b6040516101719190612631565b6101bd6101a8366004612695565b60009081526020819052604090206001015490565b604051908152602001610171565b6101de6101d9366004612455565b6109eb565b60405161017191906126ae565b6101fe6101f93660046126dd565b610ee1565b005b6101fe61020e366004612709565b610f0c565b6101fe6102213660046126dd565b610f40565b6101fe610234366004612455565b610f78565b610165610247366004612455565b611144565b6101bd600080516020612ac883398151915281565b6101fe61026f366004612709565b611172565b61018d610282366004612455565b6111b4565b6101656102953660046126dd565b6117e9565b6101fe6102a8366004612709565b611812565b6101bd600081565b6101bd7f72606200fac42b7dc86b75901d61ecfab2a4a1a6eded478b97a428094891abed81565b6101bd7fc2d498fa6734073871a6dde33c56174c52423804118e0d5b66171fad3494de6881565b6101fe610311366004612709565b611854565b6101fe610324366004612724565b611877565b6101fe610337366004612455565b611cdd565b6101fe61034a3660046126dd565b611e99565b6101fe61035d366004612824565b611ebe565b6101bd600080516020612aa883398151915281565b60006001600160e01b03198216637965db0b60e01b14806103a857506301ffc9a760e01b6001600160e01b03198316145b92915050565b606060006003836040516103c29190612888565b9081526020016040518091039020805480602002602001604051908101604052809291908181526020016000905b8282101561049c57838290600052602060002001805461040f906128a4565b80601f016020809104026020016040519081016040528092919081815260200182805461043b906128a4565b80156104885780601f1061045d57610100808354040283529160200191610488565b820191906000526020600020905b81548152906001019060200180831161046b57829003601f168201915b5050505050815260200190600101906103f0565b5050505090506000815167ffffffffffffffff8111156104be576104be6123b2565b6040519080825280602002602001820160405280156104f757816020015b6104e46122ff565b8152602001906001900390816104dc5790505b50905060005b82518110156109e357600283828151811061051a5761051a6128de565b602002602001015160405161052f9190612888565b9081526020016040518091039020604051806101c0016040529081600082018054610559906128a4565b80601f0160208091040260200160405190810160405280929190818152602001828054610585906128a4565b80156105d25780601f106105a7576101008083540402835291602001916105d2565b820191906000526020600020905b8154815290600101906020018083116105b557829003601f168201915b505050505081526020016001820180546105eb906128a4565b80601f0160208091040260200160405190810160405280929190818152602001828054610617906128a4565b80156106645780601f1061063957610100808354040283529160200191610664565b820191906000526020600020905b81548152906001019060200180831161064757829003601f168201915b5050505050815260200160028201805461067d906128a4565b80601f01602080910402602001604051908101604052809291908181526020018280546106a9906128a4565b80156106f65780601f106106cb576101008083540402835291602001916106f6565b820191906000526020600020905b8154815290600101906020018083116106d957829003601f168201915b5050505050815260200160038201805461070f906128a4565b80601f016020809104026020016040519081016040528092919081815260200182805461073b906128a4565b80156107885780601f1061075d57610100808354040283529160200191610788565b820191906000526020600020905b81548152906001019060200180831161076b57829003601f168201915b505050505081526020016004820180546107a1906128a4565b80601f01602080910402602001604051908101604052809291908181526020018280546107cd906128a4565b801561081a5780601f106107ef5761010080835404028352916020019161081a565b820191906000526020600020905b8154815290600101906020018083116107fd57829003601f168201915b50505050508152602001600582018054610833906128a4565b80601f016020809104026020016040519081016040528092919081815260200182805461085f906128a4565b80156108ac5780601f10610881576101008083540402835291602001916108ac565b820191906000526020600020905b81548152906001019060200180831161088f57829003601f168201915b50505091835250506006820154602082015260078201546040820152600882015460609091019060ff1660038111156108e7576108e76124e2565b60038111156108f8576108f86124e2565b815260200160098201805461090c906128a4565b80601f0160208091040260200160405190810160405280929190818152602001828054610938906128a4565b80156109855780601f1061095a57610100808354040283529160200191610985565b820191906000526020600020905b81548152906001019060200180831161096857829003601f168201915b5050509183525050600a8201546020820152600b8201546040820152600c8201546060820152600d9091015460ff16151560809091015282518390839081106109d0576109d06128de565b60209081029190910101526001016104fd565b509392505050565b6109f36122ff565b600282604051610a039190612888565b908152604051908190036020019020600d015460ff16610a3e5760405162461bcd60e51b8152600401610a35906128f4565b60405180910390fd5b600282604051610a4e9190612888565b9081526020016040518091039020604051806101c0016040529081600082018054610a78906128a4565b80601f0160208091040260200160405190810160405280929190818152602001828054610aa4906128a4565b8015610af15780601f10610ac657610100808354040283529160200191610af1565b820191906000526020600020905b815481529060010190602001808311610ad457829003601f168201915b50505050508152602001600182018054610b0a906128a4565b80601f0160208091040260200160405190810160405280929190818152602001828054610b36906128a4565b8015610b835780601f10610b5857610100808354040283529160200191610b83565b820191906000526020600020905b815481529060010190602001808311610b6657829003601f168201915b50505050508152602001600282018054610b9c906128a4565b80601f0160208091040260200160405190810160405280929190818152602001828054610bc8906128a4565b8015610c155780601f10610bea57610100808354040283529160200191610c15565b820191906000526020600020905b815481529060010190602001808311610bf857829003601f168201915b50505050508152602001600382018054610c2e906128a4565b80601f0160208091040260200160405190810160405280929190818152602001828054610c5a906128a4565b8015610ca75780601f10610c7c57610100808354040283529160200191610ca7565b820191906000526020600020905b815481529060010190602001808311610c8a57829003601f168201915b50505050508152602001600482018054610cc0906128a4565b80601f0160208091040260200160405190810160405280929190818152602001828054610cec906128a4565b8015610d395780601f10610d0e57610100808354040283529160200191610d39565b820191906000526020600020905b815481529060010190602001808311610d1c57829003601f168201915b50505050508152602001600582018054610d52906128a4565b80601f0160208091040260200160405190810160405280929190818152602001828054610d7e906128a4565b8015610dcb5780601f10610da057610100808354040283529160200191610dcb565b820191906000526020600020905b815481529060010190602001808311610dae57829003601f168201915b50505091835250506006820154602082015260078201546040820152600882015460609091019060ff166003811115610e0657610e066124e2565b6003811115610e1757610e176124e2565b8152602001600982018054610e2b906128a4565b80601f0160208091040260200160405190810160405280929190818152602001828054610e57906128a4565b8015610ea45780601f10610e7957610100808354040283529160200191610ea4565b820191906000526020600020905b815481529060010190602001808311610e8757829003601f168201915b5050509183525050600a8201546020820152600b8201546040820152600c8201546060820152600d9091015460ff16151560809091015292915050565b600082815260208190526040902060010154610efc81612195565b610f06838361219f565b50505050565b600080516020612ac8833981519152610f2481612195565b610f3c600080516020612aa883398151915283610ee1565b5050565b6001600160a01b0381163314610f695760405163334bd91960e11b815260040160405180910390fd5b610f738282612231565b505050565b610f8061229c565b600281604051610f909190612888565b908152604051908190036020019020600d015460ff16610fc25760405162461bcd60e51b8152600401610a35906128f4565b610fda600080516020612ac8833981519152336117e9565b80610ff85750610ff8600080516020612aa8833981519152336117e9565b6110335760405162461bcd60e51b815260206004820152600c60248201526b155b985d5d1a1bdc9a5e995960a21b6044820152606401610a35565b60006002826040516110459190612888565b9081526040519081900360200190206008015460ff16600381111561106c5761106c6124e2565b146110895760405162461bcd60e51b8152600401610a359061292b565b6002808260405161109a9190612888565b908152604051908190036020019020600801805460ff191660018360038111156110c6576110c66124e2565b0217905550426002826040516110dc9190612888565b908152604051908190036020018120600c01919091556110fd908290612888565b604051908190038120428252907f543f096761eb6f54b0dfe962b201d9a89f165b7c2f01ac8d52fa12449936086a906020015b60405180910390a261114160018055565b50565b60006002826040516111569190612888565b908152604051908190036020019020600d015460ff1692915050565b600080516020612ac883398151915261118a81612195565b610f3c7f72606200fac42b7dc86b75901d61ecfab2a4a1a6eded478b97a428094891abed83610ee1565b606060006004836040516111c89190612888565b9081526020016040518091039020805480602002602001604051908101604052809291908181526020016000905b828210156112a2578382906000526020600020018054611215906128a4565b80601f0160208091040260200160405190810160405280929190818152602001828054611241906128a4565b801561128e5780601f106112635761010080835404028352916020019161128e565b820191906000526020600020905b81548152906001019060200180831161127157829003601f168201915b5050505050815260200190600101906111f6565b5050505090506000815167ffffffffffffffff8111156112c4576112c46123b2565b6040519080825280602002602001820160405280156112fd57816020015b6112ea6122ff565b8152602001906001900390816112e25790505b50905060005b82518110156109e3576002838281518110611320576113206128de565b60200260200101516040516113359190612888565b9081526020016040518091039020604051806101c001604052908160008201805461135f906128a4565b80601f016020809104026020016040519081016040528092919081815260200182805461138b906128a4565b80156113d85780601f106113ad576101008083540402835291602001916113d8565b820191906000526020600020905b8154815290600101906020018083116113bb57829003601f168201915b505050505081526020016001820180546113f1906128a4565b80601f016020809104026020016040519081016040528092919081815260200182805461141d906128a4565b801561146a5780601f1061143f5761010080835404028352916020019161146a565b820191906000526020600020905b81548152906001019060200180831161144d57829003601f168201915b50505050508152602001600282018054611483906128a4565b80601f01602080910402602001604051908101604052809291908181526020018280546114af906128a4565b80156114fc5780601f106114d1576101008083540402835291602001916114fc565b820191906000526020600020905b8154815290600101906020018083116114df57829003601f168201915b50505050508152602001600382018054611515906128a4565b80601f0160208091040260200160405190810160405280929190818152602001828054611541906128a4565b801561158e5780601f106115635761010080835404028352916020019161158e565b820191906000526020600020905b81548152906001019060200180831161157157829003601f168201915b505050505081526020016004820180546115a7906128a4565b80601f01602080910402602001604051908101604052809291908181526020018280546115d3906128a4565b80156116205780601f106115f557610100808354040283529160200191611620565b820191906000526020600020905b81548152906001019060200180831161160357829003601f168201915b50505050508152602001600582018054611639906128a4565b80601f0160208091040260200160405190810160405280929190818152602001828054611665906128a4565b80156116b25780601f10611687576101008083540402835291602001916116b2565b820191906000526020600020905b81548152906001019060200180831161169557829003601f168201915b50505091835250506006820154602082015260078201546040820152600882015460609091019060ff1660038111156116ed576116ed6124e2565b60038111156116fe576116fe6124e2565b8152602001600982018054611712906128a4565b80601f016020809104026020016040519081016040528092919081815260200182805461173e906128a4565b801561178b5780601f106117605761010080835404028352916020019161178b565b820191906000526020600020905b81548152906001019060200180831161176e57829003601f168201915b5050509183525050600a8201546020820152600b8201546040820152600c8201546060820152600d9091015460ff16151560809091015282518390839081106117d6576117d66128de565b6020908102919091010152600101611303565b6000918252602082815260408084206001600160a01b0393909316845291905290205460ff1690565b600080516020612ac883398151915261182a81612195565b610f3c7fc2d498fa6734073871a6dde33c56174c52423804118e0d5b66171fad3494de6883610ee1565b600061185f81612195565b610f3c600080516020612ac883398151915283610ee1565b61187f61229c565b611897600080516020612ac8833981519152336117e9565b806118b557506118b5600080516020612aa8833981519152336117e9565b6119275760405162461bcd60e51b815260206004820152603d60248201527f556e617574686f72697a65643a204f6e6c7920646f63746f7273206f7220616460448201527f6d696e732063616e2063726561746520707265736372697074696f6e730000006064820152608401610a35565b6002876040516119379190612888565b908152604051908190036020019020600d015460ff161561199a5760405162461bcd60e51b815260206004820152601b60248201527f507265736372697074696f6e20616c72656164792065786973747300000000006044820152606401610a35565b4281116119f35760405162461bcd60e51b815260206004820152602160248201527f4578706972792064617465206d75737420626520696e207468652066757475726044820152606560f81b6064820152608401610a35565b604051806101c0016040528088815260200187815260200186815260200185815260200184815260200183815260200142815260200182815260200160006003811115611a4257611a426124e2565b81526020016040518060200160405280600081525081526020016000815260200142815260200142815260200160011515815250600288604051611a869190612888565b90815260405190819003602001902081518190611aa390826129b2565b5060208201516001820190611ab890826129b2565b5060408201516002820190611acd90826129b2565b5060608201516003820190611ae290826129b2565b5060808201516004820190611af790826129b2565b5060a08201516005820190611b0c90826129b2565b5060c0820151600682015560e0820151600782015561010082015160088201805460ff19166001836003811115611b4557611b456124e2565b02179055506101208201516009820190611b5f90826129b2565b50610140820151600a820155610160820151600b820155610180820151600c8201556101a090910151600d909101805460ff1916911515919091179055604051600390611bad908890612888565b908152604051602091819003820190208054600181018255600091825291902001611bd888826129b2565b50600485604051611be99190612888565b908152604051602091819003820190208054600181018255600091825291902001611c1488826129b2565b50600580546001810182556000919091527f036b6384b5eca791c62761152d0c79bb0604c104a5fb6f4eb0703f3154bb3db001611c5188826129b2565b5084604051611c609190612888565b604051809103902086604051611c769190612888565b604051809103902088604051611c8c9190612888565b60405180910390207f1e6dbc5c378cd2487405853a7cadd2590f15ab9915549d5e73e139fb6684785c87604051611cc39190612a72565b60405180910390a4611cd460018055565b50505050505050565b611ce561229c565b600281604051611cf59190612888565b908152604051908190036020019020600d015460ff16611d275760405162461bcd60e51b8152600401610a35906128f4565b600281604051611d379190612888565b9081526020016040518091039020600701544211611d975760405162461bcd60e51b815260206004820181905260248201527f507265736372697074696f6e20686173206e6f742065787069726564207965746044820152606401610a35565b6000600282604051611da99190612888565b9081526040519081900360200190206008015460ff166003811115611dd057611dd06124e2565b14611ded5760405162461bcd60e51b8152600401610a359061292b565b6003600282604051611dff9190612888565b908152604051908190036020019020600801805460ff19166001836003811115611e2b57611e2b6124e2565b021790555042600282604051611e419190612888565b908152604051908190036020018120600c0191909155611e62908290612888565b604051908190038120428252907f0fc41bbe0797df83353b0e15c249503933aa6911b618d0db1649901c202a085190602001611130565b600082815260208190526040902060010154611eb481612195565b610f068383612231565b611ec661229c565b600282604051611ed69190612888565b908152604051908190036020019020600d015460ff16611f085760405162461bcd60e51b8152600401610a35906128f4565b611f327fc2d498fa6734073871a6dde33c56174c52423804118e0d5b66171fad3494de68336117e9565b80611f505750611f50600080516020612ac8833981519152336117e9565b611fba5760405162461bcd60e51b815260206004820152603560248201527f556e617574686f72697a65643a204f6e6c7920706861726d6163697374732063604482015274616e2066696c6c20707265736372697074696f6e7360581b6064820152608401610a35565b6000600283604051611fcc9190612888565b9081526040519081900360200190206008015460ff166003811115611ff357611ff36124e2565b146120105760405162461bcd60e51b8152600401610a359061292b565b6002826040516120209190612888565b9081526020016040518091039020600701544211156120815760405162461bcd60e51b815260206004820152601860248201527f507265736372697074696f6e20686173206578706972656400000000000000006044820152606401610a35565b60016002836040516120939190612888565b908152604051908190036020019020600801805460ff191660018360038111156120bf576120bf6124e2565b0217905550806002836040516120d59190612888565b908152602001604051809103902060090190816120f291906129b2565b50426002836040516121049190612888565b9081526020016040518091039020600a01819055504260028360405161212a9190612888565b908152604051908190036020018120600c019190915561214b908390612888565b60405180910390207ffc31fc6f04f05e32085b7c6d30d04a241e74ffd54ac68f72f4bde91c811693948242604051612184929190612a85565b60405180910390a2610f3c60018055565b61114181336122c6565b60006121ab83836117e9565b612229576000838152602081815260408083206001600160a01b03861684529091529020805460ff191660011790556121e13390565b6001600160a01b0316826001600160a01b0316847f2f8788117e7eff1d82e926ec794901d17c78024a50270940304540a733656f0d60405160405180910390a45060016103a8565b5060006103a8565b600061223d83836117e9565b15612229576000838152602081815260408083206001600160a01b0386168085529252808320805460ff1916905551339286917ff6391f5c32d9c69d2a47ea670b442974b53935d1edc7fd64eb21e047a839171b9190a45060016103a8565b6002600154036122bf57604051633ee5aeb560e01b815260040160405180910390fd5b6002600155565b6122d082826117e9565b610f3c5760405163e2517d3f60e01b81526001600160a01b038216600482015260248101839052604401610a35565b604051806101c00160405280606081526020016060815260200160608152602001606081526020016060815260200160608152602001600081526020016000815260200160006003811115612356576123566124e2565b8152602001606081526020016000815260200160008152602001600081526020016000151581525090565b60006020828403121561239357600080fd5b81356001600160e01b0319811681146123ab57600080fd5b9392505050565b634e487b7160e01b600052604160045260246000fd5b600082601f8301126123d957600080fd5b813567ffffffffffffffff808211156123f4576123f46123b2565b604051601f8301601f19908116603f0116810190828211818310171561241c5761241c6123b2565b8160405283815286602085880101111561243557600080fd5b836020870160208301376000602085830101528094505050505092915050565b60006020828403121561246757600080fd5b813567ffffffffffffffff81111561247e57600080fd5b61248a848285016123c8565b949350505050565b60005b838110156124ad578181015183820152602001612495565b50506000910152565b600081518084526124ce816020860160208601612492565b601f01601f19169290920160200192915050565b634e487b7160e01b600052602160045260246000fd5b6004811061251657634e487b7160e01b600052602160045260246000fd5b9052565b60006101c08251818552612530828601826124b6565b9150506020830151848203602086015261254a82826124b6565b9150506040830151848203604086015261256482826124b6565b9150506060830151848203606086015261257e82826124b6565b9150506080830151848203608086015261259882826124b6565b91505060a083015184820360a08601526125b282826124b6565b91505060c083015160c085015260e083015160e0850152610100808401516125dc828701826124f8565b505061012080840151858303828701526125f683826124b6565b6101408681015190880152610160808701519088015261018080870151908801526101a0958601511515959096019490945250929392505050565b600060208083016020845280855180835260408601915060408160051b87010192506020870160005b8281101561268857603f1988860301845261267685835161251a565b9450928501929085019060010161265a565b5092979650505050505050565b6000602082840312156126a757600080fd5b5035919050565b6020815260006123ab602083018461251a565b80356001600160a01b03811681146126d857600080fd5b919050565b600080604083850312156126f057600080fd5b82359150612700602084016126c1565b90509250929050565b60006020828403121561271b57600080fd5b6123ab826126c1565b600080600080600080600060e0888a03121561273f57600080fd5b873567ffffffffffffffff8082111561275757600080fd5b6127638b838c016123c8565b985060208a013591508082111561277957600080fd5b6127858b838c016123c8565b975060408a013591508082111561279b57600080fd5b6127a78b838c016123c8565b965060608a01359150808211156127bd57600080fd5b6127c98b838c016123c8565b955060808a01359150808211156127df57600080fd5b6127eb8b838c016123c8565b945060a08a013591508082111561280157600080fd5b5061280e8a828b016123c8565b92505060c0880135905092959891949750929550565b6000806040838503121561283757600080fd5b823567ffffffffffffffff8082111561284f57600080fd5b61285b868387016123c8565b9350602085013591508082111561287157600080fd5b5061287e858286016123c8565b9150509250929050565b6000825161289a818460208701612492565b9190910192915050565b600181811c908216806128b857607f821691505b6020821081036128d857634e487b7160e01b600052602260045260246000fd5b50919050565b634e487b7160e01b600052603260045260246000fd5b6020808252601b908201527f507265736372697074696f6e20646f6573206e6f742065786973740000000000604082015260600190565b6020808252601a908201527f507265736372697074696f6e206973206e6f7420616374697665000000000000604082015260600190565b601f821115610f73576000816000526020600020601f850160051c8101602086101561298b5750805b601f850160051c820191505b818110156129aa57828155600101612997565b505050505050565b815167ffffffffffffffff8111156129cc576129cc6123b2565b6129e0816129da84546128a4565b84612962565b602080601f831160018114612a1557600084156129fd5750858301515b600019600386901b1c1916600185901b1785556129aa565b600085815260208120601f198616915b82811015612a4457888601518255948401946001909101908401612a25565b5085821015612a625787850151600019600388901b60f8161c191681555b5050505050600190811b01905550565b6020815260006123ab60208301846124b6565b604081526000612a9860408301856124b6565b9050826020830152939250505056fe0af1dac7dea2fd7f7738119cec7df099dfad49aa9d2e7d17ba6b60f63ae7411fa49807205ce4d355092ef5a8a18f56e8913cf4a201fbe287825b095693c21775a26469706673582212201f29fe438fd8ab73ee66be1cf650017c8a0d7fe27a62fad5f78b816b46c6e3c964736f6c63430008180033",
  "linkReferences": {},
  "deployedLinkReferences": {},
  "address": "0xBC5BfBF99CE6087034863149B04A2593E562854b"
}